:20000000004000204D3A010001C9011001C9011001C9011001C9011001C9011001C90110D6
:1C00200001C9011001C9011001C9011001C9011001C9011001C901103FC9011089
:20003C0080B54FF4FC720FF278011A480EF0E4FC012119484174002202210270C17601BD20
:20005C002DE9F0410FF2502214493820136854689568D6681769D2F814C0D2F818E0D2F8F9
:20007C001C800B604C608D60CE600F61C1F814C0C1F818E0C1F81C8020322031401EE5D1DC
:20009C0050689368D46812680A6048608B60CC60BDE8F081480400215903002100C00021D1
:2000BC00410500217D0500212D06002170B51D46004C204787B2000010B5014800470000FD
:2000DC00D509000070B5614C6148254650358047022809D14034E1885E4A914204D1E97C5E
:2000FC00890601D4911DE18070BD70B557495A4A084650300378002B10D08379012B0DD181
:20011C00037C5B09DB0709D0097D544DC1746C7F20202043687790476C7770BDFF21C17420
:20013C00904770BD10B54E48484C804702280ED121464031CA88474B9A4208D1CA7C5209CE
:20015C00D20704D0227D920601D49A1DCA8010BD70B53E4843494030C07C4009C00707D032
:20017C003E4D41482C8B2043288388472C8370BD884770BD10B53B48344CAC388047214609
:20019C0053310A789309DB0705D04034A2730A7803231A430A7010BD2C4940310871182876
:2001BC0012D004DC0A280BD00B2804D10AE025280CD02A280CD02D4980004018C0687047DE
:2001DC002B4870472B4870472B4870472B4870472B48704770B504461C484E252D5CAE09AB
:2001FC00F60716D0067D3007000F052803D00120054202D00DE00220FAE7E80905D07006D1
:20021C0003D54868800F012803D05B085B0052085200062B03D01020022B11D011E0FB20F7
:20023C00024002232046FFF741FF002807DAC100611A2039497E1422114200D1002070BD93
:20025C00024303432046FFF731FF70BD4401002137CB000004140000EBC80000A800002142
:20027C00F5B4000053AD00002020000080DF00001D050021F9040021CD040021930400210F
:20029C006D04002110B5034CFFF716FF20680028FAD110BD0011044068610000F825F965B0
:2002BC00F9754500450045002600260057A3520052004C00401F401F401F3F000000000053
:2002DC00304000400140034007400F404F40CF40CF41CF43CF47CF4FCF3FCF2FCF1FCF0F6C
:2002FC00000000000000000000000F00080000003F00000040003F000000040068000E0093
:20031C00DC00060043001A00050000000000020000000000000000000400C00000000400B3
:20033C00C000000007000000000000000000000000000000000000003040004001400340A6
:20035C0007400F404F40CF40CF7FCF6FCF5FCF4FCF3FCF2FCF1FCF0F00000000000000009D
:20037C0050C00091007070C00091007082312100319110B10070018101B100A1823132910D
:20039C0010B101911110418141227740F106007051C0019130181039833108D01831416FD1
:2003BC003100319110B18314141683680070251050C00091F4C340C12014036F3110410497
:2003DC005082F0229840512622C082312100319110B163393110410482C08231210031919B
:2003FC0010B163393110A2C082312100319110B150101531051405920070676452C03110A6
:20041C0031066131C1026A6412C13110213971065131E1026A64007051C0019101CCE2C0CC
:20043C006A64676411C1C2C06A6450B054B0007140804022D6440022C94060B08180111EC9
:20045C00C944007054A064B0F0800022C9404012B09032B070C1DF6811C122C16A6470C1C0
:20047C00E46851C00191E2C0823160820200329110B130C2EE68538253395339B16460C347
:20049C00F4688012B09032B00070676401C122C16A6401C1C2C06A645382B164C012B09074
:2004BC0032B00070676472C281C06A6422C111C16A6402C011C16A6462C031C36A6462C3D2
:2004DC0011C16A6402C311C16A6453825339B164E2C36F6411221C4142C281C86A6452C24E
:2004FC0011C16A6472C2E1CE6A6402C281C86A6402C201C86A64B0C030690070676442C211
:20051C0001C86A6452C211C06A6472C2E1C06A6402C001C16A6462C001C36A6422C101C127
:20053C006A6462C301C16A6402C301C16A645382B16400708180111E5C4150B054B000712B
:20055C00408040225D4154A064B0F1800122514500700022514160B04E61000000000000AA
:20057C000000000000000000067305720B720E7250B00071818060B050A09280F0EFF1928C
:20059C0002936A6741228C458080F1C11004301601110114016CB561B661B761B861B9618D
:2005BC00BA61BB61BD61BF61C161C36126632D63F0C002043231412A121432160111211412
:2005DC00016CDA61C561E061C761CB61B561B561B561F461C561FA61C761CB61B561B56104
:2005FC00B561F461C561FA61C761CB61B561B561B561E761C561ED61C761CB61B561B56121
:20061C00B561CF61CF61CF61CF61CF61CF61C064CF61F964CF610665CF613265CF6174676A
:20063C00CF611166CF61C0644E65F964CF61066511663265CF618280E0DFF2926A67B0B044
:20065C00D661B1B00673057230B06C61D0CF6A6784C203C0C0C37C64207851788278E378B7
:20067C001579B6780062C0CF6A6784C203C0C0C37C64307861789278F3781579C678006250
:20069C00B0CF6A6784C203C0C0C37C6440787178A27803791579D678109221923292439281
:2006BC005492659256911FC0FF914039F00601101031101400927067CF61E3B054A0F08076
:2006DC0050221A4640800022BE461262E3A000C86091598150B0918041228E46A0CF6A6734
:2006FC0012828231823942398B641282F2062F101F312F141682D622334640C1346200C5AF
:20071C0020140D6F6D39DE10F4C34E0482C082312E006D39A2C082312D001A828A39FA0606
:20073C002082803180390BC00B18BC10AC18038239149B141082F0060110103110145181C2
:20075C0010140C14C622C94631D0C1266462021011C0013010C00118021882312100C126C2
:20077C00919103B013B063B053B041800122BE46B481C491D581B51C774E95186591F0803E
:20079C00102269428C623D9110B13E9110B1E08000228146E6228142E0B0951865910F926B
:2007BC005981F914F0805022114210228C464D6390CF6A6763B052A03082F2C0200402107E
:2007DC0011C0013010C00118021882312100C1269191919113B003B063B053B064B054B055
:2007FC00007141800122BE4663B064B0F08050221142B181C191D1819118619131B0A462D0
:20081C002967E0A059810582591480C0007163B0BA6A6962E3A0018262818231823D80EF61
:20083C00F19202936A6703A0007037824739873930828039F006021011C0013010C0011849
:20085C00021882312100C126819102B012B030824039F006021011C0013010C001180218E9
:20087C0082312100C126919103B013B063B053B0007153A062B052B041800122BE46A4816E
:20089C00C491D581B51CFE4E95186591F0801022F0428C62B481C491D4814518751C084FEB
:2008BC00F0801022F0428C623D9110B13E9110B1E08000221247E6221243E0B065910F92DC
:2008DC005981F914F0805022114210228C4630632967E0A0598105825914F0C0007162B038
:2008FC00226BF062A2808B64CF6112824239F2068B6050B00071CF6170CF6A674082418096
:20091C000122BE46A481C491D58195186591F18011228C46336B41800122BE46A481C491AB
:20093C00D581C51C1C4B95186591F08010223F438C6260CF6A67408241800122BE46B48169
:20095C00C491D58195186591F18011228C46506B41800122BE46B481C491D581C51CB44A55
:20097C0095186591F08010225C438C62E092D08200226B47C0B20070A080F022874330B033
:20099C0002C1623101C0A080001E8043F022814380F86031603981632010101A136F236E5A
:2009BC0011161216826B00702DE9F84FDFF81885DFF8181588F80000002008600921DFF891
:2009DC00100501700D2141804FF408718180DFF80405DFF8041501608A7EDFF80005027042
:2009FC00FF2ACB7E437008BFFF2B0D7F85704E7FC6708F7F0771C97F417115D1FF2D08BFE8
:200A1C00FF2E11D1FF2F08BFFF290DD1DFF8D0140A7802704A7842708A788270CA78C27025
:200A3C000A79027149794171DFF8B81402780A70FF2542784A7082788A70C278CA7002791E
:200A5C000A714079DFF8A02448710021DFF89C04057045708570C570057145711180DFF872
:200A7C009004DFF89014466BDFF88C247078087031781170B078DFF884140870716908791F
:200A9C00DFF87C14421E0A70F078DFF878140870B069DFF87414086008B915F02BFEF0698E
:200ABC00DFF86844206008B915F024FE2068DFF8607401688847216851F8042F384690476A
:200ADC00DFF85004DFF850143862DFF850047862306A086008B915F00DFE706ADFF840141D
:200AFC00086008B915F006FEDFF838B4DFF838649BF8040016F0A2F9306008B900F045B9FB
:200B1C009BF80500DFF8247416F098F9386008B9306837E19BF80600DFF8144416F08EF9BD
:200B3C00206020B9306816F091F938682AE19BF80700DFF8009416F081F9C9F8000038B936
:200B5C00306816F083F9386816F080F9206819E1DFF8A4130A789BF80000DFF8DCA3921C17
:200B7C00504380B216F06AF9CAF8080058B9306816F06CF9386816F069F9206816F066F958
:200B9C00D9F80000FEE0DC480078002800F00281BBF80210DFF8A4B3484380B216F04EF956
:200BBC00CBF8040078B9306816F050F9386816F04DF9206816F04AF9D9F8000016F046F967
:200BDC00DAF80800DEE0CC48007816F037F9DC49086080B9306816F039F9386816F036F934
:200BFC00D9F8000016F032F9DAF8080016F02EF9DBF80400C6E0C04800781C21484316F005
:200C1C001DF9D04A1060B0B9306816F01FF9386816F01CF9206816F019F9D9F8000016F0C7
:200C3C0015F9DAF8080016F011F9DBF8040016F00DF9C348A5E0B0480078400116F0FEF880
:200C5C00C1490860D8B9306816F000F9386816F0FDF8206816F0FAF8D9F8000016F0F6F8FE
:200C7C00DAF8080016F0F2F8DBF8040016F0EEF8B348006816F0EAF8B249086882E09E48CD
:200C9C000078000116F0DAF8B0490860F0B9306816F0DCF8386816F0D9F8206816F0D6F898
:200CBC00D9F8000016F0D2F8DAF8080016F0CEF8DBF8040016F0CAF8A148006816F0C6F81D
:200CDC00A049086816F0C2F89F485AE08A480078000116F0B3F89E49086018BB306816F002
:200CFC00B5F8386816F0B2F8206816F0AFF8D9F8000016F0ABF8DAF8080016F0A7F8DBF8DA
:200D1C00040016F0A3F88E48006816F09FF88D49086816F09BF88C48006816F097F88B49B3
:200D3C0008682FE0744800783021484316F086F8884A106070BB306816F088F8386816F053
:200D5C0085F8206816F082F8D9F8000016F07EF8DAF8080016F07AF8DBF8040016F076F808
:200D7C007748006816F072F87649086816F06EF87548006816F06AF87449086816F066F807
:200D9C007348006816F062F8002015F0B3FC4FF4804192E03168012008713068057331688E
:200DBC004D73306885733168CD7330680574002031684D743268D072A0223168487103214F
:200DDC003068C28001720720316848720020326890722821306841820121C17600203168BE
:200DFC004877326882F85E00012031680877326882F85D00396808713868057339684D7369
:200E1C00386885733968CD7338680574002039684D743A68D072396848713A6890724FF47D
:200E3C00207039680022C88008818A7401213A68D17421680D732268557321688D732268FD
:200E5C00D57321680D740021226855742368D9720121226811710021236859712168C88065
:200E7C000881002088722168887405202268D0743948016888472A490A6805461068804713
:200E9C0027490A6852F8043F0020984718481D4BC16818780A88314902430A802846304985
:200EBC000A6890470C212F4800F05EF80F4800F05FF800F061F84FF4005198F80000BDE833
:200EDC00F44F0CF03BBB00BF6E4F0020044F0020604E0020084F0020B63F00502C4E00208E
:200EFC00E81200503C4E00200C4F0020344E0020848A01006D4F00207B4F00206B4F002016
:200F1C00724F00206C4F0020F04E0020F44E00207C4B0020596E0100F84E0020696E01004C
:200F3C00FC4E00208C1D0020104F002048290020184F00204C2900200C290020684E00200B
:200F5C00004F00204029002044290020884E00208C4E0020904E0020F8170020544F002010
:200F7C00FC170020F84D0020DFF800F0E5710110DFF800F01D6E0110DFF800F04D71011096
:200F9C00B0B5174C241D20680004070C23D01248006800688047114991F90720824205DDF8
:200FBC0010F1800FB8BF6FF07F00C8718D88BD4210D80A68D4F8D40F801A801C1F2888BF16
:200FDC001F207F1B4008C7404FF6FF70EF19B84238BF071C8F80B0BDEC0100102C2900200F
:040FFC003010094068
:20100000B41200001810000015AB0110FDB301106DC00110FDAE011099B5011000000000F7
:08102000000000002D0000009B
:20102800B01200003C100000B1C00110A9BF011067C0011069B80110000000000000000035
:041048003000000074
:20104C00B012000060100000BDC00110CDB30110D9BD01106DB3011000000000000000005B
:04106C00310000004F
:2010700000000000AC1D002004000000000000000000000020000000E8C901103000000061
:2010900028100000B41D00200400000000000000000000000C000000D8CA0110180000003C
:2010B0004C100000BC1D002004000000000000000000000024000000F0CA011018000000C0
:2010D00000000000C41D00200400000000000000000000001000000018CA01102C000000CC
:2010F00000100000D41D0020040000000000000000000000200000006CCA01102400000030
:20111000FFFFFFFFDC1D00200400000000000000000000002800000090CA011024000000EF
:20113000FFFFFFFFE41D00200400000000000000000000001400000008CB0110180000006E
:20115000FFFFFFFFEC1D002004000000000000000000000058000000B4C90110340000003C
:20117000FFFFFFFFF41D00200400000000000000000000001000000020CB0110180000000A
:20119000FFFFFFFFFC1D00200400000000000000000000001C000000B4CA01102400000037
:2011B000FFFFFFFF041E00200400000000000000000000003800000044CA0110280000005E
:2011D000FFFFFFFF0C1E00200400000000000000000000005400000078C901103C000000D3
:0811F00001000000588A010013
:0411F80001000000F2
:0411FC0000000E00E1
:0412000000000F00DB
:0412040032000000B4
:0412080001000000E1
:04120C007C1C002026
:0412100000020000D8
:0412140000000000D6
:0412180001C90110F7
:04121C0000000000CE
:0412200000000000CA
:0412240008000000BE
:0412280000002200A0
:04122C00B41A0020D0
:0412300000000000BA
:0412340000000000B6
:0412380008000000AA
:04123C00241C00204E
:0412400000000000AA
:0412440000000000A6
:04124800080000009A
:04124C00000000009E
:04125000000000009A
:041254000000000096
:041258000000000092
:04125C00010000008D
:04126000501B0020FF
:041264000600000080
:041268000100000081
:04126C009C190020A9
:04127000000000007A
:041274000000000076
:041278000002000070
:04127C00000000006E
:02128000290043
:02128200010069
:02128400250043
:02128600300036
:02128800310033
:02128A002D0035
:02128C0001005F
:01128E00015E
:0812900003000000DC890100ED
:0812980000000000000000004E
:0412A0000000010049
:0412A4000000030043
:0412A80013C401105A
:0412AC00B16B010021
:0412B000B812000070
:0412B400B81200006C
:0412B8000000000032
:0412BC00441D0020AD
:0412C000656D010057
:0412C4002000000006
:0412C800E4880100B5
:0412CC00EC860100AB
:0412D00029C101101F
:0412D400F7240100FA
:0412D80017290100D1
:0412DC00A1C7011095
:0412E000A3C701108F
:0412E4000000000006
:0412E8003B8701003F
:0412EC00F084010089
:0412F000088501006C
:0412F400D884010099
:0212F8000200F2
:0212FA000900E9
:0212FC000100EF
:0212FE000000EE
:0113000001EB
:04130400CD6C0100AB
:04130800C14C0100D3
:04130C001560010067
:041310004551010042
:04131400AB510100D8
:04131800693801002F
:04131C00E10C0100DF
:041320006F6F0100EA
:04132400D9220100C9
:0413280015C70110D4
:04132C0025C70110C0
:201330002DE9F843089C582B804617460CBFBDA5C1A5002908BFB8F1000F05D12068411E0A
:201350002160302707702AE04FEAE7793E460246083E13D0083E0DD0002908BFB2F1FF3FA2
:2013700004D94B463A4606F07FFE0BE0B2FBF7F0002107E008071209090902E04807D2082E
:20139000C9081043226800FB1783561E0029EB5C26608046137008BFB8F1000FD6D1206899
:2013B00015F078FC401EBDE8F8837CB51446002806460D460094B8BF404264230A22C117BC
:2013D000FFF7AEFF702D0BD0502D09D00A2E09DA16F10A0F04DD2068411E21603023037042
:2013F000002E01D42B2100E02D212068421E226001702068411E216005707CBDF8B5174665
:201410000D46044615F046FC024629460020002903DD8A42A4BF0819401E27B11D686E1E61
:201430001E602E272F708A4208DA8F1A302511461A68561E1E607F1E1570F9D100290CDDB5
:2014500084420FD8071B7F1C196810F801294C1E1C607F1E0A70F7D1F8BD1868411E19608D
:2014700030270770F8BD2DE9F04F04461546A868ADF16C0D0028199302D003D5062000E034
:201490000120A860884630210FF2043B8DF800109BE80C00471C204641460EF0D9FCA14686
:2014B00038BF88F00048002612E03020087059E09AE80C000AF040FD761E8846814611E06D
:2014D0009AE80C00484609F0E3FC761C88468146C9A20CCA41460EF0FEFC0FF2143AEFD310
:2014F00000201A909BE80C0048460EF0B1FC09D01A9CC3A20CCA48460EF0AAFC38BF012432
:20151000002CD5D1484612F083F983460DF1010111F0C8FB841900EB0D01874201F10106F8
:2015300019DD3F1A584614F0E8F80B4602464146484607F0B9FD9AE80C000AF0FDFC884620
:20155000814612F065F983460BF130007F1E06F8010BE7D101E06F447E1C16F8010D352859
:201570000ADB314611F8010D401CC2B23A2A08709BDA6F468F4204D01A980DF10107307015
:2015900003E01A98641C06F8010C14F1030F09DBA868A04215DA022C04DB1A98641E2418C2
:2015B0001A9406E0002C05DC1A98C4F10104001B1A900124287B199A801EC1B21A98FFF715
:2015D000F4FE384615F066FB0026401E844219DC021B521C002803D4395C302901D004E0B9
:2015F000302116B92B681B0908D3DDF864C0DCF800305E1ECCF8006001261970521EA0F1DB
:201610000100E7D12868002200F00800304318BF0122199B21463846FFF7F0FE1BB0BDE8FD
:20163000F08FC0463031323334353637383941424344454600C046C0303132333435363711
:20165000383961626364656600C02DE9FE4F0D99441C9946924601900FF2341B00940C9FB4
:20167000029130210170194610469BE80C000EF0EFFB38BF89F00049002512E03020087041
:2016900054E098E80C000AF057FC6D1E8946824610E098E80C00504609F0FAFB6D1C8946B3
:2016B000824655A20CCA49460EF015FC0FF24018EFD37F1C9BE80C0050460EF0C9FB0AD070
:2016D0004FA20CCA50460EF0C3FB4FF0000638BF0126002ED5D1504612F09AF806462146CD
:2016F00011F0E0FA041941190298EF19002F016017DD304614F001F80B4602464946504631
:2017100007F0D2FC98E80C000AF016FC8946824612F07EF8064606F130007F1E04F8010B35
:20173000E7D114F8010D352810DB214611F8010D401CC2B23A2A0870A0DA0198884205D1A2
:201750000299019A08680092401C0860002100982170BDE8FE8FF8B516460D46044615F056
:2017700099FA324629465118491E521E0FD4521C002903D48842C8BF665C00DC30261D6884
:201790006F1E521E1F60A1F101012E70F0D1F8BD0000000000000000F0B51546AF681C469C
:2017B0000246ADF5FE7D002FADF1100D44BF0627AF60266802A800970B46019003A8FFF739
:2017D00044FFAA68029923460746FFF7C4FF20680122B04203D12868000938BF00220299DC
:2017F00038462346FFF70AFE7FB004B0F0BDC04600000000000024400000C0FFFFFFDF411D
:20181000000000000000F03F2DE9F0471646B4689A4688460746ADF1700D002C44BF062455
:20183000B4600FF2E42999E80C000EF054FB4FF000050DD90FF2D82999E80C0038460EF067
:2018500007FB05D9B4A20CCA0EF002FB12D11FE099E880010EE099E80C00384609F018FB88
:201870006D1C07460FE099E80C000AF065FB6D1E88460746AAA20CCA414638460EF0E8FAFF
:201890000FF2A429EFD399E80C000EF024FBE2D9009402A80B463A46019003A8FFF7D5FE2F
:2018B00004460298022809D1401E0290204615F0F1F96D1C0021201800F8011C317B2846DA
:2018D0005246FFF772FDB268029920465346FFF742FF204615F0DEF902990122884203D172
:2018F0003068000938BF002220465346FFF786FD1CB0BDE8F0872DE9F04F074616460020A0
:20191000ADF17C0D1B9380A4009094E80C0038460EF0E1FA88460FF200290CD97CA494E8D6
:201930000C0038460EF094FA05D999E80C000EF08FFA02D109E094E88001414638466A4621
:2019500010F094FC0098401E0090307BB5680024A0F14101B5F1FF3F1D9108BF0124A2463C
:2019700041280CBF744875481E9030208DF8080099E80C00414638460EF06AFA38BF88F0BC
:20199000004899E80C0041460EF062FA0CD0384601AA10F06BFC019A41463846C2F10102BF
:2019B0000BF072FB88460746384611F031FF83460DF1090111F076F90446584613F09DFE1E
:2019D0000B4602464146384607F06EFB0FF2601B04EB0D021C940746BAF1000F02F10904C8
:2019F00051D16D1C15D09BE80C000AF0A5FA8846814611F00DFF1E99095C04F8011B13F046
:201A10007CFE0B4602464146484607F04DFB6D1EE9D11D9F641E002F14BF484B464B21780D
:201A3000184615F0B2F8C01A082831DB254600271D986D1E002814BF404B3F4B2978184692
:201A500015F0A3F8C01A401C1028B4BF195C3021102829701CDB2F70EAE79BE80C003846EA
:201A70000AF06AFA0D46074611F0D2FE1E99095C04F8011B13F041FE0B460246294638468B
:201A900007F012FB074699E80C000EF0E1F9E4D10025307B2570412814BF702150211B9A73
:201AB0000098FFF782FCB068B0F1FF3F05D10DF1090015F0EFF8401EB0601C991B9B0DF173
:201AD000090402462046FFF746FE3168B0682A4601F00801084318BF01221C991B9B2046D0
:201AF000FFF78CFC307B412814BF782158211B980268531E03601170016830274A1E026063
:201B10001FB00F70BDE8F08F000000000000F07F000000000000F0FF0000000000000000E5
:201B3000000000000000F03F000000000000244000000000000030403416000048160000EA
:201B50002DE9F04F05462B6816460C46ADF5FE7D1846ADF1600D15F09DF84FF0000A0146E4
:201B70008B96184693945B1883428C9340F24A84CDF844A2CDF824A2514692918A91969126
:201B9000B84A959294924FF0FF360396899901910F468DF8107002970778252F08BF0A1C72
:201BB00010D0002F00F02E842968491C296000788B9914F09FFA286807780AF1010A252F43
:201BD000EFD1019A2868939C401C286011E042F010020AE042F0010207E042F0020204E0A2
:201BF00042F0080201E042F0040201922868401C286028680178B1F12000F4D0C01EEFD04D
:201C10000838EAD0801EE5D0C01EE0D02A291DD0969986A80A220EF060FD28680178302953
:201C30000BDB86AA3A2908DA0146401C2860097802F8011B01783029F4DA9DF818722E6822
:201C5000B7B186A811F0E4FB029011E0E41C24F00304241D54F8040C002803D542F001028E
:201C700001924042029020462E689390761C2E6030782E2831D12868401C286000782A2830
:201C90001FD0969986A80A220EF027FD2868017830290BDB86AA3A2908DA0146401C2860B2
:201CB000097802F8011B01783029F4DA9DF818722E68002F08BF8A980DD086A811F0A8FB61
:201CD00009E02E68E41C24F00304241D761C939454F8040C2E6003903078019F4C381FD028
:201CF0001C3811D0001F21D12E68761C2E6030786C2803D047F04007019717E02E6847F4EB
:201D10008077761C2E60F7E72E68761C2E603078682818BF47F02007EED147F4007701E049
:201D300047F0800701972E68761C2E602868401C286030786E288DF8100000F02E83732804
:201D500000F0E2820DF21520029E059020214FF4FF7206A80EF0C1FC6E44183605988D9698
:201D70008A9901700B468E930DF5057C8F938B4690939DF81070CDF814C03846642814DC0C
:201D9000642821D0253800F0B4821C3800F00D81001F022840F20981133815D0093800F0FB
:201DB0000481801E00F0EC8172E16538022840F2FC80001F08D0801F012805D9801F18BFB8
:201DD000B0F1030040F064810399002904D4019820F01000019002E0012003900146B7F1CE
:201DF000580007D0173807D0401E03D0083818BF0A2202D1102200E00822702F77D001987C
:201E1000D946D84600F4EC60203852D0203842D0C03829D0B0F580700DD0B7F1580066D0B8
:201E30000C385BD0401F59D0801F60D0801F5ED0C01E5CD065E0B7F158000AD00C384DD075
:201E5000401F4BD0801F04D0801F18BFB0F1030057D1E41C24F00304241D14F8048C4FF00C
:201E700000094DE0FFFF0F00B7F158000AD00C3808D0401F06D0801F04D0801F18BFB0F15A
:201E900003003ED1E41D24F007040834A4F1080090E8000334E0B7F1580028D00C381DD06F
:201EB000401F1BD0801F22D0801F20D0C01E28D11DE0B7F158000AD00C380FD0401F0DD09B
:201ED000801F04D0801F18BFB0F1030019D1E41C24F00304241D34F8043C0EE0E41C24F0B1
:201EF0000304241D54F8043C4FEAE37907E0E41C24F00304241D54F8043C4FF00009984674
:201F10009394CC1743464846194350EA040608BF002903D101990C09C0F04881642F18BF9A
:201F3000692F08D1002806DA01265B424FF000018F9661EB000005A90091014618463B463E
:201F5000FFF7EEF90399401C814227DA9DF81070782F03D0582F18BF702F11D101990809BF
:201F70000FD3702F08BF7827059807700598401E05903021017005989DF81070401E05905F
:201F900001996F2F40F012810809C0F00F8105984278302A00F00A813021ECE005993022AC
:201FB0000A700599491E0591CCE73846A0F16101192998BF20385E46B84208BF0126E41D5A
:201FD00024F0070408349394083C94E8030047F6F07347F6F07E03EA11439E4510D1949C2C
:201FF0000A4600231200134300221C4040EA02024FF0FF3303EA020208BF002A40F0A180A6
:202010005FEA0B0440F09D8073460FF2C42C03EA11439E450FD1959C0A4600231200134351
:2020300000221C4040EA02024FF0FF3303EA020208BF002A33D05FEA0B0430D19CE80C00A5
:202050000DF006FF3CBF81F000414FF0010BB7F141021FD0121F15D0521E0ED0521E07D0F1
:202070001A3A17D0121F0DD0521E06D0521E0FD101AA05ABFFF7F7F908E001AA05ABFFF7F7
:202090008BFB03E001AA05ABFFF7BEFB9DF8107001998BE001AA05ABFFF72DFC29E09CE89C
:2020B0000C000DF0D5FE26D3002E14BF4621662105988DF81412002EA0F10100059014BFDC
:2020D0004E216E2101700599002EA0F10100A1F10101059114BF4921692101700599491EBC
:2020F00005912B2700F8017C05984FF0030B401E0590019958E0002E14BF46216621059838
:202110008DF81412002EA0F10100059014BF4E216E2101700599002EA0F10100A1F101017B
:20213000059114BF4921692101700599491E05912D2700F8017C0199DDF814C04FF0040BCC
:202150002FE0002E14BF4E216E2160468DF81412401E002E059014BF412161210170059929
:20217000002EA0F10100A1F10101059114BF4E216E214FF0020B01700598401E059085E7DB
:20219000E41C24F003045E46241D14F8047C939407B901268DF814720199909621F00201B6
:2021B00001916046401E05909DF81070059A752F02F101002BD06F2F29D0782F27D0582FE1
:2021D00025D0702F23D05FEA0B0703D07F1E1ED101238F9301F002038F9F8E931FB98B08B8
:2021F00008D32B2100E02D211170059A0199401E521E05928E9E374309D1CA0807D3059991
:2022100020220A70059A0199401E521E059249080ED20599029AADEB010303F215239A4244
:2022300006DB8D9C06AA891A6418A4F5FE7400E006ACA446401E4FF4FF7110F8017F0CF891
:20225000017B1FB1491EF8D1DDF858C2909ACDF814C022B18A9960460170401C05900598A5
:202270008D9981420AD38846A8EB00022021401E521C0EF032FA8A9888F80000019840096A
:202290002AD306A8A0422ED006A8221A302106A80EF023FA9DF81000782810D058280ED01C
:2022B00070280CD08E9F8F9E374302D10198C00819D320788DF818003027277013E00198F7
:2022D000000910D360788DF81900302767700AE0000000000000000006A8241A20212246DF
:2022F00006A80EF0FAF906A814F0D4FC909A121804E047A00188012206AF39808B9906A8A2
:2023100013F0FDFE824478E0039BE41C24F00304241D54F8048C9394B8F1000F38D0029E34
:20233000002B06D4404614F0B5FC984288BF181C02D8404614F0AEFC0446B442A8BF061C21
:20235000B244A6420ADD780808D2371B002F05DD8B99202013F0CEFE7F1EF9D1002C07DD41
:20237000274618F8010B8B9913F0C4FE7F1EF8D10198A64241DD40083FD3361B002E3CDDE4
:2023900037468B99202013F0B5FE7F1EF9D134E096988B9913F0AEFE2FE007F4EC67B7F115
:2023B000200021D0E03814D0B0F5807008D0E41C24F00304241D54F8040CC0F800A01BE088
:2023D000E41C24F00304241D54F8040C80F800A012E0E41C24F00304241D54F8040C4FEA3A
:2023F000EA7B80E8000C07E0E41C24F00304241D54F8040CA0F800A0939428688C9981427E
:202410003FF6C1AB7FB0504618B0BDE8F08FC046250070472DE9F04FE94C4FF00109484617
:2024300069F31F68002604F10C0AADF16C0D60F317485146032066F3070860F30F28601C87
:2024500010F0ACFC04F12C052846314615F062FA2561DC4D4FF4FA72042304F178002946F7
:2024700011F046F9FA22202304F19C00294611F03FF92822402304F1C000294611F038F971
:20249000D14D05F1180005F10C010CF055FBCF49A86014F09BFDCE4FA8684FF4E0213A4604
:2024B000921E12F0F5FCA8684FF4E0213A4612F0EFFCC84FA8684FF0C0513A46921E12F0FF
:2024D000E7FCA8684FF0C0513A4612F0E1FCC24905F12400C822334611F00AF9BF486860EF
:2024F00014F091FEBE4D05F1CE07396841F00401396015F00BFA30462946087014F083FE07
:20251000396841F00401396015F000FA30462946087014F078FE396841F00401396015F0F0
:20253000F5F930462946087014F06DFE396841F00801396015F0EAF929464846487014F0BC
:2025500062FE396841F01001396015F0DFF929464846D74D887068688047D7490746D54878
:20257000C160D64901610EF05DFCA96838468847D34804F120014FF4007741614FF480653F
:20259000C0F810A04FF4807347810C228381CD4905810DF126000CF035FA0DF126000C2157
:2025B00014F053FE0CF092F9002800F0EA8320208DF846003F278DF860600DF146010DF1B1
:2025D00042028DF84770022012F042F901280CD1232080278DF846000DF146010DF14202CA
:2025F0008DF84770022012F033F9404612F0B2FB12F095FB13F0A0FD13F01DFF0DF1570064
:2026100013F004FC2A2013F007FFA8A011F04CF84FF0804031460FF0E7FCAB4FA0601F2234
:2026300006233946102007F011FB8DF85890ADF81A604FF448738DF859605020ADF8206052
:202650004946ADF81E3016AAADF81C004FF47A7340F20530ADF8223003F080FD40F2063001
:2026700002210DF11A0203F079FD04F15C024FF442701B2103F072FD04F1460240F2073018
:20269000162103F06BFD4FF4447049460DF1590203F064FD40F21130022107AA03F05EFDD0
:2026B00040F2123002210DF11E0203F057FD40F21330022108AA03F051FD4FF44570022168
:2026D0000DF1220203F04AFD04F1380032460E23D3490090102007F0B9FA3946102006225B
:2026F000A02307F0B3FA394610200722A02307F0ADFA394610200822A02307F0A7FA394677
:2027100010200922A02307F0A1FA059648468DF85D008DF85A908DF85B90C24F8DF85C60BD
:202730004FF48162042305A839460090102007F08DFA0DF15A00009039462A464B4610203A
:2027500007F084FA0DF15B00394640F202424B460090102007F07AFA17A8394640F2034235
:202770004B460090102007F071FA0DF15D00394640F206424B460090102007F067FACE4982
:2027900010204FF0FF3207F061FACC4910204FF0FF3207F05BFACE4D10201323CB4FCD4A84
:2027B00000903946019507F051FACB480078800014F033FDC94D0146A96009B312E0C046C9
:2027D00020050020B96D0100E8190020294801000900058009000010DD6B01003F71010049
:2027F000022002404FF6FF7012F0EAFABC49102005F10C02009011230191394607F026FAA6
:202810008DF85E6017208DF85F00ADF8246049460DF15E0230460CF0A1FB484649460DF10B
:202830005F020CF09BFB022009AA01460CF096FB04F11C0004F12402C9496860102007F0BF
:2028500005FA607812F088FFC6490246102007F0FDF9607812F080FFC3490246102007F0C0
:20287000F5F9C249102007F0F1F9C1491020042207F0ECF9BF4D69782878A1B904F118010D
:20289000296212F069FF05F154070096024605F14400019005F11C030297B7490393AB78D2
:2028B000102007F0D3F904F1E40B5EE0380D0A00F4170020280F0020096D0100351C010059
:2028D000641C00207C890100BD840110401E2071CA4814F0BCFCE82700200DF166018DF81A
:2028F00065000DF13A028DF86670072011F0B0FF9DF83C609DF83B109DF83D509DF83E20D1
:20291000082708208840311807FA05F09DF83F609DF840508BB203F0FF031118802B8AB2AE
:2029300007FA06F005EB000188B2B4BF43F0800303F07F0302F0FF02802AB4BF42F0800203
:2029500002F07F0200F0FF008028B4BF40F0800000F07F002179277926792BF811300BEB98
:2029700047018A820BEB46010885E068C04A00214FF0FF3314F0C6FF071CF6D000200490DF
:202990000DF1560104AA06A812F0EEFB002840F0E280BDF8181060780126102940F0D68036
:2029B0009DF85610884240F0D180049D29884FF6FF728A4200F09680B2462E78913E33D077
:2029D0001F3E40F081806978162911D0A7492A79A06809787E2A08D07F2A1BD12A899AA337
:2029F0000092002213F059F814E02A7A9AA3F7E712F0B2FE034680209B4900906A881020DB
:202A100007F024F930B950460DF0CCFF4FF0000A656159E0297905F1080014F06FFF53E0BE
:202A300041FC0000D15E000068780E3828D0801E46D02E3848D1A8780C2845D18B48EE7826
:202A5000A1680078CEB9401CC2B2CEA308461146002213F022F8E879012814BFCEA0D0A0FE
:202A700000908248A1680078CFA3801CC2B208461146002213F011F826E0401CCEA3F5E767
:202A9000A88842F2030181421ED1A9680E78DEB9491C0DF132000A68496802600DF132068E
:202AB00041603078DB490DF1320200F0FD003070102007F0CBF807E03D5F0100E962010020
:202AD0000820002106F012FA56463FE081560100B889010000120020694F0020B0140020D8
:202AF000C48901006888000A30D3656975B3A07805F10803401CA070C54900936A882B79C9
:202B1000102007F0A3F85FFA80FABAF1160F12D06078BAF1040F0ED0656912F01DFE0346B6
:202B30000020514900906A88102007F08FF850460DF038FF0AE0A0784C4900900978A06821
:202B50000022A2A3491CC9B212F0A7FF049810B10EB114F02BFBF80FC0F0988090E0C046EB
:202B700019650100518801103181011025F5000041690100B0090020F33C01002069054677
:202B900014F0B8FE854208BF002602D0866812F031F9301C74D03088401E6BD0401E2FD08D
:202BB0000E386AD18EA010F07FFD2079002864D10020054660F31F6803222B4665F3174852
:202BD00063F3070862F30F28404612F0C3F8284613F022FC28460DF14E010DF14A028DF898
:202BF0006100B12502208DF84E5011F031FE0A2020718D4814F02BFB3FE0C046E005002035
:202C1000B07810B1401E18D037E000200DF1620113F0A2FA9DF86200401E0AD0401E18BFDA
:202C3000002007D10A207F49E0707D4800250D70E0E701207B4908701FE001200DF162013E
:202C500013F08AFA19E0C0464D54552053697A653A20256400C046C046432056696F6C61E0
:202C70007465643A20256400536D0100941C0020640000C0B07805F077FF304612F0BAF8B2
:202C9000206914F033FE00283FF478AFF80813D3624814F0DCFA58A010F006FD5E48006871
:202CB000C0F38006002006B901205E4908700DF16301002013F050FAB80913D3E07888B1A5
:202CD000401EE070564814F0C2FA012013F088FF20782246401C2070012001460CF03EF9A6
:202CF00027F02007F809FFF440AE207900287FF4EDAD9BF800009BF814709BF82830022619
:202D10008DF852004FF0000C8DF8537009258DF8543006EB0B0703210DF1510313F8010F6E
:202D300037F8142B9042ACBF801A101A8DF864009DF864008445BCBF9DF864C01A70491E44
:202D5000ECD16D1E06F10206E3D10120002660F31F690746032567F3174966F3070965F356
:202D70000F29484611F0F6FF11F0D9FF13F0E4F913F061FB19A813F049F82A2013F04CFBD6
:202D9000F3E5FEE75048592055706461746520436F6D706C6574650032204D62707300C0F5
:202DB00031204D62707300C043757272656E74205048593A20257300504859204368616EEF
:202DD0006765206661696C75726500C05273702073656E642072657472793A20256400C057
:202DF00054657374696E6720666F7220737572652121210D0A00C046486F6C6120486F6C58
:202E10006120486F6C6120486F6C610D0A00C046DDFE001095B400108020024098050020F9
:202E3000BC05002002200240E00500202DE9F04F0C4685B0834614F8010BDFF870278DF888
:202E5000000018280BF1FD010BF1E7080BF166090BF20D1A0BF5B0760BF59C750BF5C6773A
:202E700000F29183DFE810F019006F005F0191008F038F03FA00690311012301FE000D0130
:202E900033018F038F037C018F03610155017503D602D60227028F03740214F8010B8BF80F
:202EB0008600022221460BF1880014F01BFD014602220BF18A0014F015FD014602220BF1E3
:202ED0008C0014F00FFD014602220BF18E0014F009FD04469BF8860040008BF886000BF19F
:202EF000860102224888400048800BF186008188490081800BF18601088900010881214665
:202F10000BF1840014F0EEFCB9F81E10BBF80800091A89B247F6FF7291422ADA0BF1860133
:202F3000C8888A88401C520050430A89904203D33B208AF80B0039E2012089F81C000020C2
:202F5000ABF81E001EE0052221460BF1610014F0C9FC014602220BF1920014F0C3FC0BF136
:202F7000860047F6FF728189BBF80800091A89B2914280F218820BF1860001218172002153
:202F9000ABF81E10012028700CE398F81600C1070AD41A2198F80D0088F80E10012808BFF6
:202FB0000D213FD00D21CDE1002089F8000089F806000822012088F8110021460BF1B000D1
:202FD00014F090FC014602220BF1B80014F08AFC0BF1A80601460822304614F083FC04464A
:202FF0000821304614F07AFC0BF19C0604222146304614F077FC0421304614F06FFC0BF18A
:20301000A00014F067FC0BF1980014F05FFCDFF8A005018841F08001018098F80D000128A8
:2030300006D10421584605B0BDE8F04F11F0F0BC99F81000012804BF99F811100F290BD14D
:2030500058460FF001FB042158460EF01FFB0F2089F81A00FD2175E1042173E1012088F894
:203070000F009FE2002089F8000089F8060088F800000B21012088F80D00002088F801008D
:2030900060E1012088F810008CE2002002F10906235C365C33432354561C365C33400B54CA
:2030B000401C0828F2DB58460EF0EEFD70E2002002F10905235C2D5C2B432354551C2D5CC6
:2030D0002B400B54401C0828F2DB022048E299F8060008B93D2167E19AF800000128D3D015
:2030F00014F8011B8AF80310022221460BF5897014F0F8FB014602220BF58A7014F0F2FB32
:2031100001208AF800009AF8020000281BD10C2118E198F81600C10601D41221D1E058466A
:203130000FF0A4FF34E221783EE1207830706078707099F8100001280CD199F811100F298E
:2031500002D0162902D02DE268732BE2387B40F0010016E205B0BDE8F04F002013F0D0BA63
:2031700098F81600810707D410F0110F08BF0F2000F009821A2252E02078617800EB0120BA
:203190002882E178A07800EB012068826179207900EB0120A882E179A07900EB0120E8827C
:2031B000207A2876A17A607A00EB01206883217BE07A00EB0120A883A17B607B00EB0120AB
:2031D000E883217CE07B00EB01202884A17C607C00EB01206884217DE07C00EB0120A884A1
:2031F000A17D607D00EB0120E8840BF5AA700490688B0390287E0290BBF808000190E88A22
:203210000090AB8A6A8A298A58460DF0B3FC68B198F81600410701D40F2152E01E225846CC
:2032300005B0BDE8F04F0F2111F00EBC688A0BF186018880A88AC880E88A088102208BF853
:20325000860000204880BBF83400C01DA9F81E008888BBF83210884201BF0BF18600C18813
:20327000BBF83400814206D10BF186000189BBF8360081421DD099F81000012804BF99F8FA
:2032900011100F2907D099F8150020B10F2189F81A10FE2156E0FC2158460EF0F7F9E88A2C
:2032B0000090AB8A6A8A298A9BF8060014F00AFB78E1102146E098F8170010F0090F03D1AD
:2032D00016218AF80C1060E16078217800F00700014021702078797B0140F97211D0481E0F
:2032F00001420CD0490704D5B87B10B10421F97205E0F97A022001421AD14008FBD1F87AC4
:2033100008B9B97AF972F87A042803D158460FF04CFFB083F87A14F0D1FA3871B28BB97B56
:20333000012310F0F1FB0146308B884202D207E0F872E4E7B28BB97B3879012310F0E4FB8C
:2033500078801721584605B0BDE8F04F0EF09EB960782178814207D100F0070008402070C6
:2033700033D0421E10420FD01E221821584611F06BFB9BF80610002300221E200BF0C6F846
:20339000387B40F04000FCE0F87247F6FF72A078E17800EB012038813989BBF80800091A30
:2033B00089B2914206DB28218AF80B1001208AF80A00F7E00120B871F87A042803D158464A
:2033D0000FF0F3FEB083F87A0BE099F81100162806D1BA7A9BF80610134600200BF096F8C7
:2033F000B87A3871B28BB97B3879012310F08CFB0146308B884205D3B28BB97B387901232B
:2034100010F082FB78800121387B40F0400038732970C7E02078617800EB01207082E1782F
:20343000A07800EB0120F0826179207900EB01203082E179A07900EB0120B082B18AF08950
:20345000884288BF0846B97A042905D140F691229042B8BF4FF42960F28BF0839042B87AD5
:2034700014BF01240024042803D158460FF09DFE04E0B089F18A884288BF0846B28BB08381
:20349000904214BF012100210C433089718A328B884288BF0846904214BF012100210C43DE
:2034B0003083B28BB97B3879012310F02DFB0146308B884205D3B28BB97B3879012310F0F1
:2034D00023FB78807189308A728B814288BF0146718391429BF8063014BF012000200443D9
:2034F0008A4234490A6802EB4311728B8041121DC00F0A7610B1584611F032FD9DF8000060
:20351000142810D144B1F08B0090738BB28B318B9BF8060014F0CEF9584605B0BDE8F04FEC
:2035300015210CF01BBD1CB1387840F008003870397841F02001397034E020780E280ED0A8
:203550000F2809D0122804D014280CD0162812D028E00020287225E00120287322E003205D
:2035700088F815001EE0387840F00200387040F01000387016E0387B40F00200387340F080
:20359000100038730EE08AF80C0058460FF090F940B905B0BDE8F04F074800784FF4804161
:2035B00009F0D2BF05B0BDE8F08F00BFC8280020524F0020442900206E4F00202DE9F04F49
:2035D000D04C04F118012046ADF1440D0FF0E6FBD54D00264FF6FF7001236670324620826C
:2035F000294604F1A40010F083F80223324604F1C800294610F07CF80423324604F1EC007B
:20361000294610F075F84FF0040A04F1440810224046314684F802A00DF05FF804F154093D
:203630001022484631460DF058F804F11C073E6004F10A052E70E671267207206072CDF8F1
:203650000080DFF81883022210200346414606F0FDFA102003224146CDF80090034606F0E7
:20367000F5FA1020524641460097134606F0EEFA4FF0080B4FF0030905F12A000C9005F1DF
:2036900079000D9005F11E000E9005F15A000F902435109517E06078A28FE18FB4F84050B9
:2036B000B4F8423006280ED1ADF81A20ADF81C10ADF81E50C048ADF8203013F0CAFD012024
:2036D00006A90CF0F9FAA069BA4A31464FF0FF3314F018F9071CF6D002960DF122000DF193
:2036F0002E0102AA11F040FD002840F0CB81BDF822102078102940F0C1819DF82E10884236
:2037100040F0BC81029D29884FF6FF728A4200F0AA812B78A23B00F08D812E3B40F0AE81F9
:20373000A978B046002900F04981891E00F01881491E012940F2E880891E00F0A880491EFE
:203750007BD0491E5CD0083900F06481891E40F0678194F83A30A888052BADF80C0047D088
:2037700001208DF81600944813F073FD94F83A0001281ED004281CD003280DD002280BD02C
:203790000298C188ADF80E100189ADF810104189ADF81210818927E0A08FE58FADF80E002C
:2037B000B4F84030ADF81050B4F84210ADF812301AE0A08FE9888842D8BF081CADF80E0021
:2037D0002989E08F8842D8BF081CADF810006989B4F840008842D8BF081CADF81200A98932
:2037F000B4F84200884200DC0846ADF8140001E08DF81660AF49102003AA06F027FA0FE166
:20381000AD4813F026FD6B78002B40F00981E88860822889A0826889E082674813F0DCFAB5
:20383000002840F0FD80656A002D00F0F9802B68608AA18AE28A9847F2E0AA88B549102019
:2038500006F004FA0C98414606220CF046FF6682A682E682A8792073574813F0FAFC96482E
:2038700013F0F7FC4FF001084FF6FF702379208253B9A879082812BF84F801A005206070C8
:20389000404613F0D9FACBE084F80190C8E06B787BBB291D0C980A6802608988818006234A
:2038B000637068892082E8896082288AA082688AE082E878E07294F83A00012818BF022875
:2038D0000BD19A4910201F2206F0C0F94FF47A7180B24143384811F00FF868890090924931
:2038F000CDF804A0EA7810202D1D2B4606F0AEF999E06878312840F08A80E67084F801A006
:2039100091E0C046B00900206B78002B7FD1A878E3896178032815D0E078257933B9012869
:2039300014BF2671E67008E0496E0100054304D07F48194610F0E0FF61780729DED1062018
:20395000607070E0062907D0E578002D08BF84F8019068D00220F3E70720F1E7FB64010040
:203970006B78002B53D1EB78617893B902291DD007291BD0062902D12079012816D1032973
:2039900014D06B4813F028FA80B9012013F054FA0CE011F0E1FE0246A079624900900D98A3
:2039B00043460190102006F051F968706D78002D2DD135E007000080780A00206B7833BB76
:2039D0005C485749009002221020034606F03EF959484A46524900901020034606F036F93F
:2039F000ED1C0E9829680160A988012381802078637011F0B1FE024601230F9D6079494922
:203A100000901020019506F021F9C0B258B184F801B008E0AA8841491020052306F016F987
:203A3000B8F1010F2AD1256A45B32D6835B36078A84723E06879132820D12889012808D134
:203A5000607B022805D11C4813F003FC11F0BEFB14E036491020052206F0F8F881B216481A
:203A700010F04AFF0AE06888C00B07D3334852462B4900901346102006F0E8F8029808B1A5
:203A900013F094FB2579E078790830D355EA00032DD0204600788DB9E179257A8DF82410F5
:203AB000109A8DF8255013680DF126052B609288AA8005E0051601109C0A00208DF82490CF
:203AD000617A8DF82C10A17A8DF82D1011F044FE1149024609AB102006F0B8F838B1256A76
:203AF00084F801B01DB12D680DB15846A847B80803D3134930460CF0DFF8F808FFF4E3AD1D
:203B1000607B401E3FF4C7AD401E7FF4DCAD11F05DFBD8E51929010059440110C11701106B
:203B300031C30000094501104DBD0000F5840110540A0020F4090020040A0020CC090020D0
:203B5000EA0900202DE9F84F012011F057FA01280ED1DFF8F87439680020487138680FF00E
:203B7000F5FF04F069FC040003D1812013F09EFE68E201206071DFF8D854DFF8D804417825
:203B9000491C41703968A07981F8A00040200CF02DFC2060287901281CBF002012F0B0FDB3
:203BB000E8682168DFF8B05400F5B060C860286801680A79032A1CBF002012F0A1FD286840
:203BD000DFF898840168DFF898B401F10809062299F80000C0F3801084F82E0109F10201AF
:203BF00004F5947012F0ECFE042209F10E0104F1240012F0E5FED8F80000A67900F10C03B0
:203C1000042209F10E0103EB461012F0D9FED8F80000A37900EB4310032209F112011030AC
:203C300012F0CEFE04F12C0699F81500B070022209F1160104F1300012F0C2FE022209F17F
:203C5000180104F1320012F0BBFE022209F11A0104F1340012F0B4FE30896084022209F188
:203C70001C0104F1360012F0ABFEB078F18872894000B0704900B08840001201B080F180D0
:203C9000728189B2638C5B1C4800434392B2934200D231B99BF80000802109F055FC3B2103
:203CB000FEE004F12E01204612F0E6FA0520A081204612F0D1FC052209F11E0104F1610099
:203CD00012F07EFE99F823004009307013F0EAFD60823A68E34F518A401A04F597718881DA
:203CF00004F1610199F82300DFF87C9300F01F00F073204610F079F829680A6800201071D6
:203D10001C25A1793868694341F6210242520022A17969430144001D4A80A1796943425092
:203D300099F80200410609D5D049088841F20A4290420CBFCE48CF48C4F89C012046D4F83E
:203D50009C1188473968A37901F10E026B43D054A1793868694308440021C173C6480178B8
:203D700081B1B08870B9002171730120208160812046D4F89C1188473968A37901F10E028B
:203D90006B43D0543868A27900F10E016A43885C707394F8960108B912F0B2FCA1793868C4
:203DB000DFF8D8A26943084494F896114A1E02740023A17938686943084400214174A279D3
:203DD000396801F112006A4301F1140C8352A279D8F8000000EB42136A434CF80230A27931
:203DF0006A431144A64A8A61DAF814100B78DA074CBF4FF0100C4FF0000C99074CBF2021DF
:203E100000215A074CBF402200221B0700F10803A07941EA0C014CBF4FF0800E4FF0000EED
:203E30000A4340014EEA020242F00F021A54D8F80000A17900EB41100B224272D8F8001010
:203E5000A07901EB401104228A728E4A1378D8F80000A179012B00EB411002D10121C172FD
:203E700003E0DAF828104A78C272D8F80000A17900EB41101F220276D8F80010A07901EB8B
:203E9000401100224A76A07909F0F0FEA279D8F8001052018850A2795301C85820B9072129
:203EB000204612F005F9CDE07748016801EB021013F0F4FC744AA0791368D8F8001003EBA6
:203ED00000130A1D40011350081DA27952018058F063A07940010958716404219BF80000EE
:203EF00009F032FB644BB2881978901C11B10AB9F088801C618A94F806B041434FF4C8729F
:203F100005FB0BFBB1FBF2F1491CA061616140F6C41C23683A68CDF800B002F1080ED3F848
:203F30000CB00CFB00B0411A0098A1F5A8614EF8001002F10800A17969434058986002F1D2
:203F50000C01A07968430C32095C01F0EF011154A0793968684301F10C020C31125C02F095
:203F70007F020A54A0793968684301F10C020C31125C02F0F00242F002020A54A179386810
:203F900069430844417B01F0F00141F0010141733868A27900F108016A4388582168086160
:203FB0006369D8F80000A17996F802E05B0000F1140249010CFB0E3303F5F6635350A179C9
:203FD00000EB4110C27C02F0F00242F00402C274D8F80010A079DAF8303001EB4012F08824
:203FF0000CFB00F61868301AA0F51670D061A27901EB4210C17E01F0F00141F00401C176B7
:20401000A17938684D4321684019486099F80100810614D504F59771488F1B2804BF888FC5
:204030001B2808D1C88FB0F5A47F04BFB4F86E11B1F5A47F03D0142120460DF027FB134995
:2040500007200870BDE8F14F01F008BB104F0020B44D0020684E0020F44B002044290020B6
:204070006E4F002040290020C8280020504F002045240100092D0100784E0020848A010065
:204090005C4D0020734F00208C4E00206F4F00202DE9F843040014D1002012F031FB10E015
:2040B00020460EF005FC012808D065E08A0740F1548101F0FD0101700020B07120460EF0A9
:2040D000C3FA04F16605687D002855D0697CDFF8A494022904F1EC0704F59E7804F5B0764C
:2040F00004F5C67035D0042949D005295CD0062900F08A800729D3D0092900F0EC800B291E
:2041100000F0C1800C2900F008810D2900F0D0800E2900F0EA800F2900F02881102900F0AF
:204130004281112900F05C81122900F00E81142900F08781162900F05A81172900F0758186
:20415000FC2919D0FD2900F09581FE2900F09B81A2E7297C012909D199F80300002815D00F
:204170001621204611F0A4FF012006E020460DF0DCFE2874E88A28830020BDE8F283297C12
:20419000012940F0948199F80200002800F0E580FC21204610F03CFCA07904F1B80204F118
:2041B000B00113F077FB8CE7297C01290FD199F8020020B184F89410002038607860B87A61
:2041D000012868D10621204610F022FC79E704F1E7063078012809D1204610F0C5FA012887
:2041F000CAD10020B87201202874C5E770780028C2D004F1C70204F1A00104F1D70013F09C
:2042100045FB012030705CE7297C012940F0538199F8020000283ED0618CE18320460EF0F9
:2042300013FA0120287020460FF09DFD0120A871397A787C012900F010000FD148B10020A5
:2042500088F80500D8F8001098F8060049080DF021FBA079002113F015FB0EE040B1D8F8ED
:204270000020C54804F5A1735208214612F014FFA0790122002113F001FB0020387238734D
:20429000F872B8721DE7287C012805D1F97A012908BFFC2197D060E020460DF02BFA0128FA
:2042B000A3D10020F87284F894000120287408E7297C012940F0038199F80200002809D01D
:2042D000002184F894100120287020460FF04BFD0120A87188E0297C012940F0F48099F881
:2042F0000200D0B3618CE183E8E6287C012840F0EE80387C022804F1FD0204D1A1790020BE
:2043100013F0B8FADAE6032840F0EA80A1791A2013F0B0FA00203874D0E6287C012804F20D
:204330000D1140F0E8800B78012B04F5897240F0E8804878012807D1538800930020138892
:20435000CA78A17913F092FAB8E6297C012940F0E78099F802000028F6D1298B481E288317
:2043700080B200287FF408AF2221FAE6287C012840F0DA8098F80910012902D130780F28AA
:204390001BE098F80800012826D1002188F80810288D000900901A20AA8CEB8CA1795208F8
:2043B00013F060FA8AE6287C012840F0C18098F80910012910D1307810281CBF002012F051
:2043D0009FF9002088F80900288D00090090AA8CEB8CA1797078E2E7287F0028E2D1BCE7A1
:2043F000297C012940F0A88099F80300F5E7297C012940F0A580017B4A061DD4CA0709D586
:2044100001F0FE0101730023A179707800220AF07DF853E68A0740F1988001F0FD010173FC
:204430000023A17900221A20F1E7297C012940F09980027B510690D5017B01F0BF01017309
:204450003CE6297C012940F08F8001788A067FF52DAE01F0DF010A0701700AD501F0F701A9
:204470000170F08B0090738BB28B318BA07913F021FA21E6A97E204610F0CAFA15E700200E
:2044900012F03EF978E6A87E0F28F8D1FC21204610F0BEFAB8F812000090B8F81030B8F822
:2044B0000E20B8F80C10A07913F00CFA64E620460AF0C6FE5DE620460EF0CEFA59E620464E
:2044D0000FF054FE55E620460DF0DEFB51E620460CF0CCFE2874E88A2883012038744BE6EA
:2044F000288B401E288380B20028F8D1A179222013F0C0F938E70120887020460CF000FB20
:2045100037E6288B401E288380B20028E7D15088009022201388CA78A17913F0A7F923E752
:2045300020460EF07BFD24E620460AF03FF820E620460AF08BF81CE620460DF097FC18E60F
:204550001621204609F09CFD13E6288B401E288380B20028C3D1A17900230022222009F0DF
:20457000D5FF01E71721ECE7142120460BF0F6FCFFE500BF5C4D00209D0A01002DE9F84F6B
:20459000DFF82844A178FF2904BF002012F0B8F8A07812F057FB044604F1680604F5C975A2
:2045B0003168086804F1900710B10022E28310E0B17B002904BFB07E00280AD139780029FB
:2045D00004BF2878002804D1217F012904BF608CE0832189E08B4118491C6181204611F073
:2045F0006BFE01281EBFDFF8C8030178012904D120890022401CE2836081B07E01280CD181
:20461000B28B6189208913F029F930B121896289481C82422AD0B28B1FE0387801280CD10B
:204630007A886189208913F019F930B121896289481C82421AD07A880FE02878012815D198
:204650006A886189208913F009F900281FBF2189481C6289824209D06A88824206D0501E2A
:20467000608180B213F0F6F8401EE0832878012801BF69882089401C814207D16A792A71CD
:20469000002028701346A17909F040FF04F59A71087920B120890021401CE183608104F1F1
:2046B0002E07B07E012801BFB08B2189491C884238D1608104F18601204611F0DDFDB08CA7
:2046D0006189608400202077E083E0894118A181B08B218913F0BEF88046B988308C728C9F
:2046F00001FB0808F08C8A4204BF3989884202BFB18CFB88994207D000090090B38CA179E2
:204710005208002013F0AEF8B07F3870708CB880B08CF880F08C3881204611F09DFF02204D
:20473000B07601E0B7F80480E28BDFF88892501C00FB08F140F6C41808FB01F00090236850
:20475000D3F80CC06044DFF870C2D860DCF800E09A489EF800A003884FEA9A1ABAF1030FCC
:2047700013D199F80FC05FEACC7E48BF00230CD45B1C9BB2012B11BFB4F812C004F59A7CFB
:20479000BCF806C00CF2DC5C01E0B4F812C00CFB01FC4FF4C87EBCFBFEFCDFF824A20CF122
:2047B000010CC4F814C0038084F820204FF01C0BA379A1610BFB03F3DAF80010226801F12F
:2047D000080001F1080CC058D3681061A0790BFB00FE60691B1A4CF80E3001F10800A37944
:2047F0000BFB03F3C058906001F10C02A0790BFB00F00C31125C02F0F00242F002020A5473
:20481000DAF80000A279811C0BFB02F200208852287908B911F074FFDAF80000A27900F156
:20483000100128790BFB02F240088854A079DAF800100BFB00F008440021417428790428B8
:2048500014D1A079DAF800100BFB00F001F110022B7A125C103142EA83020A54A179DAF81F
:2048700000000BFB01F1084420214174DAF80000A27900F112010BFB02F200238B52514969
:20489000A2790968520101F11403D4F814C09B5801F1140E03EB4C034EF80230B27E022A68
:2048B0000AD1A279520101F114033E789B5808FB063301F11406B35099F80F20D30749D5EA
:2048D000A2790BFB02F200F1080300F108069B58A3F5A863B3500830A27923680BFB02F247
:2048F00082589A600098121A1A6101F11402A079400101F11403125802F5F6621A50287966
:20491000042807D1A079400101F11402125802F5B0621A5001F11400A27952018058C4F83C
:20493000340101F11C03284AB888166BA57908FB00F730686D01381AA0F516705851A3799E
:2049500001EB431021490D78012D0EBF0122916A4A7819E02879A37904280CBF4FF44B60A3
:204970004FF4E66001F114025B01D258101ABA8808FB02F2A2F516729042D2D30821204688
:2049900011F096FB01200FE0C272A179DAF800000F4A0BFB01F108442168486007201070D0
:2049B00020460FF0C2FC0020BDE8F28F684E0020784F00205C4D0020084F002068290020D0
:2049D0004029002044290020848A0100734F00206F4F00202DE9F04F09AFADF13C0D089056
:2049F0000A92388809911E46ADF81800101C08BF002000F08481002700F101094FF0FF3AEE
:204A10004FF0010BB8466CE1252940F063811078521C0A922D2818BFADF8068005D1584631
:204A3000551CADF8060010780A9530281CBF4246434605D10A9908785A465B46491C0A91A5
:204A50002A28CDF80080554616D1306804930A99CDF808A0C01C4B1C20F00300001D3060EB
:204A700050F8044C0A93002C0878009418D5ADF806B06442009413E044460AE0610001EB7B
:204A9000C40140180A99A0F1300408780094491C0A91302801DB3A28F0DBCDF808A0049308
:204AB0002E282BD10A9908782A2801F101010A9111D13068CDF80880C01C20F00300001DBD
:204AD000306050F8045C002D48BF454608782B46491C0A9111E0454643460AE0690001EB9A
:204AF000C50140180A99A0F1300508782B46491C0A91302801DB3A28F0DB02930AB1224615
:204B100004926C2804D04C2818BFADF8048005D10A990878ADF804B0491C0A910BA9CDF848
:204B30000C800FAB07916428059300F08B80692800F08880BDF818C0752872D078286ED095
:204B50006F286AD0702850D063283DD073281ED009980A990128A1F101010A9115D96B495D
:204B70000C68B5F1FF3F03D0A84288BF6D1C00D8099D029508A80AA932466B46A047C719D8
:204B90000A99039801F1010974E040462AE030680A99C01C20F00300001D306050F8040CB8
:204BB000BCF1000F01F10109014608B955A00146079112F06FF80390B5F1FF3F5BD0A8425C
:204BD000C4BF281C039056E03068C01C20F00300001D306010F8040C5D468DF82C000A99F2
:204BF0000395584601F1010945E0082035680490E81C20F00300001D306050F8041C08229F
:204C100010230FA80CF0B6F9401E0790402101700A99079801F1010929E0082302E01023A1
:204C300000E00A230A99306801F10109C01C20F00300001D306050F8041CAA42BCBF2A1C6F
:204C5000049210E00A99306801F10109C01C20F00300001D306050F8041CAA42BCBF2A1CD6
:204C700004926FF009030FA80CF084F90790059D281A0390009C241ABDF8065000945DB956
:204C900006E008A8202109AA10F046FF009C7F1C641E0094F5D503980546401E039075B919
:204CB000BDF80600E8B10098401E009019D408A8202109AA10F030FF00987F1CF4E707989D
:204CD000411C0791017809AA08A810F025FF03987F1CE1E708A809AA10F01EFF7F1C09F1BC
:204CF00001094A460A9812F8011C401C00290A907FF48AAE089808B14146017038460FB0E9
:204D1000BDE8F08F286E756C6C2900C0648A01002DE9FE43BF4C0F460646F80B80F050815D
:204D3000B80880F03D81E07ADFF8F492B90F80F0B680607A002840F096803809C0F0958002
:204D5000A07A20B10020A072052010F0D5F800254FF001086570284684F8078006F033F95F
:204D7000AD4904F174002A4612F053FA207901281AD16079C0B9DFF8A482D8F80000002811
:204D90004CD048460068006B804761694346401A000BA0611968E2698018B0EBC11F98BFD0
:204DB000E0613BD9E56101E084F80480DFF87482A8F115000068000A30D340F60900A08612
:204DD00094F8410000F0F00040F0010084F84100E58694F8400000F0F00084F84000A5634D
:204DF00012F011FA08F6FF7211686FF0020321F00201116004F13401C8F8FB3F8A4AC8F80D
:204E1000EB1F11688908FCD3C8F8FB3FD8F8FF1F41F00201C8F8FF1F12F078FD65610FF069
:204E3000E1FA82480560022010F066F8112008F0EBFB307C10B90E2008F0E6FBE571257260
:204E5000A07818B906F1380012F0F1F9784812F099F878490878F8B10D7004F1D00004219A
:204E700012F0EDF918E0380914D2B80BC0F0C98004F1240012F0D7F9061C08D0706830B1C1
:204E90007568F068B6F91C1000222023A84727F40057B6E00020607227F00807B1E020B11C
:204EB000042010F029F80020E072B168088840F602054FF0000885420AD0B0F5C15F07D0C1
:204ED0000A8B4FF61F60104040F43470088306E00A8A4FF61F60104040F4347008826069FD
:204EF000E0B1D9F85400016804208847B0B1D9F80000006B80476169814226BF401A401E02
:204F1000401A000BF060708AF168401840F6C411F06081422CBFB0F5FA7FF16094F84100DC
:204F300010F00F0F0BD1708CED1D854207D1B56930466FF4807142464FF00073A8473E492A
:204F500004F17400424612F064F9607958B10220ADF80000684610F0F5FD84F80580BDF8F2
:204F70000800A4F8700001206070E078401CE07004F1200084F8068012F055F9002808BFC2
:204F900047F0020702D0192012F041F97569414630464FF080630A46A84727F0005730E0C0
:204FB00004F12C05284612F03EF907F035FA284612F039F927F0020708B147F0020720E033
:204FD00012F021F9014604F1280012F02CF90646B569A80810D27EB125EA0500B06108467C
:204FF00012F094FC706850B12A46F068B6F91C1075680023A84702E0084612F087FC27F4D4
:20501000804727B104F1D000394612F018F9BDE8FE83C046F00C0020615F01003829002000
:205030008C01001015000440101004400000046019C60000342900202DBA0000BB482DE946
:20505000F84F0025BA4CB849056094F8E200002800F06581012800F02F81B64E02283CD0F9
:20507000032840F05C8151F8250CD4F8B8100029A0F5C060C4F8D400B8BF49420028B8BFCB
:205090004042814226DA4FF08057D7F8A4014568B4F8BC0030214FF47F4208230090304696
:2050B000A847D7F8A4014568B4F8C00004214FF4F802122300903046A847D7F8A401B4F8B8
:2050D000D070456820214FF440620A2330460097A847012584F8D8501CE151F8258C11F0C2
:2050F00063FF2F4600B901273946934F38680028FCD0B146012609F10409D9F82CA03E6093
:2051100009B111F057FFCAF30720C4F8BC0011F04BFFAA4600B9B2463B68002BFCD0D9F8BB
:2051300000B0BAF1000F3E6001D011F043FFCBF38440C4F8C00011F037FFAA4600B9B2466D
:205150003B68002BFCD0D9F81C90BAF1000F3E6001D011F02FFFC9F38120C4F8D000B8F53A
:20517000C061C4F8B81000F09C8094F8D80068B9C4F8D410D4F8C000C4F8C800D4F8BC7041
:20519000C4F8C470D4F8D030C4F8CC30D4F8D410D4F8BC30002954BF02206FF0010004F170
:2051B000C802176801EB41014018411000EB917107EBA1001060D4F8C810C4F8C430002952
:2051D0001CDD1E293CDDD4F8CC0030B93429B4BF15391E21C4F8C81025E02A29BABFD4F857
:2051F000C8000B381E20C4F8C800D4F8C4003F28B4BF401C3F20C4F8C4001FE0D4F8CC0096
:20521000032812D011F10B0FC6BFD4F8C8000B30301CC4F8C800D4F8C4000028C4BF401E98
:20523000051CC4F8C450032508E011F1150FC6BFD4F8C8001530301CC4F8C800C4F8CC5031
:205250004FF08057D7F8A401B4F8C43030214FF47F424568374800930823A847D7F8A40172
:2052700004214FF400321123456832480096A847B4F8C860D7F8A40104214FF4F8021223C5
:2052900045682C480096A847D7F8A40120214FF440620A23B4F8CC60456826480096A84719
:2052B00001E084F8D85040F2FF50404502D8801C40452FD2082030E051F8251C1F4F4BF2EA
:2052D000F5204843060A3868C0F3814001280CD11B480068006880470FF066F811F070FE2E
:2052F0003111C010484306EBE03694F8E50030B91448006820F07F408019460801E084F8C9
:20531000E5501148310C0660012741600F4D8760287808B90B2000E0052084F8E40004F05B
:2053300027FEBDE8F88FC0462D400C402C500C40E016002000A00C4000800C40B43F005074
:20535000EC010010102009403C600C405A8901002DE9F04F0D46E80789B00BD511F04CFD01
:2053700028B100218160AE48006800B1804785F0010052E1A80710D50020069000210490C4
:2053900000230290009005910393019101223C2012F05CFA85F002003FE11E246807DFF804
:2053B0008482A14F40F19B800020079082469F498878FF2804BF002011F0A2F9386890F866
:2053D000A00011F03FFC06463868C07A96F82EB1022818BF032806F5947906D108F10D003D
:2053F00012F030FA08B908F1070A4946584612F025FA88B33868807A002818BF012804D186
:205410004146484610F0EFF804E04A46594640460CF0DAFAFF283DD06043834608EB0B0475
:2054300006224946E01D11F0CBFA18F80B0040F0020BE01D079006223868817E01F001013C
:2054500086F82E1104F10109386800F1140106F5947011F0B5FA1DE04946584611F074FB91
:20547000C0B14A46594640460CF0AEFAFF2811D04443444404F10D0012F0E4F940B904F16C
:205490000D0012F0DFF9002804BF607F012801D14BF0020B06F12C005B460178069141896A
:2054B00009090591728C079904920122C088029140080390CDF804A0CDF800900020B1791F
:2054D00012F0C4F9D6F89C0159498842B0790CBF002101210AF0E0FA85F004009DE02806F7
:2054F00010D5002006900021049000230290009005910393019101223B2012F0A7F985F0B4
:2055100080008AE0E8043CD508F1070108F10D0012F090F938684179012923D1017A0129E5
:2055300018BF04291ED1C17A022918BF032919D1817E00F1140240460CF046FAFF2811D045
:205550004443444404F10D0012F07CF950B9E11D04F10D0012F06EF938680622E11D143037
:2055700011F02EFA334934484A6800784FF480510EF052FB10B18E2012F058F985F4805066
:205590004BE0A80505D511F00FFD2C4901200860FEE7690504D506F04CFB85F480603CE060
:2055B000680405D5812012F041F985F4804034E0A80431D5224C206810B1002011F0A0F849
:2055D0004FF0FF3020600CF021FC1E4C216851F8202F684690471C48C16A026B246800918B
:2055F00001920021029100F134014A6809781368806A03938DF81010ADF812006B46D4F827
:205610000080124A12491348C0471349086004F07FF985F4005000E0002009B0BDE8F08F0B
:20563000204F0020581E0020104F0020684E002045240100784E00206E4F0020FC00204354
:20565000044F0020F04E0020781A00204C280020B41C002088490020EC4E00202DE9F04F93
:20567000B64D686885B0019020B905B0BDE8F04F12F0D8B80178DFF8C882B24EDFF8C892B2
:20569000DFF8C8A201291CBF0229042946F2A81741F64C5B05D0402918BF802900F09A80BF
:2056B00043E111F0ABFC0028FAD00198007805F04FFE0090446814B9002011F021F89AF8F4
:2056D0000100002860D002F0C3F911F0BBFA02900168009801914F680BF0FEFD022827D00A
:2056F00000990A78012ADBD1994B19680A7A19F80230337018B912F091F85844A060206958
:20571000C17E01F0EF01C1762069C17E41F08001C1762069C17E01F0F00141F00201C1765C
:205730008C48B96841182069C16101210098A0E001980178802913D1082287483270017873
:20575000012903D09AF80100012803DD78690121C17213E0D8F828107A690878D0720DE0DD
:205770007D49072030700A787869012A02D10123C37203E0D8F828104A78C272029881795D
:2057900001988AF80210CBE00098002888D00199009A0078914205D101281CBF002010F090
:2057B000AFFF15E0012840F0C080694801680A7A19F80200307012F031F83918A06812F0C6
:2057D00029F818B912F02AF85844A0600120A8700098A5E09AF8010000287DD002F038F986
:2057F00011F030FA04462068029047689AF8020011F028FA039011F007FC10F0070F3DD0EA
:20581000A87805F0A5FD019041680198009102990BF062FD022831D001990A78012A2AD1FB
:205830004B4B19680A7A19F80230337028B911F0F5FF83440098C0F808B000990869C17EE9
:2058500001F0EF01C17600980069C17E41F08001C17600980069C17E01F0F00141F00201A1
:20587000C176009AB9683B4841181069C16101210198A97054E0002010F042FF0398A042C9
:2058900028D002980178802913D10822324832700178012903D09AF80100012803DD786927
:2058B0000121C17213E0D8F828107A690878D0720DE02949072030700A787869012A02D15C
:2058D0000123C37203E0D8F828104A78C272A0798AF80200029823E011F096FB10F0070F9C
:2058F00029D0A87805F034FD04462078D4F80480012820D116490A68107A19F800103170F0
:2059100011F08CFF3918D8F8080011F083FF20B911F084FF5844C8F808000120A8702046DF
:2059300005B0BDE8F04F07F045BB05B0BDE8F04F002010F0E5BE05B0BDE8F08F0C2900203D
:20595000848A01006F4F0020289A0110684E0020104F0020F0D8FFFF734F00202DE9FE4F17
:205970000F46994C0168E16241688068A0609748616080479648E16A01606168DFF870B2ED
:205990004160A168DFF8648281609249002FA246C16069D03D68E8788DF8080028798DF8AB
:2059B000090002A811F032FFA86808B18A490160E86808B189490160894C287820706878D4
:2059D0006070A878BE68A0703178E1707368636072696261B168A160F168E160316921618B
:2059F0002E697B68A6621868A0616869E062A8692063287F84F834002A6AA263786886682F
:205A10001EB9002010F07CFE00E026627868C06818B9002010F074FE00E060627868406808
:205A300018B9002010F06CFE00E0E0612869A062F86881680E6806B96B4E6A494FF0010914
:205A50004E60C66881F801902EB9002010F058FEF868454601E045462E6000685C46FE689E
:205A7000A0617068E06106E0002010F049FE4FF001095C46454628685E494668621C04F1E1
:205A900014035020B04710B1286880688047DAF804008047594F0026834669467E70564809
:205AB0003E700422206130460FF0A8FB0098B0F5801F0CD020B90FF06DFF05F095FE08E0FD
:205AD0000EF0B4FB11F0F0F80420788001E00FF061FF4B4FB0462868C7F808808069A6606E
:205AF000804778604748468080F80090142011F0ABF9FF211422A06211F0B1FBE01CFF21A0
:205B1000022211F0ACFB142011F09EF93E49086008681422314611F0A2FB3046FAF74AFF83
:205B300048460FF09FFA39480188FF2906D1022101807822001D314611F091FB032011F0A3
:205B500061FE042011F05AFE052011F053FE062011F04CFE07200CF05BFB2D4E08203070B5
:205B700006F1400011F03EFE0CF04AFE363605200A21324610F0B9FC38B14046C0F109014A
:205B9000401C06F8011B0A28F8DB2F68214909200DF10A0201AB7D68087010204146A84797
:205BB000A06AE2690A270A309DF80A1000F8011BDAF808107F1EF7D1921E5846E2618847A3
:205BD00003F0B4F8BDE8FE8FF417002041490010F84400202C79010071580100E168010009
:205BF000781A00206C1D0020DBE80000201E0020B01B0020A95F0100A16901001C1E0020C0
:205C100000290020AC0900205C2900202019002030130020752900202DE9F04F0546A64CA5
:205C3000A878216AADF11C0D801F00F03E81C01E00F02981401E78D0401E56D0C01E4AD0FA
:205C5000401E40F03581207A617A00283FD1607800283BD0A88811F0C1FD071C00F028818D
:205C7000A87A40080AD3787940B1E968890A05D2B91D01AA08F056FB0A2825D0207B02287A
:205C900002D1A87A00091FD36078AE887979C0B1607CB0B90120607405F10802304603F0F0
:205CB0000BFF002840F00481206A002800F000814368002B00F0FC80002130460A469847C2
:205CD000F6E00521304603E0032100E00521A88811F080FDECE0002900F0EA804B68002B5A
:205CF00000F0E6806A780221CBE011F08DF8002800F0DE80276A0FB1386868B928690028C7
:205D10000CBFE0690120698911F060FD002800F0CF8068890121DBE7286900903C686989FB
:205D30002A7B6B7BE81CA047C2E068784FF00008002840F09580A8794008C0F09180606AB3
:205D5000002840F08D8001A841460E2211F087FAA88811F043FD061C00F0AA806869002846
:205D700059D081464146062209F1110010F04FFDC24620B34846062210F049FDD8B999F824
:205D9000100009F1110B474605907F1C5846FFB28BF800700FF014FE0A280BDA474B059A75
:205DB0000101A1EB400158188079824202D1002FEBD100E01FB947464FF0010A6F61BAF10F
:205DD000000F09D109F1110101A8062210F0F8FD99F810008DF80A00BAF1010F1BD06F694A
:205DF000CFB1387C07F1110106228DF80A0001A810F0E6FD06F10C00B11D062210F0E0FD3C
:205E1000B01D07F11101062210F0DAFD387C40F00200707107E07079B11D06228DF80A0080
:205E300001A810F0CDFDA9799DF81120C1F3800010438DF81100080905D39DF8110040F01B
:205E500008008DF8110001A8294602F0DDFB28B92078022107F078FB40462AE04FF01508C0
:205E700011F002F9206A18B343680BB3A8886A7801219847B8F1000F1AD0206A032142466D
:205E90004368A8881BE7E878291D002208F04AFA0A280DDA410001EB800005F10C022530F2
:205EB0000421C0B206F03CFA02E0A8880CF02CFD012007B0BDE8F08F301300202214002023
:205ED0007CB5A34D144602460026A2F58062192A1BD8DFE812F031012A01220119011101A5
:205EF0000C010401FD00F300E700DF00D700C500B9001A001A00970081007A0065005C00EE
:205F1000520047003A0030002500282880F29A80022940F09780218811F054FC064614E1C0
:205F3000012940F011812178284601750121C17410F092FE09E1012940F00681002C00F01A
:205F5000038128461230024614E0102940F0FC80002C00F0F98028465C301022214610F0B4
:205F70002FFDF2E0012940F0EF80002C00F0EC802A46921D21781046E4E0262940F0E4800D
:205F9000002C00F0E180284626226C30E6E7012940F0DA80002C00F0D7802846401D9CE0E7
:205FB000602900D144B9012940F0CE80002C00F0CB8028460D3090E005F1920021466022DF
:205FD00010F0FEFC01206873BFE0012940F0BC80207811F0F3FBB8E0012940F0B58021783F
:205FF000022900F3B180284600F10C0211702178022918BF301C02D11021C172012011F014
:20601000D9FBA2E0072940F09F80611C6846062210F0A0FB20786946324608F083F9044630
:206030000A2C0FDA11F0C2FB38B9204605F024FA0FF08CFE0CF0E4FB87E0284601212C3052
:20605000015582E0022680E001297DD12A462178907B0028917378D12078012875D1E9E718
:206070002846027B01296FD1022A04D02178072901DB102904DD022A66D12178102963D193
:20609000C17262E001295FD121780A295CDA2846093057E0012957D12178022954DA28468F
:2060B00008304FE000294FD111F080FB10B910F061FDBDE7284601210F3043E0042943D1A6
:2060D0002168244888423FD328461C3001603CE0012939D12B4603F10A00217832E0012930
:2060F00032D1217802292FDA2846C01D2AE010292AD128464C3030E7012925D12178022952
:2061100022DA2846001D1DE001291DD1217804291ADC2846C01C02462DE7012914D12178C9
:20613000022911DA2846821C25E702290CD1218828461630018008E0012905D1217802298F
:2061500002DC0548017000E0182630467CBDC046301300203F420F00311300202DE9FC4116
:20617000A0F2013714468846022F40F232819B4E9C493F1F0F2F04D9143F4CD0BF1E1CD088
:2061900011E0DFE817F0CF00C9000D01FA00C100B9002601AF00A700100010009D008F004D
:2061B0007F0074006600282880F21381B8F1020F40F00F818849238807E1B8F1010F40F059
:2061D0000881F078012800F00481324620781179107189B9002800F0FC805078012800F04E
:2061F000B580042800F0B280062800F0AF80052800F0AC80BDE8FC812078002840F0E980FB
:206210005078032800F0AF80072800F0AC80052840F0DF80A7E0B8F1010F40F0DA802078F3
:20623000012840F0D68006F1EC0010F0D5FD002840F0CF803446002004F13A0109F03CFD47
:20625000002840F0C68004F1C80011F002F8BDE8FC81B8F1020F40F0BC8020880A28C0F204
:20627000B880B0F5486F00F3B4808E1C17E0B8F1020F40F0AE802088B0F5FA7F80F2A98039
:206290000E460CE0B8F1020F40F0A38020880628C0F29F80B0F5486F00F39B803E3630806C
:2062B000BDE8FC81B8F1020F40F0938020880628C0F28F80B0F5486F00F38B803C36EEE777
:2062D000B8F1010F40F085802078062880F28180454E0EE0B8F1010F7BD12078042878DAEB
:2062F0000A3606E0B8F1010F73D12078082870DA09363070BDE8FC81B8F1010F69D12078CD
:20631000042866DA0836F4E7B8F1010F61D1207804285EDCF61DECE7B8F1020F59D120888D
:206330000E36BCE7B8F1010F53D13079012850D032462078D178D07069B9002849D05078D3
:20635000012803D0042818BF052842D1012010F073FDBDE8FC81207800283AD1507802287E
:2063700018BF052835D110780FF0F6F91C490246102003F06BFCBDE8FC8106F18305002194
:206390001F2228460AF0A9F921464246284608F039FB44463078B4710FF0DEF9002311E0D8
:2063B00006F1640500211F2228460AF096F921464246284608F026FB4446307874710FF088
:2063D000CBF901230094094901950246102003F03DFCBDE8FC81C046BD840110B009002052
:2063F00099450110F0090020EA090020094501102DE9F04F9E4C20780E46F10BADF11C0D25
:20641000C9036ED1B0085ED2606AA16A720807D2F00828BF86F0040680F02581002023E1B8
:20643000858861B904F11800924A00904FF6FF710223012011F0B6F90146A16221B304A837
:2064500000900027019702230293FF220392228B28460DF1120301F0F3F958B99DF81300A9
:206470009DF81220A16A12EB002204D0498928460DF016FCA16A228B08463B464FF6FF71BC
:2064900011F08CF90146A162206A00291CBF012186F001061FD168B14368616A5BB1888854
:2064B000002201219847206A676A4368B888032100229847616A888810F0D8FB10F004F993
:2064D00086F00106CFE00020014602F09DF830B1012186F00206207807F036F8C3E002218E
:2064F000F7E708F0CFFD5FEA000800F0BA80054628784FF0010AB03812D0401E03D01F38E8
:2065100000F0A580A7E02879002840F0A480B8F80200B8F80610B8F808200DF0C1FB9DE02C
:206530002879401E41D0083803D0743800F0828087E068781A2879D06888814610F08EFD76
:20655000801E18D0401E7CD1288901280AD16889032807D1E9688A78484604210CF0AEFDA4
:20657000024600E01822206A00286AD04368002B67D0042116E0298968885246012981466A
:2065900009D16989032906D1E9688F781FB910210CF094FD0246206A002852D04368002B3C
:2065B0004FD00521484698474BE02B7A688805F10807082B814639D110F050FD801E12D083
:2065D000401E33D1287B0A2818BF122205D16889042100220CF072FD0246206A30B3436890
:2065F00023B3042120E07888102100220CF066FD237D834693B1484611F0F0F870B11E4932
:206610000B784BB94179831D524601F001010846194610F0D5F801E05046E074206A28B156
:2066300043681BB105215A4678889847688810F01DFB06E06A8810F011FD014610460CF0A7
:206650009BFE297905F1080011F058F903E04046FFF7E2FA8246BAF1000F02D028460FF0A3
:206670007BFE86F40046B0B207B0BDE8F08FC046301300202C8601005A4F00202DE9FC415C
:20669000884C894A2678894F894D8A490D2E30464FF4A0534CD8DFE816F003010E000E002C
:2066B0000E000E00FB00FB006800FB00A700A700D800D800DF008049176041F204464C88E7
:2066D0007E4FB4421CBFB1F81AE0B6450BD0B1F83280B0451CBF41F20A46B44203D0B64521
:2066F00018BFB04502D12E80176076E0022C744E2C8035D94FF48067E41B1AD0241F012C43
:206710001DD94FF47F77E41B1BD04FF44067E41B0FD0A41E012C0CD9241F0AD0641E012CE8
:206730000DD940F2F937E41B012C19D9241F08D0AEE0022814BF2B80624E16604DE0624E8F
:20675000FBE762480468257A012D05D141F20240488048834886F0E74B804B834B86ECE7A4
:2067700000200FF0CDFF832096E059488178FF291ED01C2041435748176040F2044600689B
:20679000841C645A2C80A41B012C534D10D94FF47F76A41B15D00A3C012C14D940F6F636CC
