:2000000000400020D134010001C9011001C9011001C9011001C9011001C9011001C9011058
:1C00200001C9011001C9011001C9011001C9011001C9011001C901103FC9011089
:20003C0080B54FF4FC720FF278011A480EF030FB012119484174002202210270C17601BDD5
:20005C002DE9F0410FF2502214493820136854689568D6681769D2F814C0D2F818E0D2F8F9
:20007C001C800B604C608D60CE600F61C1F814C0C1F818E0C1F81C8020322031401EE5D1DC
:20009C0050689368D46812680A6048608B60CC60BDE8F081480400215903002100C00021D1
:2000BC00410500217D0500212D06002170B51D46004C204787B2000010B5014800470000FD
:2000DC00D509000070B5614C6148254650358047022809D14034E1885E4A914204D1E97C5E
:2000FC00890601D4911DE18070BD70B557495A4A084650300378002B10D08379012B0DD181
:20011C00037C5B09DB0709D0097D544DC1746C7F20202043687790476C7770BDFF21C17420
:20013C00904770BD10B54E48484C804702280ED121464031CA88474B9A4208D1CA7C5209CE
:20015C00D20704D0227D920601D49A1DCA8010BD70B53E4843494030C07C4009C00707D032
:20017C003E4D41482C8B2043288388472C8370BD884770BD10B53B48344CAC388047214609
:20019C0053310A789309DB0705D04034A2730A7803231A430A7010BD2C4940310871182876
:2001BC0012D004DC0A280BD00B2804D10AE025280CD02A280CD02D4980004018C0687047DE
:2001DC002B4870472B4870472B4870472B4870472B48704770B504461C484E252D5CAE09AB
:2001FC00F60716D0067D3007000F052803D00120054202D00DE00220FAE7E80905D07006D1
:20021C0003D54868800F012803D05B085B0052085200062B03D01020022B11D011E0FB20F7
:20023C00024002232046FFF741FF002807DAC100611A2039497E1422114200D1002070BD93
:20025C00024303432046FFF731FF70BD4401002137CB000004140000EBC80000A800002142
:20027C00F5B4000053AD00002020000080DF00001D050021F9040021CD040021930400210F
:20029C006D04002110B5034CFFF716FF20680028FAD110BD0011044068610000F825F965B0
:2002BC00F9754500450045002600260057A3520052004C00401F401F401F3F000000000053
:2002DC00304000400140034007400F404F40CF40CF41CF43CF47CF4FCF3FCF2FCF1FCF0F6C
:2002FC00000000000000000000000F00080000003F00000040003F000000040068000E0093
:20031C00DC00060043001A00050000000000020000000000000000000400C00000000400B3
:20033C00C000000007000000000000000000000000000000000000003040004001400340A6
:20035C0007400F404F40CF40CF7FCF6FCF5FCF4FCF3FCF2FCF1FCF0F00000000000000009D
:20037C0050C00091007070C00091007082312100319110B10070018101B100A1823132910D
:20039C0010B101911110418141227740F106007051C0019130181039833108D01831416FD1
:2003BC003100319110B18314141683680070251050C00091F4C340C12014036F3110410497
:2003DC005082F0229840512622C082312100319110B163393110410482C08231210031919B
:2003FC0010B163393110A2C082312100319110B150101531051405920070676452C03110A6
:20041C0031066131C1026A6412C13110213971065131E1026A64007051C0019101CCE2C0CC
:20043C006A64676411C1C2C06A6450B054B0007140804022D6440022C94060B08180111EC9
:20045C00C944007054A064B0F0800022C9404012B09032B070C1DF6811C122C16A6470C1C0
:20047C00E46851C00191E2C0823160820200329110B130C2EE68538253395339B16460C347
:20049C00F4688012B09032B00070676401C122C16A6401C1C2C06A645382B164C012B09074
:2004BC0032B00070676472C281C06A6422C111C16A6402C011C16A6462C031C36A6462C3D2
:2004DC0011C16A6402C311C16A6453825339B164E2C36F6411221C4142C281C86A6452C24E
:2004FC0011C16A6472C2E1CE6A6402C281C86A6402C201C86A64B0C030690070676442C211
:20051C0001C86A6452C211C06A6472C2E1C06A6402C001C16A6462C001C36A6422C101C127
:20053C006A6462C301C16A6402C301C16A645382B16400708180111E5C4150B054B000712B
:20055C00408040225D4154A064B0F1800122514500700022514160B04E61000000000000AA
:20057C000000000000000000067305720B720E7250B00071818060B050A09280F0EFF1928C
:20059C0002936A6741228C458080F1C11004301601110114016CB561B661B761B861B9618D
:2005BC00BA61BB61BD61BF61C161C36126632D63F0C002043231412A121432160111211412
:2005DC00016CDA61C561E061C761CB61B561B561B561F461C561FA61C761CB61B561B56104
:2005FC00B561F461C561FA61C761CB61B561B561B561E761C561ED61C761CB61B561B56121
:20061C00B561CF61CF61CF61CF61CF61CF61C064CF61F964CF610665CF613265CF6174676A
:20063C00CF611166CF61C0644E65F964CF61066511663265CF618280E0DFF2926A67B0B044
:20065C00D661B1B00673057230B06C61D0CF6A6784C203C0C0C37C64207851788278E378B7
:20067C001579B6780062C0CF6A6784C203C0C0C37C64307861789278F3781579C678006250
:20069C00B0CF6A6784C203C0C0C37C6440787178A27803791579D678109221923292439281
:2006BC005492659256911FC0FF914039F00601101031101400927067CF61E3B054A0F08076
:2006DC0050221A4640800022BE461262E3A000C86091598150B0918041228E46A0CF6A6734
:2006FC0012828231823942398B641282F2062F101F312F141682D622334640C1346200C5AF
:20071C0020140D6F6D39DE10F4C34E0482C082312E006D39A2C082312D001A828A39FA0606
:20073C002082803180390BC00B18BC10AC18038239149B141082F0060110103110145181C2
:20075C0010140C14C622C94631D0C1266462021011C0013010C00118021882312100C126C2
:20077C00919103B013B063B053B041800122BE46B481C491D581B51C774E95186591F0803E
:20079C00102269428C623D9110B13E9110B1E08000228146E6228142E0B0951865910F926B
:2007BC005981F914F0805022114210228C464D6390CF6A6763B052A03082F2C0200402107E
:2007DC0011C0013010C00118021882312100C1269191919113B003B063B053B064B054B055
:2007FC00007141800122BE4663B064B0F08050221142B181C191D1819118619131B0A462D0
:20081C002967E0A059810582591480C0007163B0BA6A6962E3A0018262818231823D80EF61
:20083C00F19202936A6703A0007037824739873930828039F006021011C0013010C0011849
:20085C00021882312100C126819102B012B030824039F006021011C0013010C001180218E9
:20087C0082312100C126919103B013B063B053B0007153A062B052B041800122BE46A4816E
:20089C00C491D581B51CFE4E95186591F0801022F0428C62B481C491D4814518751C084FEB
:2008BC00F0801022F0428C623D9110B13E9110B1E08000221247E6221243E0B065910F92DC
:2008DC005981F914F0805022114210228C4630632967E0A0598105825914F0C0007162B038
:2008FC00226BF062A2808B64CF6112824239F2068B6050B00071CF6170CF6A674082418096
:20091C000122BE46A481C491D58195186591F18011228C46336B41800122BE46A481C491AB
:20093C00D581C51C1C4B95186591F08010223F438C6260CF6A67408241800122BE46B48169
:20095C00C491D58195186591F18011228C46506B41800122BE46B481C491D581C51CB44A55
:20097C0095186591F08010225C438C62E092D08200226B47C0B20070A080F022874330B033
:20099C0002C1623101C0A080001E8043F022814380F86031603981632010101A136F236E5A
:2009BC0011161216826B00702DE9F84FDFF81885DFF8181588F80000002008600921DFF891
:2009DC00100501700D2141804FF408718180DFF80405DFF8041501608A7EDFF80005027042
:2009FC00FF2ACB7E437008BFFF2B0D7F85704E7FC6708F7F0771C97F417115D1FF2D08BFE8
:200A1C00FF2E11D1FF2F08BFFF290DD1DFF8D0140A7802704A7842708A788270CA78C27025
:200A3C000A79027149794171DFF8B81402780A70FF2542784A7082788A70C278CA7002791E
:200A5C000A714079DFF8A02448710021DFF89C04057045708570C570057145711180DFF872
:200A7C009004DFF89014466BDFF88C247078087031781170B078DFF884140870716908791F
:200A9C00DFF87C14421E0A70F078DFF878140870B069DFF87414086008B915F0FFFAF069BE
:200ABC00DFF86844206008B915F0F8FA2068DFF8607401688847216851F8042F384690479A
:200ADC00DFF85004DFF850143862DFF850047862306A086008B915F0E1FA706ADFF840144D
:200AFC00086008B915F0DAFADFF838B4DFF838649BF8040015F058FE306008B900F045B971
:200B1C009BF80500DFF8247415F04EFE386008B9306837E19BF80600DFF8144415F044FE49
:200B3C00206020B9306815F047FE38682AE19BF80700DFF8009415F037FEC9F8000038B9C2
:200B5C00306815F039FE386815F036FE206819E1DFF8A4130A789BF80000DFF8DCA3921CA3
:200B7C00504380B215F020FECAF8080058B9306815F022FE386815F01FFE206815F01CFE70
:200B9C00D9F80000FEE0DC480078002800F00281BBF80210DFF8A4B3484380B215F004FE9C
:200BBC00CBF8040078B9306815F006FE386815F003FE206815F000FED9F8000015F0FCFD80
:200BDC00DAF80800DEE0CC48007815F0EDFDDC49086080B9306815F0EFFD386815F0ECFD09
:200BFC00D9F8000015F0E8FDDAF8080015F0E4FDDBF80400C6E0C04800781C21484315F094
:200C1C00D3FDD04A1060B0B9306815F0D5FD386815F0D2FD206815F0CFFDD9F8000015F0E3
:200C3C00CBFDDAF8080015F0C7FDDBF8040015F0C3FDC348A5E0B0480078400115F0B4FD9A
:200C5C00C1490860D8B9306815F0B6FD386815F0B3FD206815F0B0FDD9F8000015F0ACFD17
:200C7C00DAF8080015F0A8FDDBF8040015F0A4FDB348006815F0A0FDB249086882E09E489F
:200C9C000078000115F090FDB0490860F0B9306815F092FD386815F08FFD206815F08CFDB0
:200CBC00D9F8000015F088FDDAF8080015F084FDDBF8040015F080FDA148006815F07CFD35
:200CDC00A049086815F078FD9F485AE08A480078000115F069FD9E49086018BB306815F08F
:200CFC006BFD386815F068FD206815F065FDD9F8000015F061FDDAF8080015F05DFDDBF837
:200D1C00040015F059FD8E48006815F055FD8D49086815F051FD8C48006815F04DFD8B49CB
:200D3C0008682FE0744800783021484315F03CFD884A106070BB306815F03EFD386815F0E0
:200D5C003BFD206815F038FDD9F8000015F034FDDAF8080015F030FDDBF8040015F02CFD65
:200D7C007748006815F028FD7649086815F024FD7548006815F020FD7449086815F01CFD1F
:200D9C007348006815F018FD002015F087F94FF4804192E031680120087130680573316803
:200DBC004D73306885733168CD7330680574002031684D743268D072A0223168487103214F
:200DDC003068C28001720720316848720020326890722821306841820121C17600203168BE
:200DFC004877326882F85E00012031680877326882F85D00396808713868057339684D7369
:200E1C00386885733968CD7338680574002039684D743A68D072396848713A6890724FF47D
:200E3C00207039680022C88008818A7401213A68D17421680D732268557321688D732268FD
:200E5C00D57321680D740021226855742368D9720121226811710021236859712168C88065
:200E7C000881002088722168887405202268D0743948016888472A490A6805461068804713
:200E9C0027490A6852F8043F0020984718481D4BC16818780A88314902430A802846304985
:200EBC000A6890470C212F4800F05EF80F4800F05FF800F061F84FF4005198F80000BDE833
:200EDC00F44F0CF079B900BF6E4F0020044F0020604E0020084F0020B63F00502C4E002052
:200EFC00E81200503C4E00200C4F0020344E0020CC8301006D4F00207B4F00206B4F0020D5
:200F1C00724F00206C4F0020F04E0020F44E00207C4B0020C5670100F84E0020D567010082
:200F3C00FC4E00201C1D0020104F0020C0280020184F0020C428002084280020684E002016
:200F5C00004F0020B8280020BC280020884E00208C4E0020904E0020AC170020544F00206E
:200F7C00B0170020F84D0020DFF800F0E5710110DFF800F01D6E0110DFF800F04D710110E2
:200F9C00B0B5174C241D20680004070C23D01248006800688047114991F90720824205DDF8
:200FBC0010F1800FB8BF6FF07F00C8718D88BD4210D80A68D4F8D40F801A801C1F2888BF16
:200FDC001F207F1B4008C7404FF6FF70EF19B84238BF071C8F80B0BDEC010010A428002098
:040FFC003010094068
:20100000B41200001810000015AB0110FDB301106DC00110FDAE011099B5011000000000F7
:08102000000000002D0000009B
:20102800B01200003C100000B1C00110A9BF011067C0011069B80110000000000000000035
:041048003000000074
:20104C00B012000060100000BDC00110CDB30110D9BD01106DB3011000000000000000005B
:04106C00310000004F
:20107000000000003C1D002004000000000000000000000020000000E8C9011030000000D1
:2010900028100000441D00200400000000000000000000000C000000D8CA011018000000AC
:2010B0004C1000004C1D002004000000000000000000000024000000F0CA01101800000030
:2010D00000000000541D00200400000000000000000000001000000018CA01102C0000003C
:2010F00000100000641D0020040000000000000000000000200000006CCA011024000000A0
:20111000FFFFFFFF6C1D00200400000000000000000000002800000090CA0110240000005F
:20113000FFFFFFFF741D00200400000000000000000000001400000008CB011018000000DE
:20115000FFFFFFFF7C1D002004000000000000000000000058000000B4C9011034000000AC
:20117000FFFFFFFF841D00200400000000000000000000001000000020CB0110180000007A
:20119000FFFFFFFF8C1D00200400000000000000000000001C000000B4CA011024000000A7
:2011B000FFFFFFFF941D00200400000000000000000000003800000044CA011028000000CF
:2011D000FFFFFFFF9C1D00200400000000000000000000005400000078C901103C00000044
:0811F00001000000A0830100D2
:0411F80001000000F2
:0411FC0000000E00E1
:0412000000000F00DB
:0412040032000000B4
:0412080001000000E1
:04120C00081C00209A
:0412100000020000D8
:0412140000000000D6
:0412180001C90110F7
:04121C0000000000CE
:0412200000000000CA
:0412240008000000BE
:0412280000002200A0
:04122C00641A002020
:0412300000000000BA
:0412340000000000B6
:0412380008000000AA
:04123C00B01B0020C3
:0412400000000000AA
:0412440000000000A6
:04124800080000009A
:04124C00000000009E
:04125000000000009A
:041254000000000096
:041258000000000092
:04125C00010000008D
:04126000001B00204F
:041264000600000080
:041268000100000081
:04126C0050190020F5
:04127000000000007A
:041274000000000076
:041278000002000070
:04127C00000000006E
:02128000290043
:02128200010069
:02128400250043
:02128600300036
:02128800310033
:02128A002D0035
:02128C0001005F
:01128E00015E
:081290000300000024830100AB
:0812980000000000000000004E
:0412A0000000010049
:0412A4000000030043
:0412A80013C401105A
:0412AC00596501007F
:0412B000B812000070
:0412B400B81200006C
:0412B8000000000032
:0412BC00D41C00201E
:0412C000D1660100F2
:0412C4002000000006
:0412C8004882010057
:0412CC004C80010051
:0412D00029C101101F
:0412D400271B0100D3
:0412D800EB23010003
:0412DC00A1C7011095
:0412E000A3C701108F
:0412E4000000000006
:0412E8009B800100E6
:0412EC00547E01002B
:0412F0006C7E01000F
:0412F4003C7E01003B
:0212F8000200F2
:0212FA000900E9
:0212FC000100EF
:0212FE000000EE
:0113000001EB
:041304003966010045
:041308009546010005
:04130C00DD590100A6
:04131000E54A0100A9
:041314004B4B01003E
:04131800ED320100B1
:04131C0011080100B3
:04132000DB68010085
:04132400091E01009D
:0413280015C70110D4
:04132C0025C70110C0
:201330002DE9F843089C582B804617460CBFBDA5C1A5002908BFB8F1000F05D12068411E0A
:201350002160302707702AE04FEAE7793E460246083E13D0083E0DD0002908BFB2F1FF3FA2
:2013700004D94B463A4606F0F1FD0BE0B2FBF7F0002107E008071209090902E04807D208BD
:20139000C9081043226800FB1783561E0029EB5C26608046137008BFB8F1000FD6D1206899
:2013B00015F02EF9401EBDE8F8837CB51446002806460D460094B8BF404264230A22C11709
:2013D000FFF7AEFF702D0BD0502D09D00A2E09DA16F10A0F04DD2068411E21603023037042
:2013F000002E01D42B2100E02D212068421E226001702068411E216005707CBDF8B5174665
:201410000D46044615F0FCF8024629460020002903DD8A42A4BF0819401E27B11D686E1EAF
:201430001E602E272F708A4208DA8F1A302511461A68561E1E607F1E1570F9D100290CDDB5
:2014500084420FD8071B7F1C196810F801294C1E1C607F1E0A70F7D1F8BD1868411E19608D
:2014700030270770F8BD2DE9F04F04461546A868ADF16C0D0028199302D003D5062000E034
:201490000120A860884630210FF2043B8DF800109BE80C00471C204641460EF029FBA14637
:2014B00038BF88F00048002612E03020087059E09AE80C000AF0F4FC761E8846814611E0BA
:2014D0009AE80C00484609F001FC761C88468146C9A20CCA41460EF04EFB0FF2143AEFD3A3
:2014F00000201A909BE80C0048460EF001FB09D01A9CC3A20CCA48460EF0FAFA38BF012495
:20151000002CD5D1484611F0C5FE83460DF1010111F032F9841900EB0D01874201F101064A
:2015300019DD3F1A584613F0B8FD0B4602464146484607F06BFB9AE80C000AF0B1FC8846E8
:20155000814611F0A7FE83460BF130007F1E06F8010BE7D101E06F447E1C16F8010D352813
:201570000ADB314611F8010D401CC2B23A2A08709BDA6F468F4204D01A980DF10107307015
:2015900003E01A98641C06F8010C14F1030F09DBA868A04215DA022C04DB1A98641E2418C2
:2015B0001A9406E0002C05DC1A98C4F10104001B1A900124287B199A801EC1B21A98FFF715
:2015D000F4FE384615F01CF80026401E844219DC021B521C002803D4395C302901D004E006
:2015F000302116B92B681B0908D3DDF864C0DCF800305E1ECCF8006001261970521EA0F1DB
:201610000100E7D12868002200F00800304318BF0122199B21463846FFF7F0FE1BB0BDE8FD
:20163000F08FC0463031323334353637383941424344454600C046C0303132333435363711
:20165000383961626364656600C02DE9FE4F0D99441C9946924601900FF2341B00940C9FB4
:20167000029130210170194610469BE80C000EF03FFA38BF89F00049002512E030200870F2
:2016900054E098E80C000AF00BFC6D1E8946824610E098E80C00504609F018FB6D1C8946E1
:2016B000824655A20CCA49460EF065FA0FF24018EFD37F1C9BE80C0050460EF019FA0AD0D3
:2016D0004FA20CCA50460EF013FA4FF0000638BF0126002ED5D1504611F0DCFD0646214638
:2016F00011F04AF8041941190298EF19002F016017DD304613F0D1FC0B46024649465046F6
:2017100007F084FA98E80C000AF0CAFB8946824611F0C0FD064606F130007F1E04F8010B8C
:20173000E7D114F8010D352810DB214611F8010D401CC2B23A2A0870A0DA0198884205D1A2
:201750000299019A08680092401C0860002100982170BDE8FE8FF8B516460D46044614F057
:201770004FFF324629465118491E521E0FD4521C002903D48842C8BF665C00DC30261D68C9
:201790006F1E521E1F60A1F101012E70F0D1F8BD0000000000000000F0B51546AF681C469C
:2017B0000246ADF5FE7D002FADF1100D44BF0627AF60266802A800970B46019003A8FFF739
:2017D00044FFAA68029923460746FFF7C4FF20680122B04203D12868000938BF00220299DC
:2017F00038462346FFF70AFE7FB004B0F0BDC04600000000000024400000C0FFFFFFDF411D
:20181000000000000000F03F2DE9F0471646B4689A4688460746ADF1700D002C44BF062455
:20183000B4600FF2E42999E80C000EF0A4F94FF000050DD90FF2D82999E80C0038460EF019
:2018500057F905D9B4A20CCA0EF052F912D11FE099E880010EE099E80C00384609F036FACF
:201870006D1C07460FE099E80C000AF019FB6D1E88460746AAA20CCA414638460EF038F9FC
:201890000FF2A429EFD399E80C000EF074F9E2D9009402A80B463A46019003A8FFF7D5FEE1
:2018B00004460298022809D1401E0290204614F0A7FE6D1C0021201800F8011C317B284620
:2018D0005246FFF772FDB268029920465346FFF742FF204614F094FE02990122884203D1B8
:2018F0003068000938BF002220465346FFF786FD1CB0BDE8F0872DE9F04F074616460020A0
:20191000ADF17C0D1B9380A4009094E80C0038460EF031F988460FF200290CD97CA494E887
:201930000C0038460EF0E4F805D999E80C000EF0DFF802D109E094E88001414638466A4685
:2019500010F02CFA0098401E0090307BB5680024A0F14101B5F1FF3F1D9108BF0124A246A6
:2019700041280CBF744875481E9030208DF8080099E80C00414638460EF0BAF838BF88F06E
:20199000004899E80C0041460EF0B2F80CD0384601AA10F003FA019A41463846C2F10102DB
:2019B0000BF0B0F988460746384611F073FC83460DF1090110F0E0FE0446584613F06DFB68
:2019D0000B4602464146384607F020F90FF2601B04EB0D021C940746BAF1000F02F1090418
:2019F00051D16D1C15D09BE80C000AF059FA8846814611F04FFC1E99095C04F8011B13F053
:201A10004CFB0B4602464146484607F0FFF86D1EE9D11D9F641E002F14BF484B464B217891
:201A3000184614F086FDC01A082831DB254600271D986D1E002814BF404B3F4B29781846BA
:201A500014F077FDC01A401C1028B4BF195C3021102829701CDB2F70EAE79BE80C00384612
:201A70000AF01EFA0D46074611F014FC1E99095C04F8011B13F011FB0B46024629463846CA
:201A900007F0C4F8074699E80C000EF031F8E4D10025307B2570412814BF702150211B9A75
:201AB0000098FFF782FCB068B0F1FF3F05D10DF1090014F0A5FD401EB0601C991B9B0DF1B9
:201AD000090402462046FFF746FE3168B0682A4601F00801084318BF01221C991B9B2046D0
:201AF000FFF78CFC307B412814BF782158211B980268531E03601170016830274A1E026063
:201B10001FB00F70BDE8F08F000000000000F07F000000000000F0FF0000000000000000E5
:201B3000000000000000F03F000000000000244000000000000030403416000048160000EA
:201B50002DE9F04F05462B6816460C46ADF5FE7D1846ADF1600D14F053FD4FF0000A01462A
:201B70008B96184693945B1883428C9340F24A84CDF844A2CDF824A2514692918A91969126
:201B9000B84A959294924FF0FF360396899901910F468DF8107002970778252F08BF0A1C72
:201BB00010D0002F00F02E842968491C296000788B9913F083FF286807780AF1010A252F5B
:201BD000EFD1019A2868939C401C286011E042F010020AE042F0010207E042F0020204E0A2
:201BF00042F0080201E042F0040201922868401C286028680178B1F12000F4D0C01EEFD04D
:201C10000838EAD0801EE5D0C01EE0D02A291DD0969986A80A220EF06EFB28680178302947
:201C30000BDB86AA3A2908DA0146401C2860097802F8011B01783029F4DA9DF818722E6822
:201C5000B7B186A811F026F9029011E0E41C24F00304241D54F8040C002803D542F001024E
:201C700001924042029020462E689390761C2E6030782E2831D12868401C286000782A2830
:201C90001FD0969986A80A220EF035FB2868017830290BDB86AA3A2908DA0146401C2860A6
:201CB000097802F8011B01783029F4DA9DF818722E68002F08BF8A980DD086A811F0EAF822
:201CD00009E02E68E41C24F00304241D761C939454F8040C2E6003903078019F4C381FD028
:201CF0001C3811D0001F21D12E68761C2E6030786C2803D047F04007019717E02E6847F4EB
:201D10008077761C2E60F7E72E68761C2E603078682818BF47F02007EED147F4007701E049
:201D300047F0800701972E68761C2E602868401C286030786E288DF8100000F02E83732804
:201D500000F0E2820DF21520029E059020214FF4FF7206A80EF0CFFA6E44183605988D968C
:201D70008A9901700B468E930DF5057C8F938B4690939DF81070CDF814C03846642814DC0C
:201D9000642821D0253800F0B4821C3800F00D81001F022840F20981133815D0093800F0FB
:201DB0000481801E00F0EC8172E16538022840F2FC80001F08D0801F012805D9801F18BFB8
:201DD000B0F1030040F064810399002904D4019820F01000019002E0012003900146B7F1CE
:201DF000580007D0173807D0401E03D0083818BF0A2202D1102200E00822702F77D001987C
:201E1000D946D84600F4EC60203852D0203842D0C03829D0B0F580700DD0B7F1580066D0B8
:201E30000C385BD0401F59D0801F60D0801F5ED0C01E5CD065E0B7F158000AD00C384DD075
:201E5000401F4BD0801F04D0801F18BFB0F1030057D1E41C24F00304241D14F8048C4FF00C
:201E700000094DE0FFFF0F00B7F158000AD00C3808D0401F06D0801F04D0801F18BFB0F15A
:201E900003003ED1E41D24F007040834A4F1080090E8000334E0B7F1580028D00C381DD06F
:201EB000401F1BD0801F22D0801F20D0C01E28D11DE0B7F158000AD00C380FD0401F0DD09B
:201ED000801F04D0801F18BFB0F1030019D1E41C24F00304241D34F8043C0EE0E41C24F0B1
:201EF0000304241D54F8043C4FEAE37907E0E41C24F00304241D54F8043C4FF00009984674
:201F10009394CC1743464846194350EA040608BF002903D101990C09C0F04881642F18BF9A
:201F3000692F08D1002806DA01265B424FF000018F9661EB000005A90091014618463B463E
:201F5000FFF7EEF90399401C814227DA9DF81070782F03D0582F18BF702F11D101990809BF
:201F70000FD3702F08BF7827059807700598401E05903021017005989DF81070401E05905F
:201F900001996F2F40F012810809C0F00F8105984278302A00F00A813021ECE005993022AC
:201FB0000A700599491E0591CCE73846A0F16101192998BF20385E46B84208BF0126E41D5A
:201FD00024F0070408349394083C94E8030047F6F07347F6F07E03EA11439E4510D1949C2C
:201FF0000A4600231200134300221C4040EA02024FF0FF3303EA020208BF002A40F0A180A6
:202010005FEA0B0440F09D8073460FF2C42C03EA11439E450FD1959C0A4600231200134351
:2020300000221C4040EA02024FF0FF3303EA020208BF002A33D05FEA0B0430D19CE80C00A5
:202050000DF056FD3CBF81F000414FF0010BB7F141021FD0121F15D0521E0ED0521E07D0A3
:202070001A3A17D0121F0DD0521E06D0521E0FD101AA05ABFFF7F7F908E001AA05ABFFF7F7
:202090008BFB03E001AA05ABFFF7BEFB9DF8107001998BE001AA05ABFFF72DFC29E09CE89C
:2020B0000C000DF025FD26D3002E14BF4621662105988DF81412002EA0F10100059014BF8D
:2020D0004E216E2101700599002EA0F10100A1F10101059114BF4921692101700599491EBC
:2020F00005912B2700F8017C05984FF0030B401E0590019958E0002E14BF46216621059838
:202110008DF81412002EA0F10100059014BF4E216E2101700599002EA0F10100A1F101017B
:20213000059114BF4921692101700599491E05912D2700F8017C0199DDF814C04FF0040BCC
:202150002FE0002E14BF4E216E2160468DF81412401E002E059014BF412161210170059929
:20217000002EA0F10100A1F10101059114BF4E216E214FF0020B01700598401E059085E7DB
:20219000E41C24F003045E46241D14F8047C939407B901268DF814720199909621F00201B6
:2021B00001916046401E05909DF81070059A752F02F101002BD06F2F29D0782F27D0582FE1
:2021D00025D0702F23D05FEA0B0703D07F1E1ED101238F9301F002038F9F8E931FB98B08B8
:2021F00008D32B2100E02D211170059A0199401E521E05928E9E374309D1CA0807D3059991
:2022100020220A70059A0199401E521E059249080ED20599029AADEB010303F215239A4244
:2022300006DB8D9C06AA891A6418A4F5FE7400E006ACA446401E4FF4FF7110F8017F0CF891
:20225000017B1FB1491EF8D1DDF858C2909ACDF814C022B18A9960460170401C05900598A5
:202270008D9981420AD38846A8EB00022021401E521C0EF040F88A9888F80000019840095E
:202290002AD306A8A0422ED006A8221A302106A80EF031F89DF81000782810D058280ED010
:2022B00070280CD08E9F8F9E374302D10198C00819D320788DF818003027277013E00198F7
:2022D000000910D360788DF81900302767700AE0000000000000000006A8241A20212246DF
:2022F00006A80EF008F806A814F08AF9909A121804E047A00188012206AF39808B9906A8E2
:2023100013F0E1FB824478E0039BE41C24F00304241D54F8048C9394B8F1000F38D0029E53
:20233000002B06D4404614F06BF9984288BF181C02D8404614F064F90446B442A8BF061CBB
:20235000B244A6420ADD780808D2371B002F05DD8B99202013F0B2FB7F1EF9D1002C07DD60
:20237000274618F8010B8B9913F0A8FB7F1EF8D10198A64241DD40083FD3361B002E3CDD03
:2023900037468B99202013F099FB7F1EF9D134E096988B9913F092FB2FE007F4EC67B7F153
:2023B000200021D0E03814D0B0F5807008D0E41C24F00304241D54F8040CC0F800A01BE088
:2023D000E41C24F00304241D54F8040C80F800A012E0E41C24F00304241D54F8040C4FEA3A
:2023F000EA7B80E8000C07E0E41C24F00304241D54F8040CA0F800A0939428688C9981427E
:202410003FF6C1AB7FB0504618B0BDE8F08FC046250070472DE9F04F5F4C04F1080720460E
:20243000ADF1740D394610F023FA04F134050021284614F021FFE560584D4FF4FA72042330
:2024500004F18C00294610F095FEFA22202304F1B000294610F08EFE04F1400004F124019B
:202470000CF002FA4E49606114F060FA4D4A60694FF4E02112F0DCF94B4A60694FF0C05175
:2024900012F0D6F92822402304F1F800294610F071FE46490222002304F1D40010F06AFEDC
:2024B00014F063FB424D05F1CC06316841F48041316014F0DDFE4FF0010B2D1D85F806B08C
:2024D00014F053FB316841F48071316014F0D0FE85F800B014F049FB316841F01001316097
:2024F00014F0C6FE05F804BC14F03FFB316841F00801316014F0BCFE05F805BC14F035FBF5
:20251000316841F01001316014F0B2FEDF4E706805F804BC80478046DE49DD48C160DE49A8
:2025300001610EF017FAB16840468847DB484FF480694FF40076076104F1200141614FF441
:202550008073A0F80890DFF858A346810C22838151460DF13A000CF0A1F80DF13A000C21B4
:2025700014F025FB0CF034F910B9BCA010F0DEFD202000263F278DF85A000DF15A018DF875
:202590006C600DF156028DF85B70022011F082FE01281CD10EE0C04620050020256701003A
:2025B0006D6901000700068007000018115B010004200240232080278DF85A000DF15A0193
:2025D0000DF156028DF85B70022011F063FEAAA010F0ACFD12F086FFDFF8C88210201F22B5
:2025F0000623414607F0E4F8ADF81A605F468DF864604FF44873ADF820605020ADF81E30B5
:202610000DF16302ADF81C0059468DF863704FF47A7340F20530ADF8223003F011FD40F2CE
:20263000063002210DF11A0203F00AFD04F170024FF442701B2103F003FD04F15A0240F20F
:202650000730162103F0FCFC4FF4447019AA594603F0F6FC40F21130022107AA03F0F0FCAD
:2026700040F2123002210DF11E0203F0E9FC40F21330022108AA03F0E3FC4FF44570022186
:202690000DF1220203F0DCFC04F14C0032460E23D2490090102007F08BF84146102006221F
:2026B000A02307F085F8414610200722A02307F07FF8414610200822A02307F079F841462F
:2026D00010200922A02307F073F88DF865708DF86670059658468DF86800D24F8DF8676022
:2026F0004FF48162042305A839460090102007F05FF80DF165004A465B4600903946102070
:2027100007F056F80DF166000090394640F202425B46102007F04CF80DF16700394640F259
:2027300003425B460090102007F042F81AA8394640F206425B460090102007F039F8D44951
:2027500010204FF0FF3207F033F8D24910204FF0FF3207F02DF81027DFF83C83CF48D04AD2
:202770000097132341460190384607F021F838460090CC4FCC480D23414607F1080201904F
:20279000102007F015F8B1468DF8696059468DF86A900DF16902ADF8249030468DF86B90DA
:2027B00011F022FB584659460DF16A0211F01CFB022009AA014611F017FB032059460DF13D
:2027D0006B0211F011FB04F11C00CC49786004F12C02102006F0ECFF207812F08DFCCF4902
:2027F0000246102006F0E4FF207812F085FCCE490246102006F0DCFFCC49102006F0D8FFEB
:20281000CB491020042206F0D3FFCA4E77783078AFB904F11801316212F06EFC06F1540700
:20283000CDF80090024606F14400019006F11C030297CE490393B378102006F0B9FF514623
:202850000DF1260012220C310BF028FF0DF12600122114F0ACF9DFF8288373E0204C4953D4
:20287000334448206661696C656420746F20696E69742121210D0A00204C495333444820CC
:20289000697320476F6F64210D0A00C0A8170020200F00207566010065170100F01B0020F9
:2028B000E4800100BD840110401E0027E823C6B28DF86F701CA98DF870300DF14E02E67057
:2028D000072011F0E7FC9DF84F109DF850709DF851209DF85330082088403918082788B2CC
:2028F00007FA02F19DF852707A18082707FA03F19DF8547000F0FF00802892B207EB01039D
:2029100099B2B4BF40F0800000F07F0002F0FF02802AB4BF42F0800202F07F0201F0FF01A2
:202930008029B4BF41F0800101F07F01730028F8030043449A82198513F038FB9D4828210D
:2029500011F0FCFCA0689A4A00214FF0FF3314F08BFC071CF6D0002004900DF1620104AAB9
:2029700006A812F0D1F8002840F08D80BDF818102078D94610297FD19DF8621088427BD12F
:20299000049E31884FF6FF728A424DD03378913B1ED01F3B70D17178162913D112F0ACFB78
:2029B0000346802000900498B5494288102006F0FFFE38B9584612F0CBFB04984FF00009CC
:2029D000206159E0317906F1080014F049FC53E070780E3804D0801E1FD04DE069F90000EA
:2029F000B08842F20301814246D1B1680E78002E42D1491C0DF146000A68496802600DF171
:202A1000460641603078BE490DF1460200F0FD003070102006F0CCFE2EE00820002107F0F9
:202A3000E7F929E0B55D00007088000A24D3266916B3607806F10803401C6070AF490093A9
:202A500072883379102006F0B3FE5FFA80FABAF1160F11D02078BAF1040F0DD0266912F0A1
:202A70004BFB03460020864900907288102006F09FFE504612F06CFB049820B1B9F1000F56
:202A900001D014F045F8F80FC0F0A2809AE0C04605590100915C0100215001000083010078
:202AB000F8110020D01600200C830100E068064614F0D2FB864208BF002602D0866811F06C
:202AD00069FE301C7ED03088401E75D0401E0BD00E3874D1E07818B912F004FD0A20E07020
:202AF000002005F8040C6AE0B07828B3401E49D0401E05D0401E3BD061E0C046A55E0100EE
:202B100002200DF16D0112F0C1F89DF86D0038B1401E07D10AF0D0FC04E0C04651880110A1
:202B300012F0E0FC57A033E031810110C1F10000E9620100A809002000200DF16D0112F07D
:202B5000A5F89DF86D00401E0CD0401E18BF85F800B009D10A20A0706C4885F800B014F031
:202B700028F801E0002028704BA011E03337010003200DF16D0112F089F84BA008E0C0465A
:202B9000EA19002058460DF16D0112F07FF84BA010F0CCFA9DF86D00594630308DF86D00DB
:202BB0000DF16D0014F003F83AA010F0BFFA06E0640000C018060020B07807F0AFFC304680
:202BD00011F0E8FDE06814F043FB00283FF46EAFF8080FD34C4813F0ECFF4A48006800217E
:202BF000C0F3803000B959460020A9710DF16E0112F04CF8B8090AD3A07827F0200730B148
:202C1000401EA070414813F0D4FF13F0CFF9F809FFF498AEE07800287FF446AE98F81470D7
:202C300098F8000098F828308DF85F704FF0000C8DF85E0009268DF86030022707EB080E15
:202C500003220DF15D0313F8010F3EF8141B8842B4BF081A401AC0B28445BCBF844619709F
:202C7000521EF0D1761E07F10207E7D1BCF10A0FD4BF18A01CA010F059FA0AF01DFC61E64C
:202C9000BF660100416C61726D205374617465203D2000C00D0A00C04C454420537461744B
:202CB00065203D2000C046C0416C61726D204D657373616765203D2000C046C0416C6172C7
:202CD0006D2053656E7369746976697479203D2000C046C04E6F697379204D6F76656D65CE
:202CF0006E74210D0A00C046446576696365204D6F7665642121210D0A00C046DDFE0010CE
:202D100095B4001080200240AC050020D00500202DE9F04F0C4685B0834614F8010BDFF80E
:202D300070278DF8000018280BF1FD010BF1E7080BF166090BF20D1A0BF5B0760BF59C757C
:202D50000BF5C67700F29183DFE810F019006F005F0191008F038F03FA0069031101230120
:202D7000FE000D0133018F038F037C018F03610155017503D602D60227028F03740214F8B3
:202D9000010B8BF88600022221460BF1880014F05BFA014602220BF18A0014F055FA01461B
:202DB00002220BF18C0014F04FFA014602220BF18E0014F049FA04469BF8860040008BF8A8
:202DD00086000BF1860102224888400048800BF186008188490081800BF1860108890001F4
:202DF000088121460BF1840014F02EFAB9F81E10BBF80800091A89B247F6FF7291422ADAAA
:202E10000BF18601C8888A88401C520050430A89904203D33B208AF80B0039E2012089F89C
:202E30001C000020ABF81E001EE0052221460BF1610014F009FA014602220BF1920014F098
:202E500003FA0BF1860047F6FF728189BBF80800091A89B2914280F218820BF1860001218F
:202E700081720021ABF81E10012028700CE398F81600C1070AD41A2198F80D0088F80E10F3
:202E9000012808BF0D213FD00D21CDE1002089F8000089F806000822012088F811002146AE
:202EB0000BF1B00014F0D0F9014602220BF1B80014F0CAF90BF1A80601460822304614F00E
:202ED000C3F904460821304614F0BAF90BF19C0604222146304614F0B7F90421304614F092
:202EF000AFF90BF1A00014F0A7F90BF1980014F09FF9DFF8A005018841F08001018098F8E2
:202F10000D00012806D10421584605B0BDE8F04F11F0A0BA99F81000012804BF99F811109E
:202F30000F290BD158460FF0F9F8042158460EF045F90F2089F81A00FD2175E1042173E129
:202F5000012088F80F009FE2002089F8000089F8060088F800000B21012088F80D0000208E
:202F700088F8010060E1012088F810008CE2002002F10906235C365C33432354561C365C3C
:202F900033400B54401C0828F2DB58460EF014FC70E2002002F10905235C2D5C2B432354EA
:202FB000551C2D5C2B400B54401C0828F2DB022048E299F8060008B93D2167E19AF8000008
:202FD0000128D3D014F8011B8AF80310022221460BF5897014F038F9014602220BF58A703A
:202FF00014F032F901208AF800009AF8020000281BD10C2118E198F81600C10601D41221AC
:20301000D1E058460FF074FD34E221783EE1207830706078707099F8100001280CD199F8EB
:2030300011100F2902D0162902D02DE268732BE2387B40F0010016E205B0BDE8F04F0020B8
:2030500013F032B898F81600810707D410F0110F08BF0F2000F009821A2252E020786178FA
:2030700000EB01202882E178A07800EB012068826179207900EB0120A882E179A07900EB1C
:203090000120E882207A2876A17A607A00EB01206883217BE07A00EB0120A883A17B607B4D
:2030B00000EB0120E883217CE07B00EB01202884A17C607C00EB01206884217DE07C00EB03
:2030D0000120A884A17D607D00EB0120E8840BF5AA700490688B0390287E0290BBF80800F9
:2030F0000190E88A0090AB8A6A8A298A58460DF0D9FA68B198F81600410701D40F2152E0A5
:203110001E22584605B0BDE8F04F0F2111F0BEB9688A0BF186018880A88AC880E88A08818E
:2031300002208BF8860000204880BBF83400C01DA9F81E008888BBF83210884201BF0BF15E
:203150008600C188BBF83400814206D10BF186000189BBF8360081421DD099F810000128A0
:2031700004BF99F811100F2907D099F8150020B10F2189F81A10FE2156E0FC2158460EF05B
:203190001DF8E88A0090AB8A6A8A298A9BF8060014F04AF878E1102146E098F8170010F0F6
:2031B000090F03D116218AF80C1060E16078217800F00700014021702078797B0140F9728B
:2031D00011D0481E01420CD0490704D5B87B10B10421F97205E0F97A022001421AD14008DC
:2031F000FBD1F87A08B9B97AF972F87A042803D158460FF01CFDB083F87A14F011F838719F
:20321000B28BB97B012310F09FF90146308B884202D207E0F872E4E7B28BB97B387901236F
:2032300010F092F978801721584605B0BDE8F04F0DF0C4BF60782178814207D100F0070009
:203250000840207033D0421E10420FD01E221821584611F01BF99BF80610002300221E209A
:203270000AF0EEFF387B40F04000FCE0F87247F6FF72A078E17800EB012038813989BBF895
:203290000800091A89B2914206DB28218AF80B1001208AF80A00F7E00120B871F87A0428B2
:2032B00003D158460FF0C3FCB083F87A0BE099F81100162806D1BA7A9BF806101346002031
:2032D0000AF0BEFFB87A3871B28BB97B3879012310F03AF90146308B884205D3B28BB97BBE
:2032F0003879012310F030F978800121387B40F0400038732970C7E02078617800EB01201B
:203310007082E178A07800EB0120F0826179207900EB01203082E179A07900EB0120B082DA
:20333000B18AF089884288BF0846B97A042905D140F691229042B8BF4FF42960F28BF08346
:203350009042B87A14BF01240024042803D158460FF06DFC04E0B089F18A884288BF084640
:20337000B28BB083904214BF012100210C433089718A328B884288BF0846904214BF0121FF
:2033900000210C433083B28BB97B3879012310F0DBF80146308B884205D3B28BB97B38791B
:2033B000012310F0D1F878807189308A728B814288BF0146718391429BF8063014BF012092
:2033D000002004438A4234490A6802EB4311728B8041121DC00F0A7610B1584611F090FA54
:2033F0009DF80000142810D144B1F08B0090738BB28B318B9BF8060013F00EFF584605B018
:20341000BDE8F04F15210CF0F9BB1CB1387840F008003870397841F02001397034E020781D
:203430000E280ED00F2809D0122804D014280CD0162812D028E00020287225E0012028738F
:2034500022E0032088F815001EE0387840F00200387040F01000387016E0387B40F0020057
:20347000387340F0100038730EE08AF80C0058460EF088FF40B905B0BDE8F04F07480078AE
:203490004FF4804109F09EBE05B0BDE8F08F00BF50280020524F0020BC2800206E4F0020F1
:2034B0002DE9F04FD04C04F118012046ADF1440D0FF0DEF9D54D00264FF6FF70012366705C
:2034D00032462082294604F1A4000FF053FE0223324604F1C80029460FF04CFE04233246B9
:2034F00004F1EC0029460FF045FE4FF0040A04F1440810224046314684F802A00CF0FBFE5A
:2035100004F154091022484631460CF0F4FE04F11C073E6004F10A052E70E67126720720B6
:203530006072CDF80080DFF81883022210200346414606F03DF9102003224146CDF8009071
:20355000034606F035F91020524641460097134606F02EF94FF0080B4FF0030905F12A00D5
:203570000C9005F179000D9005F11E000E9005F15A000F902435109517E06078A28FE18F84
:20359000B4F84050B4F8423006280ED1ADF81A20ADF81C10ADF81E50C048ADF8203013F0F1
:2035B0000AFB012006A90CF01BFAA069BA4A31464FF0FF3313F058FE071CF6D002960DF148
:2035D00022000DF12E0102AA11F09EFA002840F0CB81BDF822102078102940F0C1819DF8E4
:2035F0002E10884240F0BC81029D29884FF6FF728A4200F0AA812B78A23B00F08D812E3B72
:2036100040F0AE81A978B046002900F04981891E00F01881491E012940F2E880891E00F04F
:20363000A880491E7BD0491E5CD0083900F06481891E40F0678194F83A30A888052BADF83D
:203650000C0047D001208DF81600944813F0B3FA94F83A0001281ED004281CD003280DD0F2
:2036700002280BD00298C188ADF80E100189ADF810104189ADF81210818927E0A08FE58FFB
:20369000ADF80E00B4F84030ADF81050B4F84210ADF812301AE0A08FE9888842D8BF081C42
:2036B000ADF80E002989E08F8842D8BF081CADF810006989B4F840008842D8BF081CADF8E4
:2036D0001200A989B4F84200884200DC0846ADF8140001E08DF81660AF49102003AA06F054
:2036F00067F80FE1AD4813F066FA6B78002B40F00981E88860822889A0826889E082674824
:2037100013F020F8002840F0FD80656A002D00F0F9802B68608AA18AE28A9847F2E0AA884D
:20373000B549102006F044F80C98414606220CF0E2FD6682A682E682A8792073574813F01D
:203750003AFA964813F037FA4FF001084FF6FF702379208253B9A879082812BF84F801A08E
:2037700005206070404613F01DF8CBE084F80190C8E06B787BBB291D0C980A68026089885E
:2037900081800623637068892082E8896082288AA082688AE082E878E07294F83A0001286D
:2037B00018BF02280BD19A4910201F2206F000F84FF47A7180B24143384810F0BFFD6889C9
:2037D00000909249CDF804A0EA7810202D1D2B4605F0EEFF99E06878312840F08A80E67094
:2037F00084F801A091E0C046A80900206B78002B7FD1A878E3896178032815D0E07825798B
:2038100033B9012814BF2671E67008E0B5670100054304D07F48194610F090FD61780729E6
:20383000DED10620607070E0062907D0E578002D08BF84F8019068D00220F3E70720F1E7EC
:20385000855E01006B78002B53D1EB78617893B902291DD007291BD0062902D120790128C3
:2038700016D1032914D06B4812F06CFF80B9012012F098FF0CE011F03FFC0246A0796249FA
:2038900000900D9843460190102005F091FF68706D78002D2DD135E007000080700A0020F6
:2038B0006B7833BB5C485749009002221020034605F07EFF59484A4652490090102003466F
:2038D00005F076FFED1C0E9829680160A988012381802078637011F00FFC024601230F9DE8
:2038F0006079494900901020019505F061FFC0B258B184F801B008E0AA88414910200523FE
:2039100005F056FFB8F1010F2AD1256A45B32D6835B36078A84723E06879132820D128890D
:20393000012808D1607B022805D11C4813F043F911F01CF914E036491020052205F038FFEB
:2039500081B2164810F0FAFC0AE06888C00B07D3334852462B4900901346102005F028FF95
:20397000029808B113F0D4F82579E078790830D355EA00032DD0204600788DB9E179257A3F
:203990008DF82410109A8DF8255013680DF126052B609288AA8005E005160110940A002078
:2039B0008DF82490617A8DF82C10A17A8DF82D1011F0A2FB1149024609AB102005F0F8FE36
:2039D00038B1256A84F801B01DB12D680DB15846A847B80803D3134930460CF001F8F80827
:2039F000FFF4E3AD607B401E3FF4C7AD401E7FF4DCAD11F0BBF8D8E5ED23010059440110CA
:203A1000C1170110ADBF000009450110B5BC0000F58401104C0A0020EC090020FC09002037
:203A3000C4090020E20900202DE9F84F012010F0B5FF01280ED1DFF8F87439680020487187
:203A500038680FF0A3FD04F069FC040003D1812013F0DEFB68E201206071DFF8D854DFF853
:203A7000D8044178491C41703968A07981F8A00040200CF0C9FA2060287901281CBF002054
:203A900012F012FBE8682168DFF8B05400F5B060C860286801680A79032A1CBF002012F080
:203AB00003FB2868DFF898840168DFF898B401F10809062299F80000C0F3801084F82E013F
:203AD00009F1020104F5947012F04EFC042209F10E0104F1240012F047FCD8F80000A67914
:203AF00000F10C03042209F10E0103EB461012F03BFCD8F80000A37900EB4310032209F1C1
:203B10001201103012F030FC04F12C0699F81500B070022209F1160104F1300012F024FCAB
:203B3000022209F1180104F1320012F01DFC022209F11A0104F1340012F016FC30896084E9
:203B5000022209F11C0104F1360012F00DFCB078F18872894000B0704900B0884000120114
:203B7000B080F180728189B2638C5B1C4800434392B2934200D231B99BF80000802109F030
:203B900021FB3B21FEE004F12E01204612F048F80520A081204612F033FA052209F11E01D8
:203BB00004F1610012F0E0FB99F823004009307013F02AFB60823A68E34F518A401A04F519
:203BD0009771888104F1610199F82300DFF87C9300F01F00F07320460FF027FE29680A68D4
:203BF000002010711C25A1793868694341F6210242520022A17969430144001D4A80A17951
:203C10006943425099F80200410609D5D049088841F20A4290420CBFCE48CF48C4F89C0153
:203C30002046D4F89C1188473968A37901F10E026B43D054A1793868694308440021C1732E
:203C5000C648017881B1B08870B9002171730120208160812046D4F89C1188473968A37927
:203C700001F10E026B43D0543868A27900F10E016A43885C707394F8960108B912F014FA3D
:203C9000A1793868DFF8D8A26943084494F896114A1E02740023A17938686943084400210A
:203CB0004174A279396801F112006A4301F1140C8352A279D8F8000000EB42136A434CF8CF
:203CD0000230A2796A431144A64A8A61DAF814100B78DA074CBF4FF0100C4FF0000C9907FF
:203CF0004CBF202100215A074CBF402200221B0700F10803A07941EA0C014CBF4FF0800E10
:203D10004FF0000E0A4340014EEA020242F00F021A54D8F80000A17900EB41100B224272C4
:203D3000D8F80010A07901EB401104228A728E4A1378D8F80000A179012B00EB411002D193
:203D50000121C17203E0DAF828104A78C272D8F80000A17900EB41101F220276D8F800105C
:203D7000A07901EB401100224A76A07909F018FEA279D8F8001052018850A2795301C8581E
:203D900020B90721204611F077FECDE07748016801EB021013F034FA744AA0791368D8F810
:203DB000001003EB00130A1D40011350081DA27952018058F063A0794001095871640421A4
:203DD0009BF8000009F0FEF9644BB2881978901C11B10AB9F088801C618A94F806B04143E0
:203DF0004FF4C87205FB0BFBB1FBF2F1491CA061616140F6C41C23683A68CDF800B002F1CE
:203E1000080ED3F80CB00CFB00B0411A0098A1F5A8614EF8001002F10800A17969434058FD
:203E3000986002F10C01A07968430C32095C01F0EF011154A0793968684301F10C020C312B
:203E5000125C02F07F020A54A0793968684301F10C020C31125C02F0F00242F002020A548B
:203E7000A179386869430844417B01F0F00141F0010141733868A27900F108016A438858B9
:203E9000216808616369D8F80000A17996F802E05B0000F1140249010CFB0E3303F5F663B5
:203EB0005350A17900EB4110C27C02F0F00242F00402C274D8F80010A079DAF8303001EB52
:203ED0004012F0880CFB00F61868301AA0F51670D061A27901EB4210C17E01F0F00141F04A
:203EF0000401C176A17938684D4321684019486099F80100810614D504F59771488F1B2885
:203F100004BF888F1B2808D1C88FB0F5A47F04BFB4F86E11B1F5A47F03D0142120460DF05A
:203F30004DF9134907200870BDE8F14F01F008BB104F0020B44D0020684E0020F44B0020C2
:203F5000BC2800206E4F0020B828002050280020504F00201B1F0100DD270100784E0020F3
:203F7000CC8301005C4D0020734F00208C4E00206F4F00202DE9F843040014D1002012F002
:203F900093F810E020460EF0FDF9012808D065E08A0740F1548101F0FD0101700020B071BE
:203FB00020460EF0BBF804F16605687D002855D0697CDFF8A494022904F1EC0704F59E7832
:203FD00004F5B07604F5C67035D0042949D005295CD0062900F08A800729D3D0092900F0C0
:203FF000EC800B2900F0C1800C2900F008810D2900F0D0800E2900F0EA800F2900F028815A
:20401000102900F04281112900F05C81122900F00E81142900F08781162900F05A81172964
:2040300000F07581FC2919D0FD2900F09581FE2900F09B81A2E7297C012909D199F8030057
:20405000002815D01621204611F016FD012006E020460DF002FD2874E88A28830020BDE8AB
:20407000F283297C012940F0948199F80200002800F0E580FC21204610F0ECF9A07904F121
:20409000B80204F1B00113F0B7F88CE7297C01290FD199F8020020B184F8941000203860A0
:2040B0007860B87A012868D10621204610F0D2F979E704F1E7063078012809D1204610F0D9
:2040D00091F80128CAD10020B87201202874C5E770780028C2D004F1C70204F1A00104F1E5
:2040F000D70013F085F8012030705CE7297C012940F0538199F8020000283ED0618CE18368
:2041100020460EF00BF80120287020460FF04BFB0120A871397A787C012900F010000FD1D9
:2041300048B1002088F80500D8F8001098F8060049080DF047F9A079002113F055F80EE055
:2041500040B1D8F80020C54804F5A1735208214612F058FCA0790122002113F041F8002084
:2041700038723873F872B8721DE7287C012805D1F97A012908BFFC2197D060E020460DF014
:2041900051F80128A3D10020F87284F894000120287408E7297C012940F0038199F80200CD
:2041B000002809D0002184F894100120287020460FF0F9FA0120A87188E0297C012940F0FB
:2041D000F48099F80200D0B3618CE183E8E6287C012840F0EE80387C022804F1FD0204D114
:2041F000A179002012F0F8FFDAE6032840F0EA80A1791A2012F0F0FF00203874D0E6287C8C
:20421000012804F20D1140F0E8800B78012B04F5897240F0E8804878012807D1538800934F
:2042300000201388CA78A17912F0D2FFB8E6297C012940F0E78099F802000028F6D1298B4A
:20425000481E288380B200287FF408AF2221FAE6287C012840F0DA8098F80910012902D199
:2042700030780F281BE098F80800012826D1002188F80810288D000900901A20AA8CEB8CAE
:20429000A179520812F0A0FF8AE6287C012840F0C18098F80910012910D1307810281CBFDC
:2042B000002011F001FF002088F80900288D00090090AA8CEB8CA1797078E2E7287F00288F
:2042D000E2D1BCE7297C012940F0A88099F80300F5E7297C012940F0A580017B4A061DD400
:2042F000CA0709D501F0FE0101730023A1797078002209F0A5FF53E68A0740F1988001F0B3
:20431000FD0101730023A17900221A20F1E7297C012940F09980027B510690D5017B01F0EC
:20433000BF0101733CE6297C012940F08F8001788A067FF52DAE01F0DF010A0701700AD57F
:2043500001F0F7010170F08B0090738BB28B318BA07912F061FF21E6A97E204610F07AF870
:2043700015E7002011F0A0FE78E6A87E0F28F8D1FC21204610F06EF8B8F812000090B8F803
:204390001030B8F80E20B8F80C10A07912F04CFF64E620460AF0A2FD5DE620460EF0C6F80F
:2043B00059E620460FF002FC55E620460DF004FA51E620460CF0F2FC2874E88A288301204E
:2043D00038744BE6288B401E288380B20028F8D1A179222012F000FF38E701208870204616
:2043F0000CF026F937E6288B401E288380B20028E7D15088009022201388CA78A17912F004
:20441000E7FE23E720460EF04BFB24E6204609F067FF20E6204609F0B3FF1CE620460DF0A8
:20443000BDFA18E61621204609F0C4FC13E6288B401E288380B20028C3D1A179002300225F
:20445000222009F0FDFE01E71721ECE7142120460BF0D4FBFFE500BF5C4D0020CD0501007F
:204470002DE9F84FDFF82844A178FF2904BF002011F01AFEA07812F09BF8044604F16806F5
:2044900004F5C9753168086804F1900710B10022E28310E0B17B002904BFB07E00280AD1BF
:2044B0003978002904BF2878002804D1217F012904BF608CE0832189E08B4118491C618121
:2044D000204611F0CDFB01281EBFDFF8C8030178012904D120890022401CE2836081B07EE2
:2044F00001280CD1B28B6189208912F069FE30B121896289481C82422AD0B28B1FE03878E9
:2045100001280CD17A886189208912F059FE30B121896289481C82421AD07A880FE028787E
:20453000012815D16A886189208912F049FE00281FBF2189481C6289824209D06A8882423C
:2045500006D0501E608180B212F036FE401EE0832878012801BF69882089401C814207D1E3
:204570006A792A71002028701346A17909F068FE04F59A71087920B120890021401CE18343
:20459000608104F12E07B07E012801BFB08B2189491C884238D1608104F18601204611F008
:2045B0003FFBB08C6189608400202077E083E0894118A181B08B218912F0FEFD8046B988C0
:2045D000308C728C01FB0808F08C8A4204BF3989884202BFB18CFB88994207D000090090A2
:2045F000B38CA1795208002012F0EEFDB07F3870708CB880B08CF880F08C3881204611F090
:20461000FFFC0220B07601E0B7F80480E28BDFF88892501C00FB08F140F6C41808FB01F06F
:2046300000902368D3F80CC06044DFF870C2D860DCF800E09A489EF800A003884FEA9A1A8F
:20465000BAF1030F13D199F80FC05FEACC7E48BF00230CD45B1C9BB2012B11BFB4F812C06E
:2046700004F59A7CBCF806C00CF2DC5C01E0B4F812C00CFB01FC4FF4C87EBCFBFEFCDFF8F7
:2046900024A20CF1010CC4F814C0038084F820204FF01C0BA379A1610BFB03F3DAF8001009
:2046B000226801F1080001F1080CC058D3681061A0790BFB00FE60691B1A4CF80E3001F10D
:2046D0000800A3790BFB03F3C058906001F10C02A0790BFB00F00C31125C02F0F00242F0D2
:2046F00002020A54DAF80000A279811C0BFB02F200208852287908B911F0D6FCDAF80000C3
:20471000A27900F1100128790BFB02F240088854A079DAF800100BFB00F00844002141749A
:204730002879042814D1A079DAF800100BFB00F001F110022B7A125C103142EA83020A545F
:20475000A179DAF800000BFB01F1084420214174DAF80000A27900F112010BFB02F2002315
:204770008B525149A2790968520101F11403D4F814C09B5801F1140E03EB4C034EF802306E
:20479000B27E022A0AD1A279520101F114033E789B5808FB063301F11406B35099F80F20A7
:2047B000D30749D5A2790BFB02F200F1080300F108069B58A3F5A863B3500830A27923686A
:2047D0000BFB02F282589A600098121A1A6101F11402A079400101F11403125802F5F66298
:2047F0001A502879042807D1A079400101F11402125802F5B0621A5001F11400A2795201E7
:204810008058C4F8340101F11C03284AB888166BA57908FB00F730686D01381AA0F51670F0
:204830005851A37901EB431021490D78012D0EBF0122916A4A7819E02879A37904280CBFED
:204850004FF44B604FF4E66001F114025B01D258101ABA8808FB02F2A2F516729042D2D34A
:204870000821204611F008F901200FE0C272A179DAF800000F4A0BFB01F108442168486099
:204890000720107020460FF070FA0020BDE8F28F684E0020784F00205C4D0020084F00204F
:2048B000E0280020B8280020BC280020CC830100734F00206F4F00202DE9F04F09AFADF101
:2048D0003C0D08900A92388809911E46ADF81800101C08BF002000F08481002700F10109A6
:2048F0004FF0FF3A4FF0010BB8466CE1252940F063811078521C0A922D2818BFADF806804F
:2049100005D15846551CADF8060010780A9530281CBF4246434605D10A9908785A465B4652
:20493000491C0A912A28CDF80080554616D1306804930A99CDF808A0C01C4B1C20F00300B9
:20495000001D306050F8044C0A93002C0878009418D5ADF806B06442009413E044460AE03C
:20497000610001EBC40140180A99A0F1300408780094491C0A91302801DB3A28F0DBCDF81B
:2049900008A004932E282BD10A9908782A2801F101010A9111D13068CDF80880C01C20F0BF
:2049B0000300001D306050F8045C002D48BF454608782B46491C0A9111E0454643460AE0F0
:2049D000690001EBC50140180A99A0F1300508782B46491C0A91302801DB3A28F0DB029304
:2049F0000AB1224604926C2804D04C2818BFADF8048005D10A990878ADF804B0491C0A91C0
:204A10000BA9CDF80C800FAB07916428059300F08B80692800F08880BDF818C0752872D01B
:204A300078286ED06F286AD0702850D063283DD073281ED009980A990128A1F101010A9142
:204A500015D96B490C68B5F1FF3F03D0A84288BF6D1C00D8099D029508A80AA932466B461E
:204A7000A047C7190A99039801F1010974E040462AE030680A99C01C20F00300001D30606A
:204A900050F8040CBCF1000F01F10109014608B955A00146079111F0B3FD0390B5F1FF3FF2
:204AB0005BD0A842C4BF281C039056E03068C01C20F00300001D306010F8040C5D468DF8CD
:204AD0002C000A990395584601F1010945E0082035680490E81C20F00300001D306050F83B
:204AF000041C082210230FA80BF0DCFF401E0790402101700A99079801F1010929E0082363
:204B100002E0102300E00A230A99306801F10109C01C20F00300001D306050F8041CAA423C
:204B3000BCBF2A1C049210E00A99306801F10109C01C20F00300001D306050F8041CAA42F7
:204B5000BCBF2A1C04926FF009030FA80BF0AAFF0790059D281A0390009C241ABDF8065035
:204B700000945DB906E008A8202109AA10F0A5FC009C7F1C641E0094F5D503980546401EF5
:204B9000039075B9BDF80600E8B10098401E009019D408A8202109AA10F08FFC00987F1C1B
:204BB000F4E70798411C0791017809AA08A810F084FC03987F1CE1E708A809AA10F07DFC40
:204BD0007F1C09F101094A460A9812F8011C401C00290A907FF48AAE089808B141460170B2
:204BF00038460FB0BDE8F08F286E756C6C2900C0AC8301002DE9FE43BF4C0F460646F80B42
:204C100080F05081B80880F03D81E07ADFF8F492B90F80F0B680607A002840F096803809A7
:204C3000C0F09580A07A20B10020A07205200FF033FE00254FF001086570284684F807807A
:204C500006F0DFF8AD4904F174002A4611F093FF207901281AD16079C0B9DFF8A482D8F849
:204C7000000000284CD048460068006B804761694346401A000BA0611968E2698018B0EB00
:204C9000C11F98BFE0613BD9E56101E084F80480DFF87482A8F115000068000A30D340F62B
:204CB0000900A08694F8410000F0F00040F0010084F84100E58694F8400000F0F00084F887
:204CD0004000A56311F051FF08F6FF7211686FF0020321F00201116004F13401C8F8FB3F36
:204CF0008A4AC8F8EB1F11688908FCD3C8F8FB3FD8F8FF1F41F00201C8F8FF1F12F0B8FA7F
:204D100065610FF0ADF88248056002200FF0C4FD112008F0B7FA307C10B90E2008F0B2FAE7
:204D3000E5712572A07818B906F1380011F031FF784811F0D7FD78490878F8B10D7004F13C
:204D5000D000042111F02DFF18E0380914D2B80BC0F0C98004F1240011F017FF061C08D01C
:204D7000706830B17568F068B6F91C1000222023A84727F40057B6E00020607227F00807E6
:204D9000B1E020B104200FF087FD0020E072B168088840F602054FF0000885420AD0B0F515
:204DB000C15F07D00A8B4FF61F60104040F43470088306E00A8A4FF61F60104040F434707A
:204DD00008826069E0B1D9F85400016804208847B0B1D9F80000006B80476169814226BF88
:204DF000401A401E401A000BF060708AF168401840F6C411F06081422CBFB0F5FA7FF16013
:204E100094F8410010F00F0F0BD1708CED1D854207D1B56930466FF4807142464FF00073F4
:204E3000A8473E4904F17400424611F0A4FE607958B10220ADF80000684610F067FB84F823
:204E50000580BDF80800A4F8700001206070E078401CE07004F1200084F8068011F095FE54
:204E7000002808BF47F0020702D0192011F081FE7569414630464FF080630A46A84727F015
:204E9000005730E004F12C05284611F07EFE07F001F9284611F079FE27F0020708B147F0A3
:204EB000020720E011F061FE014604F1280011F06CFE0646B569A80810D27EB125EA05006B
:204ED000B061084612F0D4F9706850B12A46F068B6F91C1075680023A84702E0084612F0F7
:204EF000C7F927F4804727B104F1D000394611F058FEBDE8FE83C046E80C002029590100CA
:204F1000B02800208C01001015000440101004400000046095C20000AC28002095B9000032
:204F3000BB482DE9F84F0025BA4CB849056094F8E200002800F06581012800F02F81B64E37
:204F500002283CD0032840F05C8151F8250CD4F8B8100029A0F5C060C4F8D400B8BF494255
:204F70000028B8BF4042814226DA4FF08057D7F8A4014568B4F8BC0030214FF47F4208231E
:204F900000903046A847D7F8A4014568B4F8C00004214FF4F802122300903046A847D7F824
:204FB000A401B4F8D070456820214FF440620A2330460097A847012584F8D8501CE151F844
:204FD000258C11F0A1FC2F4600B901273946934F38680028FCD0B146012609F10409D9F831
:204FF0002CA03E6009B111F095FCCAF30720C4F8BC0011F089FCAA4600B9B2463B68002B9A
:20501000FCD0D9F800B0BAF1000F3E6001D011F081FCCBF38440C4F8C00011F075FCAA462C
:2050300000B9B2463B68002BFCD0D9F81C90BAF1000F3E6001D011F06DFCC9F38120C4F8EC
:20505000D000B8F5C061C4F8B81000F09C8094F8D80068B9C4F8D410D4F8C000C4F8C800DD
:20507000D4F8BC70C4F8C470D4F8D030C4F8CC30D4F8D410D4F8BC30002954BF02206FF08F
:20509000010004F1C802176801EB41014018411000EB917107EBA1001060D4F8C810C4F89A
:2050B000C43000291CDD1E293CDDD4F8CC0030B93429B4BF15391E21C4F8C81025E02A29A0
:2050D000BABFD4F8C8000B381E20C4F8C800D4F8C4003F28B4BF401C3F20C4F8C4001FE00A
:2050F000D4F8CC00032812D011F10B0FC6BFD4F8C8000B30301CC4F8C800D4F8C400002803
:20511000C4BF401E051CC4F8C450032508E011F1150FC6BFD4F8C8001530301CC4F8C80049
:20513000C4F8CC504FF08057D7F8A401B4F8C43030214FF47F424568374800930823A8472F
:20515000D7F8A40104214FF400321123456832480096A847B4F8C860D7F8A40104214FF4A1
:20517000F802122345682C480096A847D7F8A40120214FF440620A23B4F8CC604568264890
:205190000096A84701E084F8D85040F2FF50404502D8801C40452FD2082030E051F8251C31
:2051B0001F4F4BF2F5204843060A3868C0F3814001280CD11B480068006880470EF032FE42
:2051D00011F0AEFB3111C010484306EBE03694F8E50030B91448006820F07F40801946089D
:2051F00001E084F8E5501148310C0660012741600F4D8760287808B90B2000E0052084F8F8
:20521000E40004F067FCBDE8F88FC0462D400C402C500C40BC15002000A00C4000800C40E7
:20523000B43F0050EC010010102009403C600C40BA8201002DE9F04F0D46E80789B00BD5D0
:2052500011F090FA28B100218160AE48006800B1804785F0010052E1A80710D5002006900F
:205270000021049000230290009005910393019101223C2011F09CFF85F002003FE11E2472
:205290006807DFF88482A14F40F19B800020079082469F498878FF2804BF002010F004FF02
:2052B000386890F8A00011F083F906463868C07A96F82EB1022818BF032806F5947906D1FB
:2052D00008F10D0011F070FF08B908F1070A4946584611F065FF88B33868807A002818BF17
:2052F000012804D1414648460FF04DFE04E04A46594640460CF000F9FF283DD06043834613
:2053100008EB0B0406224946E01D11F02DF818F80B0040F0020BE01D079006223868817EEE
:2053300001F0010186F82E1104F10109386800F1140106F5947011F017F81DE049465846CF
:2053500011F0D6F8C0B14A46594640460CF0D4F8FF2811D04443444404F10D0011F024FF43
:2053700040B904F10D0011F01FFF002804BF607F012801D14BF0020B06F12C005B460178B9
:205390000691418909090591728C079904920122C088029140080390CDF804A0CDF8009029
:2053B0000020B17911F004FFD6F89C0159498842B0790CBF002101210AF002FA85F0040012
:2053D0009DE0280610D5002006900021049000230290009005910393019101223B2011F040
:2053F000E7FE85F080008AE0E8043CD508F1070108F10D0011F0D0FE38684179012923D10E
:20541000017A012918BF04291ED1C17A022918BF032919D1817E00F1140240460CF06CF8A5
:20543000FF2811D04443444404F10D0011F0BCFE50B9E11D04F10D0011F0AEFE386806220A
:20545000E11D143010F090FF334934484A6800784FF480510EF000F910B18E2011F098FE38
:2054700085F480504BE0A80505D511F04DFA2C4901200860FEE7690504D506F08EFB85F4B7
:2054900080603CE0680405D5812011F081FE85F4804034E0A80431D5224C206810B10020C3
:2054B00010F002FE4FF0FF3020600CF047FA1E4C216851F8202F684690471C48C16A026BA5
:2054D0002468009101920021029100F134014A6809781368806A03938DF81010ADF81200A8
:2054F0006B46D4F80080124A12491348C0471349086003F0BFFF85F4005000E0002009B08F
:20551000BDE8F08F204F0020E01D0020104F0020684E00201B1F0100784E00206E4F002058
:20553000FC002043044F0020F04E0020281A0020D4270020441C002088490020EC4E0020E3
:205550002DE9F04FB64D686885B0019020B905B0BDE8F04F11F018BE0178DFF8C882B24E6A
:20557000DFF8C892DFF8C8A201291CBF0229042946F2A81741F64C5B05D0402918BF8029B9
:2055900000F09A8043E111F0EFF90028FAD00198007805F0FDFD0090446814B9002010F0C9
:2055B00083FD9AF80100002860D002F0C3F910F0FFFF02900168009801914F680BF024FCCD
:2055D000022827D000990A78012ADBD1994B19680A7A19F80230337018B911F0D1FD58449D
:2055F000A0602069C17E01F0EF01C1762069C17E41F08001C1762069C17E01F0F00141F02F
:205610000201C1768C48B96841182069C16101210098A0E001980178802913D10822874875
:2056300032700178012903D09AF80100012803DD78690121C17213E0D8F828107A69087812
:20565000D0720DE07D49072030700A787869012A02D10123C37203E0D8F828104A78C272E3
:205670000298817901988AF80210CBE00098002888D00199009A0078914205D101281CBF3D
:20569000002010F011FD15E0012840F0C080694801680A7A19F80200307011F071FD39182D
:2056B000A06811F069FD18B911F06AFD5844A0600120A8700098A5E09AF8010000287DD038
:2056D00002F038F910F074FF04462068029047689AF8020010F06CFF039011F04BF910F03A
:2056F000070F3DD0A87805F053FD019041680198009102990BF088FB022831D001990A784E
:20571000012A2AD14B4B19680A7A19F80230337028B911F035FD83440098C0F808B0009956
:205730000869C17E01F0EF01C17600980069C17E41F08001C17600980069C17E01F0F00146
:2057500041F00201C176009AB9683B4841181069C16101210198A97054E0002010F0A4FCD4
:205770000398A04228D002980178802913D10822324832700178012903D09AF8010001288C
:2057900003DD78690121C17213E0D8F828107A690878D0720DE02949072030700A787869BA
:2057B000012A02D10123C37203E0D8F828104A78C272A0798AF80200029823E011F0DAF894
:2057D00010F0070F29D0A87805F0E2FC04462078D4F80480012820D116490A68107A19F8FF
:2057F0000010317011F0CCFC3918D8F8080011F0C3FC20B911F0C4FC5844C8F80800012017
:20581000A870204605B0BDE8F04F07F011BA05B0BDE8F04F002010F047BC05B0BDE8F08F0A
:2058300084280020CC8301006F4F0020289A0110684E0020104F0020F0D8FFFF734F00208E
:205850002DE9FE4F0F46994C0168E16241688068A0609748616080479648E16A01606168A4
:20587000DFF870B24160A168DFF8648281609249002FA246C16069D03D68E8788DF80800F9
:2058900028798DF8090002A811F072FCA86808B18A490160E86808B189490160894C287802
:2058B000207068786070A878BE68A0703178E1707368636072696261B168A160F168E16058
:2058D000316921612E697B68A6621868A0616869E062A8692063287F84F834002A6AA26302
:2058F000786886681EB9002010F0DEFB00E026627868C06818B9002010F0D6FB00E0606226
:205910007868406818B9002010F0CEFB00E0E0612869A062F86881680E6806B96B4E6A4997
:205930004FF001094E60C66881F801902EB9002010F0BAFBF868454601E045462E6000681F
:205950005C46FE68A0617068E06106E0002010F0ABFB4FF001095C46454628685E4946680E
:20597000621C04F114035020B04710B1286880688047DAF804008047594F00268346694643
:205990007E7056483E700422206130460FF006F90098B0F5801F0CD020B90FF0E1FC05F040
:2059B000D7FE08E00EF062F910F034FE0420788001E00FF0D5FC4B4FB0462868C7F808805B
:2059D0008069A660804778604748468080F80090142010F0EFFEFF211422A06211F0F1F869
:2059F000E01CFF21022211F0ECF8142010F0E2FE3E49086008681422314611F0E2F8304601
:205A1000FAF7D8FF48460EF0FDFF39480188FF2906D1022101807822001D314611F0D1F881
:205A3000032011F0A1FB042011F09AFB052011F093FB062011F08CFB07200CF081F92D4E62
:205A50000820307006F1400011F07EFB0CF042FC363605200A21324610F00CFA38B14046DA
:205A7000C0F10901401C06F8011B0A28F8DB2F68214909200DF10A0201AB7D680870102073
:205A90004146A847A06AE2690A270A309DF80A1000F8011BDAF808107F1EF7D1921E584660
:205AB000E261884702F0D2FFBDE8FE8FA817002041490010F8440020907201003D52010067
:205AD00089620100281A0020041D00200FE60000B01D0020601B0020715901004963010032
:205AF000AC1D0020782800209C190020D4280020D418002028130020ED2800202DE9F04F0B
:205B10000546A64CA878216AADF11C0D801F00F03E81C01E00F02981401E78D0401E56D0D6
:205B3000C01E4AD0401E40F03581207A617A00283FD1607800283BD0A88811F001FB071C11
:205B500000F02881A87A40080AD3787940B1E968890A05D2B91D01AA08F07EFA0A2825D0A0
:205B7000207B022802D1A87A00091FD36078AE887979C0B1607CB0B90120607405F10802B5
:205B9000304603F04BFD002840F00481206A002800F000814368002B00F0FC80002130466B
:205BB0000A469847F6E00521304603E0032100E00521A88811F0C0FAECE0002900F0EA80ED
:205BD0004B68002B00F0E6806A780221CBE010F0D1FD002800F0DE80276A0FB1386868B97B
:205BF000286900280CBFE0690120698911F0A0FA002800F0CF8068890121DBE728690090BD
:205C10003C6869892A7B6B7BE81CA047C2E068784FF00008002840F09580A8794008C0F019
:205C30009180606A002840F08D8001A841460E2210F0C7FFA88811F083FA061C00F0AA8004
:205C50006869002859D081464146062209F1110010F0B1FAC24620B34846062210F0ABFAB0
:205C7000D8B999F8100009F1110B474605907F1C5846FFB28BF800700FF088FB0A280BDA34
:205C9000474B059A0101A1EB400158188079824202D1002FEBD100E01FB947464FF0010A7A
:205CB0006F61BAF1000F09D109F1110101A8062210F05AFB99F810008DF80A00BAF1010F53
:205CD0001BD06F69CFB1387C07F1110106228DF80A0001A810F048FB06F10C00B11D062217
:205CF00010F042FBB01D07F11101062210F03CFB387C40F00200707107E07079B11D062294
:205D10008DF80A0001A810F02FFBA9799DF81120C1F3800010438DF81100080905D39DF88E
:205D3000110040F008008DF8110001A8294602F0DDFB28B92078022107F044FA40462AE031
:205D50004FF0150810F046FE206A18B343680BB3A8886A7801219847B8F1000F1AD0206A96
:205D7000032142464368A8881BE7E878291D002208F072F90A280DDA410001EB800005F1A3
:205D90000C0225300421C0B206F008F902E0A8880CF024FB012007B0BDE8F08F281300207E
:205DB0001A1400207CB5A34D144602460026A2F58062192A1BD8DFE812F031012A012201A4
:205DD000190111010C010401FD00F300E700DF00D700C500B9001A001A00970081007A00A4
:205DF00065005C00520047003A0030002500282880F29A80022940F09780218811F094F925
:205E1000064614E1012940F011812178284601750121C17410F0D6FB09E1012940F00681D5
:205E3000002C00F0038128461230024614E0102940F0FC80002C00F0F98028465C30102220
:205E5000214610F091FAF2E0012940F0EF80002C00F0EC802A46921D21781046E4E02629FC
:205E700040F0E480002C00F0E180284626226C30E6E7012940F0DA80002C00F0D78028464D
:205E9000401D9CE0602900D144B9012940F0CE80002C00F0CB8028460D3090E005F1920010
:205EB0002146602210F060FA01206873BFE0012940F0BC80207811F033F9B8E0012940F0A7
:205ED000B5802178022900F3B180284600F10C0211702178022918BF301C02D11021C17289
:205EF000012011F019F9A2E0072940F09F80611C6846062210F002F920786946324608F058
:205F1000ABF804460A2C0FDA11F002F938B9204605F0D2F90FF0FEFB0CF0DCF987E02846B4
:205F300001212C30015582E0022680E001297DD12A462178907B0028917378D120780128D1
:205F500075D1E9E72846027B01296FD1022A04D02178072901DB102904DD022A66D121780B
:205F7000102963D1C17262E001295FD121780A295CDA2846093057E0012957D121780229DF
:205F900054DA284608304FE000294FD111F0C0F810B910F0C3FABDE7284601210F3043E0D0
:205FB000042943D12168244888423FD328461C3001603CE0012939D12B4603F10A0021784C
:205FD00032E0012932D1217802292FDA2846C01D2AE010292AD128464C3030E7012925D1FB
:205FF0002178022922DA2846001D1DE001291DD1217804291ADC2846C01C02462DE70129A5
:2060100014D12178022911DA2846821C25E702290CD1218828461630018008E0012905D1F6
:206030002178022902DC0548017000E0182630467CBDC046281300203F420F0029130020D6
:206050002DE9FC41A0F2013714468846022F40F232819B4E9C493F1F0F2F04D9143F4CD01F
:20607000BF1E1CD011E0DFE817F0CF00C9000D01FA00C100B9002601AF00A70010001000D1
:206090009D008F007F0074006600282880F21381B8F1020F40F00F818849238807E1B8F18E
:2060B000010F40F00881F078012800F00481324620781179107189B9002800F0FC80507848
:2060D000012800F0B580042800F0B280062800F0AF80052800F0AC80BDE8FC81207800289C
:2060F00040F0E9805078032800F0AF80072800F0AC80052840F0DF80A7E0B8F1010F40F06E
:20611000DA802078012840F0D68006F1EC0010F019FB002840F0CF803446002004F13A0166
:2061300009F05EFC002840F0C68004F1C80010F042FDBDE8FC81B8F1020F40F0BC80208872
:206150000A28C0F2B880B0F5486F00F3B4808E1C17E0B8F1020F40F0AE802088B0F5FA7F11
:2061700080F2A9800E460CE0B8F1020F40F0A38020880628C0F29F80B0F5486F00F39B8016
:206190003E363080BDE8FC81B8F1020F40F0938020880628C0F28F80B0F5486F00F38B80BB
:2061B0003C36EEE7B8F1010F40F085802078062880F28180454E0EE0B8F1010F7BD1207843
:2061D000042878DA0A3606E0B8F1010F73D12078082870DA09363070BDE8FC81B8F1010F42
:2061F00069D12078042866DA0836F4E7B8F1010F61D1207804285EDCF61DECE7B8F1020FAF
:2062100059D120880E36BCE7B8F1010F53D13079012850D032462078D178D07069B9002803
:2062300049D05078012803D0042818BF052842D1012010F0B7FABDE8FC81207800283AD16F
:206250005078022818BF052835D110780EF054FF1C490246102003F0ABFABDE8FC8106F1CB
:20627000830500211F2228460AF045F821464246284608F013FA44463078B4710EF03CFF8D
:20629000002311E006F1640500211F2228460AF032F821464246284608F000FA4446307805
:2062B00074710EF029FF01230094094901950246102003F07DFABDE8FC81C046BD840110C7
:2062D000A809002099450110E8090020E2090020094501102DE9F04F9E4C20780E46F10B4C
:2062F000ADF11C0DC9036ED1B0085ED2606AA16A720807D2F00828BF86F0040680F0258137
:20631000002023E1858861B904F11800924A00904FF6FF710223012010F0F6FE0146A16270
:2063300021B304A800900027019702230293FF220392228B28460DF1120301F0F3F958B9F2
:206350009DF813009DF81220A16A12EB002204D0498928460DF0C4F9A16A228B08463B463F
:206370004FF6FF7110F0CCFE0146A162206A00291CBF012186F001061FD168B14368616A98
:206390005BB18888002201219847206A676A4368B888032100229847616A888810F01CF953
:2063B0000FF066FE86F00106CFE00020014602F09DF830B1012186F00206207806F002FF40
:2063D000C3E00221F7E708F0ABFC5FEA000800F0BA80054628784FF0010AB03812D0401E92
:2063F00003D01F3800F0A580A7E02879002840F0A480B8F80200B8F80610B8F808200DF05D
:206410006FF99DE02879401E41D0083803D0743800F0828087E068781A2879D0688881463D
:2064300010F0D2FA801E18D0401E7CD1288901280AD16889032807D1E9688A7848460421A0
:206450000CF07EFB024600E01822206A00286AD04368002B67D0042116E029896888524607
:206470000129814609D16989032906D1E9688F781FB910210CF064FB0246206A002852D074
:206490004368002B4FD00521484698474BE02B7A688805F10807082B814639D110F094FA0D
:2064B000801E12D0401E33D1287B0A2818BF122205D16889042100220CF042FB0246206AF1
:2064D00030B3436823B3042120E07888102100220CF036FB237D834693B1484610F030FE3A
:2064F00070B11E490B784BB94179831D524601F00101084619460FF037FE01E05046E074EC
:20651000206A28B143681BB105215A4678889847688810F061F806E06A8810F055FA014635
:2065300010460CF06BFC297905F1080010F098FE03E04046FFF7E2FA8246BAF1000F02D0CD
:2065500028460FF0DDFB86F40046B0B207B0BDE8F08FC046281300208C7F01005A4F0020B3
:206570002DE9FC41884C894A2678894F894D8A490D2E30464FF4A0534CD8DFE816F0030116
:206590000E000E000E000E00FB00FB006800FB00A700A700D800D800DF008049176041F20A
:2065B00004464C887E4FB4421CBFB1F81AE0B6450BD0B1F83280B0451CBF41F20A46B442F2
:2065D00003D0B64518BFB04502D12E80176076E0022C744E2C8035D94FF48067E41B1AD006
:2065F000241F012C1DD94FF47F77E41B1BD04FF44067E41B0FD0A41E012C0CD9241F0AD049
:20661000641E012C0DD940F2F937E41B012C19D9241F08D0AEE0022814BF2B80624E1660DE
:206630004DE0624EFBE762480468257A012D05D141F20240488048834886F0E74B804B838C
:206650004B86ECE700200FF02FFD832096E059488178FF291ED01C2041435748176040F26A
:2066700004460068841C645A2C80A41B012C534D10D94FF47F76A41B15D00A3C012C14D99D
:2066900040F6F636A41B032C84BF641F012C0ED9A41E012C76D940F2FD36A41B07D0641E05
:2066B000012C02D905E041F20143801C4352156005E000200FF0F8FC852010F0A9FDBDE8D8
:2066D000FC413F480078012106F07CBD4A882A8040F20443D21A55D040F6FC73D21A15D0A1
:2066F000083A4FD04FF47F73D21A22D1354C364A2568364800680023CDE9002355F8086FE1
:20671000334B0222B047334908803BE0092810D131490A68508960B1304908780BF02AFDAE
:206730000021002010F0E8FC002020702AE04888288000200FF0B8FC85201FE04A882A80FF
:20675000022A0DD940F20440121A1BD040F6FC70121A05D0083A15D04FF47F70121AE8D1A9
:20677000887B801CC0B2B528A8BF662088730020488007E000200FF097FC8420BDE8F64132
:2067900010F046BDBDE8F3816F4F0020204F0020396B0100504F002034280020204A0020F6
