:20000000004000201537010001C9011001C9011001C9011001C9011001C9011001C9011011
:1C00200001C9011001C9011001C9011001C9011001C9011001C901103FC9011089
:20003C0080B54FF4FC720FF278011A480EF00EFC012119484174002202210270C17601BDF6
:20005C002DE9F0410FF2502214493820136854689568D6681769D2F814C0D2F818E0D2F8F9
:20007C001C800B604C608D60CE600F61C1F814C0C1F818E0C1F81C8020322031401EE5D1DC
:20009C0050689368D46812680A6048608B60CC60BDE8F081480400215903002100C00021D1
:2000BC00410500217D0500212D06002170B51D46004C204787B2000010B5014800470000FD
:2000DC00D509000070B5614C6148254650358047022809D14034E1885E4A914204D1E97C5E
:2000FC00890601D4911DE18070BD70B557495A4A084650300378002B10D08379012B0DD181
:20011C00037C5B09DB0709D0097D544DC1746C7F20202043687790476C7770BDFF21C17420
:20013C00904770BD10B54E48484C804702280ED121464031CA88474B9A4208D1CA7C5209CE
:20015C00D20704D0227D920601D49A1DCA8010BD70B53E4843494030C07C4009C00707D032
:20017C003E4D41482C8B2043288388472C8370BD884770BD10B53B48344CAC388047214609
:20019C0053310A789309DB0705D04034A2730A7803231A430A7010BD2C4940310871182876
:2001BC0012D004DC0A280BD00B2804D10AE025280CD02A280CD02D4980004018C0687047DE
:2001DC002B4870472B4870472B4870472B4870472B48704770B504461C484E252D5CAE09AB
:2001FC00F60716D0067D3007000F052803D00120054202D00DE00220FAE7E80905D07006D1
:20021C0003D54868800F012803D05B085B0052085200062B03D01020022B11D011E0FB20F7
:20023C00024002232046FFF741FF002807DAC100611A2039497E1422114200D1002070BD93
:20025C00024303432046FFF731FF70BD4401002137CB000004140000EBC80000A800002142
:20027C00F5B4000053AD00002020000080DF00001D050021F9040021CD040021930400210F
:20029C006D04002110B5034CFFF716FF20680028FAD110BD0011044068610000F825F965B0
:2002BC00F9754500450045002600260057A3520052004C00401F401F401F3F000000000053
:2002DC00304000400140034007400F404F40CF40CF41CF43CF47CF4FCF3FCF2FCF1FCF0F6C
:2002FC00000000000000000000000F00080000003F00000040003F000000040068000E0093
:20031C00DC00060043001A00050000000000020000000000000000000400C00000000400B3
:20033C00C000000007000000000000000000000000000000000000003040004001400340A6
:20035C0007400F404F40CF40CF7FCF6FCF5FCF4FCF3FCF2FCF1FCF0F00000000000000009D
:20037C0050C00091007070C00091007082312100319110B10070018101B100A1823132910D
:20039C0010B101911110418141227740F106007051C0019130181039833108D01831416FD1
:2003BC003100319110B18314141683680070251050C00091F4C340C12014036F3110410497
:2003DC005082F0229840512622C082312100319110B163393110410482C08231210031919B
:2003FC0010B163393110A2C082312100319110B150101531051405920070676452C03110A6
:20041C0031066131C1026A6412C13110213971065131E1026A64007051C0019101CCE2C0CC
:20043C006A64676411C1C2C06A6450B054B0007140804022D6440022C94060B08180111EC9
:20045C00C944007054A064B0F0800022C9404012B09032B070C1DF6811C122C16A6470C1C0
:20047C00E46851C00191E2C0823160820200329110B130C2EE68538253395339B16460C347
:20049C00F4688012B09032B00070676401C122C16A6401C1C2C06A645382B164C012B09074
:2004BC0032B00070676472C281C06A6422C111C16A6402C011C16A6462C031C36A6462C3D2
:2004DC0011C16A6402C311C16A6453825339B164E2C36F6411221C4142C281C86A6452C24E
:2004FC0011C16A6472C2E1CE6A6402C281C86A6402C201C86A64B0C030690070676442C211
:20051C0001C86A6452C211C06A6472C2E1C06A6402C001C16A6462C001C36A6422C101C127
:20053C006A6462C301C16A6402C301C16A645382B16400708180111E5C4150B054B000712B
:20055C00408040225D4154A064B0F1800122514500700022514160B04E61000000000000AA
:20057C000000000000000000067305720B720E7250B00071818060B050A09280F0EFF1928C
:20059C0002936A6741228C458080F1C11004301601110114016CB561B661B761B861B9618D
:2005BC00BA61BB61BD61BF61C161C36126632D63F0C002043231412A121432160111211412
:2005DC00016CDA61C561E061C761CB61B561B561B561F461C561FA61C761CB61B561B56104
:2005FC00B561F461C561FA61C761CB61B561B561B561E761C561ED61C761CB61B561B56121
:20061C00B561CF61CF61CF61CF61CF61CF61C064CF61F964CF610665CF613265CF6174676A
:20063C00CF611166CF61C0644E65F964CF61066511663265CF618280E0DFF2926A67B0B044
:20065C00D661B1B00673057230B06C61D0CF6A6784C203C0C0C37C64207851788278E378B7
:20067C001579B6780062C0CF6A6784C203C0C0C37C64307861789278F3781579C678006250
:20069C00B0CF6A6784C203C0C0C37C6440787178A27803791579D678109221923292439281
:2006BC005492659256911FC0FF914039F00601101031101400927067CF61E3B054A0F08076
:2006DC0050221A4640800022BE461262E3A000C86091598150B0918041228E46A0CF6A6734
:2006FC0012828231823942398B641282F2062F101F312F141682D622334640C1346200C5AF
:20071C0020140D6F6D39DE10F4C34E0482C082312E006D39A2C082312D001A828A39FA0606
:20073C002082803180390BC00B18BC10AC18038239149B141082F0060110103110145181C2
:20075C0010140C14C622C94631D0C1266462021011C0013010C00118021882312100C126C2
:20077C00919103B013B063B053B041800122BE46B481C491D581B51C774E95186591F0803E
:20079C00102269428C623D9110B13E9110B1E08000228146E6228142E0B0951865910F926B
:2007BC005981F914F0805022114210228C464D6390CF6A6763B052A03082F2C0200402107E
:2007DC0011C0013010C00118021882312100C1269191919113B003B063B053B064B054B055
:2007FC00007141800122BE4663B064B0F08050221142B181C191D1819118619131B0A462D0
:20081C002967E0A059810582591480C0007163B0BA6A6962E3A0018262818231823D80EF61
:20083C00F19202936A6703A0007037824739873930828039F006021011C0013010C0011849
:20085C00021882312100C126819102B012B030824039F006021011C0013010C001180218E9
:20087C0082312100C126919103B013B063B053B0007153A062B052B041800122BE46A4816E
:20089C00C491D581B51CFE4E95186591F0801022F0428C62B481C491D4814518751C084FEB
:2008BC00F0801022F0428C623D9110B13E9110B1E08000221247E6221243E0B065910F92DC
:2008DC005981F914F0805022114210228C4630632967E0A0598105825914F0C0007162B038
:2008FC00226BF062A2808B64CF6112824239F2068B6050B00071CF6170CF6A674082418096
:20091C000122BE46A481C491D58195186591F18011228C46336B41800122BE46A481C491AB
:20093C00D581C51C1C4B95186591F08010223F438C6260CF6A67408241800122BE46B48169
:20095C00C491D58195186591F18011228C46506B41800122BE46B481C491D581C51CB44A55
:20097C0095186591F08010225C438C62E092D08200226B47C0B20070A080F022874330B033
:20099C0002C1623101C0A080001E8043F022814380F86031603981632010101A136F236E5A
:2009BC0011161216826B00702DE9F84FDFF81885DFF8181588F80000002008600921DFF891
:2009DC00100501700D2141804FF408718180DFF80405DFF8041501608A7EDFF80005027042
:2009FC00FF2ACB7E437008BFFF2B0D7F85704E7FC6708F7F0771C97F417115D1FF2D08BFE8
:200A1C00FF2E11D1FF2F08BFFF290DD1DFF8D0140A7802704A7842708A788270CA78C27025
:200A3C000A79027149794171DFF8B81402780A70FF2542784A7082788A70C278CA7002791E
:200A5C000A714079DFF8A02448710021DFF89C04057045708570C570057145711180DFF872
:200A7C009004DFF89014466BDFF88C247078087031781170B078DFF884140870716908791F
:200A9C00DFF87C14421E0A70F078DFF878140870B069DFF87414086008B915F0F7FBF069C5
:200ABC00DFF86844206008B915F0F0FB2068DFF8607401688847216851F8042F38469047A1
:200ADC00DFF85004DFF850143862DFF850047862306A086008B915F0D9FB706ADFF8401454
:200AFC00086008B915F0D2FBDFF838B4DFF838649BF8040015F050FF306008B900F045B97F
:200B1C009BF80500DFF8247415F046FF386008B9306837E19BF80600DFF8144415F03CFF57
:200B3C00206020B9306815F03FFF38682AE19BF80700DFF8009415F02FFFC9F8000038B9D0
:200B5C00306815F031FF386815F02EFF206819E1DFF8A4130A789BF80000DFF8DCA3921CB1
:200B7C00504380B215F018FFCAF8080058B9306815F01AFF386815F017FF206815F014FF8C
:200B9C00D9F80000FEE0DC480078002800F00281BBF80210DFF8A4B3484380B215F0FCFEA4
:200BBC00CBF8040078B9306815F0FEFE386815F0FBFE206815F0F8FED9F8000015F0F4FE9F
:200BDC00DAF80800DEE0CC48007815F0E5FEDC49086080B9306815F0E7FE386815F0E4FE1E
:200BFC00D9F8000015F0E0FEDAF8080015F0DCFEDBF80400C6E0C04800781C21484315F0A2
:200C1C00CBFED04A1060B0B9306815F0CDFE386815F0CAFE206815F0C7FED9F8000015F0FF
:200C3C00C3FEDAF8080015F0BFFEDBF8040015F0BBFEC348A5E0B0480078400115F0ACFEB6
:200C5C00C1490860D8B9306815F0AEFE386815F0ABFE206815F0A8FED9F8000015F0A4FE33
:200C7C00DAF8080015F0A0FEDBF8040015F09CFEB348006815F098FEB249086882E09E48B4
:200C9C000078000115F088FEB0490860F0B9306815F08AFE386815F087FE206815F084FECC
:200CBC00D9F8000015F080FEDAF8080015F07CFEDBF8040015F078FEA148006815F074FE51
:200CDC00A049086815F070FE9F485AE08A480078000115F061FE9E49086018BB306815F09D
:200CFC0063FE386815F060FE206815F05DFED9F8000015F059FEDAF8080015F055FEDBF85A
:200D1C00040015F051FE8E48006815F04DFE8D49086815F049FE8C48006815F045FE8B49E7
:200D3C0008682FE0744800783021484315F034FE884A106070BB306815F036FE386815F0EE
:200D5C0033FE206815F030FED9F8000015F02CFEDAF8080015F028FEDBF8040015F024FE88
:200D7C007748006815F020FE7649086815F01CFE7548006815F018FE7449086815F014FE3B
:200D9C007348006815F010FE002015F07FFA4FF4804192E031680120087130680573316811
:200DBC004D73306885733168CD7330680574002031684D743268D072A0223168487103214F
:200DDC003068C28001720720316848720020326890722821306841820121C17600203168BE
:200DFC004877326882F85E00012031680877326882F85D00396808713868057339684D7369
:200E1C00386885733968CD7338680574002039684D743A68D072396848713A6890724FF47D
:200E3C00207039680022C88008818A7401213A68D17421680D732268557321688D732268FD
:200E5C00D57321680D740021226855742368D9720121226811710021236859712168C88065
:200E7C000881002088722168887405202268D0743948016888472A490A6805461068804713
:200E9C0027490A6852F8043F0020984718481D4BC16818780A88314902430A802846304985
:200EBC000A6890470C212F4800F05EF80F4800F05FF800F061F84FF4005198F80000BDE833
:200EDC00F44F0CF001BA00BF6E4F0020044F0020604E0020084F0020B63F00502C4E0020C9
:200EFC00E81200503C4E00200C4F0020344E0020BC8501006D4F00207B4F00206B4F0020E3
:200F1C00724F00206C4F0020F04E0020F44E00207C4B0020B5690100F84E0020C56901009E
:200F3C00FC4E00207C1D0020104F002020290020184F002024290020E4280020684E002094
:200F5C00004F0020182900201C290020884E00208C4E0020904E002010180020544F002047
:200F7C0014180020F84D0020DFF800F0E5710110DFF800F01D6E0110DFF800F04D7101107D
:200F9C00B0B5174C241D20680004070C23D01248006800688047114991F90720824205DDF8
:200FBC0010F1800FB8BF6FF07F00C8718D88BD4210D80A68D4F8D40F801A801C1F2888BF16
:200FDC001F207F1B4008C7404FF6FF70EF19B84238BF071C8F80B0BDEC0100100429002037
:040FFC003010094068
:20100000B41200001810000015AB0110FDB301106DC00110FDAE011099B5011000000000F7
:08102000000000002D0000009B
:20102800B01200003C100000B1C00110A9BF011067C0011069B80110000000000000000035
:041048003000000074
:20104C00B012000060100000BDC00110CDB30110D9BD01106DB3011000000000000000005B
:04106C00310000004F
:20107000000000009C1D002004000000000000000000000020000000E8C901103000000071
:2010900028100000A41D00200400000000000000000000000C000000D8CA0110180000004C
:2010B0004C100000AC1D002004000000000000000000000024000000F0CA011018000000D0
:2010D00000000000B41D00200400000000000000000000001000000018CA01102C000000DC
:2010F00000100000C41D0020040000000000000000000000200000006CCA01102400000040
:20111000FFFFFFFFCC1D00200400000000000000000000002800000090CA011024000000FF
:20113000FFFFFFFFD41D00200400000000000000000000001400000008CB0110180000007E
:20115000FFFFFFFFDC1D002004000000000000000000000058000000B4C90110340000004C
:20117000FFFFFFFFE41D00200400000000000000000000001000000020CB0110180000001A
:20119000FFFFFFFFEC1D00200400000000000000000000001C000000B4CA01102400000047
:2011B000FFFFFFFFF41D00200400000000000000000000003800000044CA0110280000006F
:2011D000FFFFFFFFFC1D00200400000000000000000000005400000078C901103C000000E4
:0811F0000100000090850100E0
:0411F80001000000F2
:0411FC0000000E00E1
:0412000000000F00DB
:0412040032000000B4
:0412080001000000E1
:04120C00681C00203A
:0412100000020000D8
:0412140000000000D6
:0412180001C90110F7
:04121C0000000000CE
:0412200000000000CA
:0412240008000000BE
:0412280000002200A0
:04122C00C41A0020C0
:0412300000000000BA
:0412340000000000B6
:0412380008000000AA
:04123C00101C002062
:0412400000000000AA
:0412440000000000A6
:04124800080000009A
:04124C00000000009E
:04125000000000009A
:041254000000000096
:041258000000000092
:04125C00010000008D
:04126000601B0020EF
:041264000600000080
:041268000100000081
:04126C00B419002091
:04127000000000007A
:041274000000000076
:041278000002000070
:04127C00000000006E
:02128000290043
:02128200010069
:02128400250043
:02128600300036
:02128800310033
:02128A002D0035
:02128C0001005F
:01128E00015E
:081290000300000014850100B9
:0812980000000000000000004E
:0412A0000000010049
:0412A4000000030043
:0412A80013C401105A
:0412AC00496701008D
:0412B000B812000070
:0412B400B81200006C
:0412B8000000000032
:0412BC00341D0020BD
:0412C000C168010000
:0412C4002000000006
:0412C8003884010065
:0412CC003C8201005F
:0412D00029C101101F
:0412D4006B1D01008D
:0412D8002F260100BC
:0412DC00A1C7011095
:0412E000A3C701108F
:0412E4000000000006
:0412E8008B820100F4
:0412EC004480010039
:0412F0005C8001001D
:0412F4002C80010049
:0212F8000200F2
:0212FA000900E9
:0212FC000100EF
:0212FE000000EE
:0113000001EB
:041304002968010053
:041308009D480100FB
:04130C00E95B010098
:04131000214D01006A
:04131400874D010000
:04131800313501006A
:04131C00550A01006D
:04132000CB6A010093
:041324004D20010057
:0413280015C70110D4
:04132C0025C70110C0
:201330002DE9F843089C582B804617460CBFBDA5C1A5002908BFB8F1000F05D12068411E0A
:201350002160302707702AE04FEAE7793E460246083E13D0083E0DD0002908BFB2F1FF3FA2
:2013700004D94B463A4606F063FE0BE0B2FBF7F0002107E008071209090902E04807D2084A
:20139000C9081043226800FB1783561E0029EB5C26608046137008BFB8F1000FD6D1206899
:2013B00015F026FA401EBDE8F8837CB51446002806460D460094B8BF404264230A22C11710
:2013D000FFF7AEFF702D0BD0502D09D00A2E09DA16F10A0F04DD2068411E21603023037042
:2013F000002E01D42B2100E02D212068421E226001702068411E216005707CBDF8B5174665
:201410000D46044615F0F4F9024629460020002903DD8A42A4BF0819401E27B11D686E1EB6
:201430001E602E272F708A4208DA8F1A302511461A68561E1E607F1E1570F9D100290CDDB5
:2014500084420FD8071B7F1C196810F801294C1E1C607F1E0A70F7D1F8BD1868411E19608D
:2014700030270770F8BD2DE9F04F04461546A868ADF16C0D0028199302D003D5062000E034
:201490000120A860884630210FF2043B8DF800109BE80C00471C204641460EF04BFCA14614
:2014B00038BF88F00048002612E03020087059E09AE80C000AF07CFD761E8846814611E031
:2014D0009AE80C00484609F089FC761C88468146C9A20CCA41460EF070FC0FF2143AEFD3F8
:2014F00000201A909BE80C0048460EF023FC09D01A9CC3A20CCA48460EF01CFC38BF01244E
:20151000002CD5D1484611F0E7FF83460DF1010111F054FA841900EB0D01874201F1010604
:2015300019DD3F1A584613F0BEFE0B4602464146484607F0DDFB9AE80C000AF039FD8846E6
:20155000814611F0C9FF83460BF130007F1E06F8010BE7D101E06F447E1C16F8010D3528F0
:201570000ADB314611F8010D401CC2B23A2A08709BDA6F468F4204D01A980DF10107307015
:2015900003E01A98641C06F8010C14F1030F09DBA868A04215DA022C04DB1A98641E2418C2
:2015B0001A9406E0002C05DC1A98C4F10104001B1A900124287B199A801EC1B21A98FFF715
:2015D000F4FE384615F014F90026401E844219DC021B521C002803D4395C302901D004E00D
:2015F000302116B92B681B0908D3DDF864C0DCF800305E1ECCF8006001261970521EA0F1DB
:201610000100E7D12868002200F00800304318BF0122199B21463846FFF7F0FE1BB0BDE8FD
:20163000F08FC0463031323334353637383941424344454600C046C0303132333435363711
:20165000383961626364656600C02DE9FE4F0D99441C9946924601900FF2341B00940C9FB4
:20167000029130210170194610469BE80C000EF061FB38BF89F00049002512E030200870CF
:2016900054E098E80C000AF093FC6D1E8946824610E098E80C00504609F0A0FB6D1C8946D1
:2016B000824655A20CCA49460EF087FB0FF24018EFD37F1C9BE80C0050460EF03BFB0AD08D
:2016D0004FA20CCA50460EF035FB4FF0000638BF0126002ED5D1504611F0FEFE06462146F2
:2016F00011F06CF9041941190298EF19002F016017DD304613F0D7FD0B46024649465046CC
:2017100007F0F6FA98E80C000AF052FC8946824611F0E2FE064606F130007F1E04F8010B6E
:20173000E7D114F8010D352810DB214611F8010D401CC2B23A2A0870A0DA0198884205D1A2
:201750000299019A08680092401C0860002100982170BDE8FE8FF8B516460D46044615F056
:2017700047F8324629465118491E521E0FD4521C002903D48842C8BF665C00DC30261D68D8
:201790006F1E521E1F60A1F101012E70F0D1F8BD0000000000000000F0B51546AF681C469C
:2017B0000246ADF5FE7D002FADF1100D44BF0627AF60266802A800970B46019003A8FFF739
:2017D00044FFAA68029923460746FFF7C4FF20680122B04203D12868000938BF00220299DC
:2017F00038462346FFF70AFE7FB004B0F0BDC04600000000000024400000C0FFFFFFDF411D
:20181000000000000000F03F2DE9F0471646B4689A4688460746ADF1700D002C44BF062455
:20183000B4600FF2E42999E80C000EF0C6FA4FF000050DD90FF2D82999E80C0038460EF0F6
:2018500079FA05D9B4A20CCA0EF074FA12D11FE099E880010EE099E80C00384609F0BEFA01
:201870006D1C07460FE099E80C000AF0A1FB6D1E88460746AAA20CCA414638460EF05AFA51
:201890000FF2A429EFD399E80C000EF096FAE2D9009402A80B463A46019003A8FFF7D5FEBE
:2018B00004460298022809D1401E0290204614F09FFF6D1C0021201800F8011C317B284627
:2018D0005246FFF772FDB268029920465346FFF742FF204614F08CFF02990122884203D1BF
:2018F0003068000938BF002220465346FFF786FD1CB0BDE8F0872DE9F04F074616460020A0
:20191000ADF17C0D1B9380A4009094E80C0038460EF053FA88460FF200290CD97CA494E864
:201930000C0038460EF006FA05D999E80C000EF001FA02D109E094E88001414638466A463D
:2019500010F04EFB0098401E0090307BB5680024A0F14101B5F1FF3F1D9108BF0124A24683
:2019700041280CBF744875481E9030208DF8080099E80C00414638460EF0DCF938BF88F04B
:20199000004899E80C0041460EF0D4F90CD0384601AA10F025FB019A41463846C2F1010295
:2019B0000BF038FA88460746384611F095FD83460DF1090111F002F80446584613F073FC98
:2019D0000B4602464146384607F092F90FF2601B04EB0D021C940746BAF1000F02F10904A6
:2019F00051D16D1C15D09BE80C000AF0E1FA8846814611F071FD1E99095C04F8011B13F0A8
:201A100052FC0B4602464146484607F071F96D1EE9D11D9F641E002F14BF484B464B217817
:201A3000184614F07EFEC01A082831DB254600271D986D1E002814BF404B3F4B29781846C1
:201A500014F06FFEC01A401C1028B4BF195C3021102829701CDB2F70EAE79BE80C00384619
:201A70000AF0A6FA0D46074611F036FD1E99095C04F8011B13F017FC0B4602462946384618
:201A900007F036F9074699E80C000EF053F9E4D10025307B2570412814BF702150211B9ADF
:201AB0000098FFF782FCB068B0F1FF3F05D10DF1090014F09DFE401EB0601C991B9B0DF1C0
:201AD000090402462046FFF746FE3168B0682A4601F00801084318BF01221C991B9B2046D0
:201AF000FFF78CFC307B412814BF782158211B980268531E03601170016830274A1E026063
:201B10001FB00F70BDE8F08F000000000000F07F000000000000F0FF0000000000000000E5
:201B3000000000000000F03F000000000000244000000000000030403416000048160000EA
:201B50002DE9F04F05462B6816460C46ADF5FE7D1846ADF1600D14F04BFE4FF0000A014631
:201B70008B96184693945B1883428C9340F24A84CDF844A2CDF824A2514692918A91969126
:201B9000B84A959294924FF0FF360396899901910F468DF8107002970778252F08BF0A1C72
:201BB00010D0002F00F02E842968491C296000788B9914F089F8286807780AF1010A252F5B
:201BD000EFD1019A2868939C401C286011E042F010020AE042F0010207E042F0020204E0A2
:201BF00042F0080201E042F0040201922868401C286028680178B1F12000F4D0C01EEFD04D
:201C10000838EAD0801EE5D0C01EE0D02A291DD0969986A80A220EF090FC28680178302924
:201C30000BDB86AA3A2908DA0146401C2860097802F8011B01783029F4DA9DF818722E6822
:201C5000B7B186A811F048FA029011E0E41C24F00304241D54F8040C002803D542F001022B
:201C700001924042029020462E689390761C2E6030782E2831D12868401C286000782A2830
:201C90001FD0969986A80A220EF057FC2868017830290BDB86AA3A2908DA0146401C286083
:201CB000097802F8011B01783029F4DA9DF818722E68002F08BF8A980DD086A811F00CFAFE
:201CD00009E02E68E41C24F00304241D761C939454F8040C2E6003903078019F4C381FD028
:201CF0001C3811D0001F21D12E68761C2E6030786C2803D047F04007019717E02E6847F4EB
:201D10008077761C2E60F7E72E68761C2E603078682818BF47F02007EED147F4007701E049
:201D300047F0800701972E68761C2E602868401C286030786E288DF8100000F02E83732804
:201D500000F0E2820DF21520029E059020214FF4FF7206A80EF0F1FB6E44183605988D9669
:201D70008A9901700B468E930DF5057C8F938B4690939DF81070CDF814C03846642814DC0C
:201D9000642821D0253800F0B4821C3800F00D81001F022840F20981133815D0093800F0FB
:201DB0000481801E00F0EC8172E16538022840F2FC80001F08D0801F012805D9801F18BFB8
:201DD000B0F1030040F064810399002904D4019820F01000019002E0012003900146B7F1CE
:201DF000580007D0173807D0401E03D0083818BF0A2202D1102200E00822702F77D001987C
:201E1000D946D84600F4EC60203852D0203842D0C03829D0B0F580700DD0B7F1580066D0B8
:201E30000C385BD0401F59D0801F60D0801F5ED0C01E5CD065E0B7F158000AD00C384DD075
:201E5000401F4BD0801F04D0801F18BFB0F1030057D1E41C24F00304241D14F8048C4FF00C
:201E700000094DE0FFFF0F00B7F158000AD00C3808D0401F06D0801F04D0801F18BFB0F15A
:201E900003003ED1E41D24F007040834A4F1080090E8000334E0B7F1580028D00C381DD06F
:201EB000401F1BD0801F22D0801F20D0C01E28D11DE0B7F158000AD00C380FD0401F0DD09B
:201ED000801F04D0801F18BFB0F1030019D1E41C24F00304241D34F8043C0EE0E41C24F0B1
:201EF0000304241D54F8043C4FEAE37907E0E41C24F00304241D54F8043C4FF00009984674
:201F10009394CC1743464846194350EA040608BF002903D101990C09C0F04881642F18BF9A
:201F3000692F08D1002806DA01265B424FF000018F9661EB000005A90091014618463B463E
:201F5000FFF7EEF90399401C814227DA9DF81070782F03D0582F18BF702F11D101990809BF
:201F70000FD3702F08BF7827059807700598401E05903021017005989DF81070401E05905F
:201F900001996F2F40F012810809C0F00F8105984278302A00F00A813021ECE005993022AC
:201FB0000A700599491E0591CCE73846A0F16101192998BF20385E46B84208BF0126E41D5A
:201FD00024F0070408349394083C94E8030047F6F07347F6F07E03EA11439E4510D1949C2C
:201FF0000A4600231200134300221C4040EA02024FF0FF3303EA020208BF002A40F0A180A6
:202010005FEA0B0440F09D8073460FF2C42C03EA11439E450FD1959C0A4600231200134351
:2020300000221C4040EA02024FF0FF3303EA020208BF002A33D05FEA0B0430D19CE80C00A5
:202050000DF078FE3CBF81F000414FF0010BB7F141021FD0121F15D0521E0ED0521E07D080
:202070001A3A17D0121F0DD0521E06D0521E0FD101AA05ABFFF7F7F908E001AA05ABFFF7F7
:202090008BFB03E001AA05ABFFF7BEFB9DF8107001998BE001AA05ABFFF72DFC29E09CE89C
:2020B0000C000DF047FE26D3002E14BF4621662105988DF81412002EA0F10100059014BF6A
:2020D0004E216E2101700599002EA0F10100A1F10101059114BF4921692101700599491EBC
:2020F00005912B2700F8017C05984FF0030B401E0590019958E0002E14BF46216621059838
:202110008DF81412002EA0F10100059014BF4E216E2101700599002EA0F10100A1F101017B
:20213000059114BF4921692101700599491E05912D2700F8017C0199DDF814C04FF0040BCC
:202150002FE0002E14BF4E216E2160468DF81412401E002E059014BF412161210170059929
:20217000002EA0F10100A1F10101059114BF4E216E214FF0020B01700598401E059085E7DB
:20219000E41C24F003045E46241D14F8047C939407B901268DF814720199909621F00201B6
:2021B00001916046401E05909DF81070059A752F02F101002BD06F2F29D0782F27D0582FE1
:2021D00025D0702F23D05FEA0B0703D07F1E1ED101238F9301F002038F9F8E931FB98B08B8
:2021F00008D32B2100E02D211170059A0199401E521E05928E9E374309D1CA0807D3059991
:2022100020220A70059A0199401E521E059249080ED20599029AADEB010303F215239A4244
:2022300006DB8D9C06AA891A6418A4F5FE7400E006ACA446401E4FF4FF7110F8017F0CF891
:20225000017B1FB1491EF8D1DDF858C2909ACDF814C022B18A9960460170401C05900598A5
:202270008D9981420AD38846A8EB00022021401E521C0EF062F98A9888F80000019840093B
:202290002AD306A8A0422ED006A8221A302106A80EF053F99DF81000782810D058280ED0ED
:2022B00070280CD08E9F8F9E374302D10198C00819D320788DF818003027277013E00198F7
:2022D000000910D360788DF81900302767700AE0000000000000000006A8241A20212246DF
:2022F00006A80EF02AF906A814F082FA909A121804E047A00188012206AF39808B9906A8C6
:2023100013F0E7FC824478E0039BE41C24F00304241D54F8048C9394B8F1000F38D0029E4C
:20233000002B06D4404614F063FA984288BF181C02D8404614F05CFA0446B442A8BF061CC9
:20235000B244A6420ADD780808D2371B002F05DD8B99202013F0B8FC7F1EF9D1002C07DD59
:20237000274618F8010B8B9913F0AEFC7F1EF8D10198A64241DD40083FD3361B002E3CDDFC
:2023900037468B99202013F09FFC7F1EF9D134E096988B9913F098FC2FE007F4EC67B7F145
:2023B000200021D0E03814D0B0F5807008D0E41C24F00304241D54F8040CC0F800A01BE088
:2023D000E41C24F00304241D54F8040C80F800A012E0E41C24F00304241D54F8040C4FEA3A
:2023F000EA7B80E8000C07E0E41C24F00304241D54F8040CA0F800A0939428688C9981427E
:202410003FF6C1AB7FB0504618B0BDE8F08FC046250070472DE9F04FDE4C04F10C0720468B
:20243000ADF1740D394610F045FB04F138050021284615F019F82561D74D4FF4FA72042357
:2024500004F19000294610F0B7FFFA22202304F1B400294610F0B0FF64224FF4805304F10B
:20247000D800294610F0A8FF04F1440004F128010CF0D8FAC949A06114F050FBC84AA069BC
:202490004FF4E02112F0F2FAC64AA0694FF0C05112F0ECFA2822402304F59070294610F094
:2024B0008BFFC14904F1FC000222002310F084FF04F5A2702946FA22802310F07DFF14F004
:2024D0004CFCBA4D05F1CE06316841F00401316014F0C6FF4FF0000B85F800B014F03DFCF6
:2024F000316841F00401316014F0BAFF85F800B014F033FC316841F00401316014F0B0FF3C
:2025100085F800B014F029FC316841F00801316014F0A6FF0120687014F01FFC316841F066
:202530001001316014F09CFF0120A87014F015FC316841F48041316014F092FF0120D84E00
:202550002873706880478046D749D648C160D74901610EF021FBB16840468847D4484FF4A3
:20257000806A4FF40066076104F1240141614FF40073A0F80AA0DFF8809306810C228381F9
:2025900049460DF13A000CF067F90DF13A000C2114F005FC0CF0FAF910B9CBA010F0E8FE95
:2025B00020208DF85A003F278DF86EB00DF15A010DF156028DF85B70022011F06FFF01282A
:2025D0000CD1232080278DF85A000DF15A010DF156028DF85B70022011F060FFC1A010F063
:2025F000C7FE13F085F8DFF8148310201F220623414607F04FF94FF44873ADF81E30502057
:20261000ADF81C0001268DF865605F46ADF81A708DF866700DF16502ADF8207031464FF4F5
:202630007A7340F20530ADF8223003F07BFD40F2063002210DF11A0203F074FD04F1740260
:202650004FF442701B2103F06DFD04F15E0240F20730162103F066FD4FF444700DF1660234
:20267000314603F05FFD40F21130022107AA03F059FD40F2123002210DF11E0203F052FDFD
:2026900040F21330022108AA03F04CFD4FF4457002210DF1220203F045FD04F150005A464D
:2026B0000E23D1490090102007F0F4F8414610200622A02307F0EEF8414610200722A023FA
:2026D00007F0E8F8414610200822A02307F0E2F8414610200922A02307F0DCF88DF86760E2
:2026F0008DF86860059730468DF86A00BF4E8DF869704FF48162042305A8314600901020E0
:2027100007F0C8F80DF167000090314652460123102007F0BFF81AA8314640F20242012319
:202730000090102007F0B6F80DF16900314640F2034201230090102007F0ACF80DF16A00E8
:20275000314640F2064201230090102007F0A2F8D14910204FF0FF3207F09CF8CF49102076
:202770004FF0FF3207F096F8DFF8348310201323CD4ACC4E00904146019607F08BF8D048EF
:202790000078800014F0F3FACE4E0146B160E9B10EE0C04620050020156901005D6B0100B1
:2027B00007000680070000181D5D0100022002404FF6FF7012F0D8F8CE49102006F10C02AC
:2027D00000900E230191414607F064F8D8468DF86B7058468DF86C800121ADF824800DF1C6
:2027F0006B028DF86D800BF0C1FA01201BAA01460BF0BCFA022009AA01460BF0B7FA03206B
:2028100001210DF16D020BF0B1FA04F1200004F13002CB497060102007F03CF8207812F05E
:2028300071FDC8490246102007F034F8207812F069FDC5490246102007F02CF8C349102091
:2028500007F028F8C2491020042207F023F8CD4E77783078AFB904F11C01316212F052FDCE
:2028700006F15407CDF80080024606F14400019006F11C030297C8490393B378102007F0F5
:2028900009F849460DF1260012220C310BF0E4FF0DF12600122114F082FADFF8009334E0D0
:2028B0000C180020700F002065680100A9190100501C002002208DF86400012119AA0320F5
:2028D0000BF054FA21E0C046204C4953334448206661696C656420746F20696E6974212133
:2028F000210D0A00204C495333444820697320476F6F64210D0A00C0D4820100BD84011083
:202910001020A070BE4814F04CFAE068A54A59464FF0FF3314F0A0FD071CF6D05846049014
:202930000DF1620104AA06A812F00CFA002840F08E80BDF8181020784FF0010810297FD116
:202950009DF8621088427BD1049E31884FF6FF728A424DD03378913B1ED01F3B70D1717867
:20297000162913D112F0CEFC03464FF48070009004988B494288102006F08CFF30B94046F2
:2029900012F0ECFC0498D846606159E0317906F1080014F05DFD53E070780E3802D0801EB1
:2029B0001DD04DE0B08842F20301814248D1B1680E78002E44D1491C0DF146000A684968F3
:2029D00002600DF1460641603078BE490DF1460200F0FD003070102006F05CFF30E008205F
:2029F000594607F039FB2BE025FB0000995E00007088400A24D3666916B3607806F1080330
:202A1000401C6070C849009372883379102006F041FF5FFA80FABAF1160F11D02078BAF103
:202A3000040F0DD0666912F06DFC034658465C4900907288102006F02DFF504612F08EFCD2
:202A5000049820B1B8F1000F01D014F059F9F80FC0F0B680AEE02069064614F0F5FC86420D
:202A700008BF5E4602D0866811F098FF301C00F0A1803088401E00F09780401E16D00E387F
:202A900040F09580E07818B912F032FE0A20E070012028708BE0C046115B01009D5E010079
:202AB0002D520100F084010048120020B07868B3401E69D0401E07D0401E4BD077E0C046B2
:202AD000694F00202017002002200DF16F0111F099FF9DF86F0078B1401E052806D9801F58
:202AF00002D0F83810D10DE085F80CB00AF06CFD0AE0C046FC84010084F804B084F802B08B
:202B10000120A87012F0F4FD97A02BE058460DF16F0111F077FF9DF86F00401E0CD0401E18
:202B300018BF85F800B009D10A20A070344885F800B014F036F901E0012028708FA011E0D7
:202B5000B160010051880110318101107DF30000D964010003200DF16F0111F053FF12F012
:202B7000C7FD8AA010F004FC9DF86F00012130308DF86F000DF16F0014F011F97EA010F044
:202B9000F7FB14E0F809002001200DF16F0111F039FF83A0E6E7C046773901004A1A00202B
:202BB000AF680100E41000C0B07807F093F9304611F0F4FE206914F043FC00283FF44BAF04
:202BD000F80802D3874814F0ECF8B80910D3A07827F0200760B1401EA070094814F0E1F8B2
:202BF0007F4800685946C0F3800000B901212970780B14D3207927F4805780B102E0C04642
:202C1000D4050020401E2071774814F0CAF8744800685946C0F3001000B90121A970F809BC
:202C3000C0F08A80E07827F0400700284CD05B46401E8DF87030C6B20DF171010DF14E0276
:202C5000E823E67007208DF8713011F027FC9DF84F109DF85120082088409DF853309DF8FB
:202C70005010091888B2082191409DF852205218082199409DF8543000F0FF00802892B228
:202C90000B4499B2B4BF40F0800000F07F0002F0FF02802AB4BF42F0800202F07F0201F0D0
:202CB000FF018029B4BF41F0800101F07F01730029F803004D484B4419859A82282111F006
:202CD00041FC39E095B4001099F8146099F8000099F828308DF85F604FF0020C8DF85E0042
:202CF000DE468DF8603009260CEB090803220DF15D0313F8010F38F8141B8842B4BF081AF8
:202D1000401AC0B28645BCBF86461970521EF0D1761E0CF1020CE7D1BEF10A0F06DC0AF010
:202D300053FC25A006E0C046DDFE0010304814F038F826A010F01CFB380AFFF4E6AD022025
:202D50000DF1630111F05EFE9DF86300401E06D0401E3FF4D5AD401E3FF4ACADD5E514208D
:202D700020712148CFE5C046416C61726D205374617465203D2000C00D0A00C04C45442078
:202D90005374617465203D2000C046C0416C61726D204D657373616765203D2000C046C0CA
:202DB000416C61726D2053656E7369746976697479203D2000C046C04E6F697379204D6F1A
:202DD00076656D656E74210D0A00C046446576696365204D6F7665642121210D0A00C0462B
:202DF00080200240B0050020F805002040060020640600202DE9F04F0C4685B0834614F84E
:202E1000010BDFF870278DF8000018280BF1FD010BF1E7080BF166090BF20D1A0BF5B076C9
:202E30000BF59C750BF5C67700F29183DFE810F019006F005F0191008F038F03FA00690364
:202E500011012301FE000D0133018F038F037C018F03610155017503D602D60227028F031E
:202E7000740214F8010B8BF88600022221460BF1880014F0E1FA014602220BF18A0014F0C8
:202E9000DBFA014602220BF18C0014F0D5FA014602220BF18E0014F0CFFA04469BF8860062
:202EB00040008BF886000BF1860102224888400048800BF186008188490081800BF18601E2
:202ED00008890001088121460BF1840014F0B4FAB9F81E10BBF80800091A89B247F6FF7288
:202EF00091422ADA0BF18601C8888A88401C520050430A89904203D33B208AF80B0039E287
:202F1000012089F81C000020ABF81E001EE0052221460BF1610014F08FFA014602220BF125
:202F3000920014F089FA0BF1860047F6FF728189BBF80800091A89B2914280F218820BF13A
:202F50008600012181720021ABF81E10012028700CE398F81600C1070AD41A2198F80D0008
:202F700088F80E10012808BF0D213FD00D21CDE1002089F8000089F806000822012088F8A7
:202F9000110021460BF1B00014F056FA014602220BF1B80014F050FA0BF1A8060146082221
:202FB000304614F049FA04460821304614F040FA0BF19C0604222146304614F03DFA04211C
:202FD000304614F035FA0BF1A00014F02DFA0BF1980014F025FADFF8A005018841F0800103
:202FF000018098F80D00012806D10421584605B0BDE8F04F11F032BB99F81000012804BFCC
:2030100099F811100F290BD158460FF0A9F9042158460EF0F5F90F2089F81A00FD2175E1AE
:20303000042173E1012088F80F009FE2002089F8000089F8060088F800000B21012088F861
:203050000D00002088F8010060E1012088F810008CE2002002F10906235C365C3343235432
:20307000561C365C33400B54401C0828F2DB58460EF0C4FC70E2002002F10905235C2D5C3A
:203090002B432354551C2D5C2B400B54401C0828F2DB022048E299F8060008B93D2167E1D4
:2030B0009AF800000128D3D014F8011B8AF80310022221460BF5897014F0BEF9014602223B
:2030D0000BF58A7014F0B8F901208AF800009AF8020000281BD10C2118E198F81600C10653
:2030F00001D41221D1E058460FF024FE34E221783EE1207830706078707099F810000128C0
:203110000CD199F811100F2902D0162902D02DE268732BE2387B40F0010016E205B0BDE8C8
:20313000F04F002013F0B8B898F81600810707D410F0110F08BF0F2000F009821A2252E0A5
:203150002078617800EB01202882E178A07800EB012068826179207900EB0120A882E179CE
:20317000A07900EB0120E882207A2876A17A607A00EB01206883217BE07A00EB0120A8835F
:20319000A17B607B00EB0120E883217CE07B00EB01202884A17C607C00EB01206884217D72
:2031B000E07C00EB0120A884A17D607D00EB0120E8840BF5AA700490688B0390287E02908C
:2031D000BBF808000190E88A0090AB8A6A8A298A58460DF089FB68B198F81600410701D4BA
:2031F0000F2152E01E22584605B0BDE8F04F0F2111F050BA688A0BF186018880A88AC880B4
:20321000E88A088102208BF8860000204880BBF83400C01DA9F81E008888BBF8321088423E
:2032300001BF0BF18600C188BBF83400814206D10BF186000189BBF8360081421DD099F83C
:203250001000012804BF99F811100F2907D099F8150020B10F2189F81A10FE2156E0FC21DD
:2032700058460EF0CDF8E88A0090AB8A6A8A298A9BF8060014F0D0F878E1102146E098F85A
:20329000170010F0090F03D116218AF80C1060E16078217800F00700014021702078797B3F
:2032B0000140F97211D0481E01420CD0490704D5B87B10B10421F97205E0F97A0220014282
:2032D0001AD14008FBD1F87A08B9B97AF972F87A042803D158460FF0CCFDB083F87A14F08D
:2032F00097F83871B28BB97B012310F04FFA0146308B884202D207E0F872E4E7B28BB97B7B
:203310003879012310F042FA78801721584605B0BDE8F04F0EF074B860782178814207D1EF
:2033300000F007000840207033D0421E10420FD01E221821584611F0ADF99BF80610002390
:2033500000221E200BF05AF8387B40F04000FCE0F87247F6FF72A078E17800EB0120388163
:203370003989BBF80800091A89B2914206DB28218AF80B1001208AF80A00F7E00120B871FA
:20339000F87A042803D158460FF073FDB083F87A0BE099F81100162806D1BA7A9BF806107A
:2033B000134600200BF02AF8B87A3871B28BB97B3879012310F0EAF90146308B884205D3BF
:2033D000B28BB97B3879012310F0E0F978800121387B40F0400038732970C7E02078617825
:2033F00000EB01207082E178A07800EB0120F0826179207900EB01203082E179A07900EB41
:203410000120B082B18AF089884288BF0846B97A042905D140F691229042B8BF4FF4296002
:20343000F28BF0839042B87A14BF01240024042803D158460FF01DFD04E0B089F18A884253
:2034500088BF0846B28BB083904214BF012100210C433089718A328B884288BF084690427E
:2034700014BF012100210C433083B28BB97B3879012310F08BF90146308B884205D3B28B79
:20349000B97B3879012310F081F978807189308A728B814288BF0146718391429BF806300F
:2034B00014BF0120002004438A4234490A6802EB4311728B8041121DC00F0A7610B158460A
:2034D00011F03CFB9DF80000142810D144B1F08B0090738BB28B318B9BF8060013F094FFCC
:2034F000584605B0BDE8F04F15210CF0A9BC1CB1387840F008003870397841F020013970E5
:2035100034E020780E280ED00F2809D0122804D014280CD0162812D028E00020287225E0BE
:203530000120287322E0032088F815001EE0387840F00200387040F01000387016E0387BEC
:2035500040F00200387340F0100038730EE08AF80C0058460FF038F840B905B0BDE8F04FB8
:20357000074800784FF4804109F0B4BE05B0BDE8F08F00BFB0280020524F00201C2900204F
:203590006E4F00202DE9F04FD04C04F118012046ADF1440D0FF08EFAD54D00264FF6FF70E7
:2035B0000123667032462082294604F1A4000FF003FF0223324604F1C80029460FF0FCFE1C
:2035D0000423324604F1EC0029460FF0F5FE4FF0040A04F1440810224046314684F802A01F
:2035F0000CF0ABFF04F154091022484631460CF0A4FF04F11C073E6004F10A052E70E6713E
:20361000267207206072CDF80080DFF81883022210200346414606F03DF910200322414626
:20363000CDF80090034606F035F91020524641460097134606F02EF94FF0080B4FF00309BF
:2036500005F12A000C9005F179000D9005F11E000E9005F15A000F902435109517E0607824
:20367000A28FE18FB4F84050B4F8423006280ED1ADF81A20ADF81C10ADF81E50C048ADF8C2
:20369000203013F090FB012006A90CF087FAA069BA4A31464FF0FF3313F0DEFE071CF6D032
:2036B00002960DF122000DF12E0102AA11F04AFB002840F0CB81BDF822102078102940F097
:2036D000C1819DF82E10884240F0BC81029D29884FF6FF728A4200F0AA812B78A23B00F031
:2036F0008D812E3B40F0AE81A978B046002900F04981891E00F01881491E012940F2E8808F
:20371000891E00F0A880491E7BD0491E5CD0083900F06481891E40F0678194F83A30A8889A
:20373000052BADF80C0047D001208DF81600944813F039FB94F83A0001281ED004281CD0BD
:2037500003280DD002280BD00298C188ADF80E100189ADF810104189ADF81210818927E0B5
:20377000A08FE58FADF80E00B4F84030ADF81050B4F84210ADF812301AE0A08FE988884279
:20379000D8BF081CADF80E002989E08F8842D8BF081CADF810006989B4F840008842D8BF11
:2037B000081CADF81200A989B4F84200884200DC0846ADF8140001E08DF81660AF4910204D
:2037D00003AA06F067F80FE1AD4813F0ECFA6B78002B40F00981E88860822889A08268892B
:2037F000E082674813F0A6F8002840F0FD80656A002D00F0F9802B68608AA18AE28A9847DA
:20381000F2E0AA88B549102006F044F80C98414606220CF092FE6682A682E682A879207329
:20383000574813F0C0FA964813F0BDFA4FF001084FF6FF702379208253B9A879082812BF1C
:2038500084F801A005206070404613F0A3F8CBE084F80190C8E06B787BBB291D0C980A684D
:203870000260898881800623637068892082E8896082288AA082688AE082E878E07294F87C
:203890003A00012818BF02280BD19A4910201F2206F000F84FF47A7180B24143384810F032
:2038B00051FE688900909249CDF804A0EA7810202D1D2B4605F0EEFF99E06878312840F0D3
:2038D0008A80E67084F801A091E0C046F80900206B78002B7FD1A878E3896178032815D0F0
:2038F000E078257933B9012814BF2671E67008E0A5690100054304D07F48194610F022FE94
:2039100061780729DED10620607070E0062907D0E578002D08BF84F8019068D00220F3E701
:203930000720F1E7916001006B78002B53D1EB78617893B902291DD007291BD0062902D197
:203950002079012816D1032914D06B4812F0F2FF80B9012013F01EF80CE011F0D3FC024681
:20397000A079624900900D9843460190102005F091FF68706D78002D2DD135E007000080EB
:20399000C00A00206B7833BB5C485749009002221020034605F07EFF59484A46524900901D
:2039B0001020034605F076FFED1C0E9829680160A988012381802078637011F0A3FC0246CA
:2039D00001230F9D6079494900901020019505F061FFC0B258B184F801B008E0AA884149A5
:2039F0001020052305F056FFB8F1010F2AD1256A45B32D6835B36078A84723E06879132877
:203A100020D12889012808D1607B022805D11C4813F0C9F911F0C8F914E036491020052262
:203A300005F038FF81B2164810F08CFD0AE06888C00B07D3334852462B4900901346102011
:203A500005F028FF029808B113F05AF92579E078790830D355EA00032DD0204600788DB9B4
:203A7000E179257A8DF82410109A8DF8255013680DF126052B609288AA8005E0051601105C
:203A9000E40A00208DF82490617A8DF82C10A17A8DF82D1011F036FC1149024609AB10209D
:203AB00005F0F8FE38B1256A84F801B01DB12D680DB15846A847B80803D3134930460CF054
:203AD0006DF8F808FFF4E3AD607B401E3FF4C7AD401E7FF4DCAD11F067F9D8E5312601003E
:203AF00059440110C1170110BDC0000009450110C5BD0000F58401109C0A00203C0A00200B
:203B10004C0A0020140A0020320A00202DE9F84F012011F061F801280ED1DFF8F8743968C1
:203B30000020487138680FF053FE04F069FC040003D1812013F064FC68E201206071DFF864
:203B5000D854DFF8D8044178491C41703968A07981F8A00040200CF079FB206028790128BA
:203B70001CBF002012F098FBE8682168DFF8B05400F5B060C860286801680A79032A1CBF40
:203B9000002012F089FB2868DFF898840168DFF898B401F10809062299F80000C0F3801061
:203BB00084F82E0109F1020104F5947012F0D4FC042209F10E0104F1240012F0CDFCD8F89B
:203BD0000000A67900F10C03042209F10E0103EB461012F0C1FCD8F80000A37900EB43105A
:203BF000032209F11201103012F0B6FC04F12C0699F81500B070022209F1160104F1300048
:203C100012F0AAFC022209F1180104F1320012F0A3FC022209F11A0104F1340012F09CFCF1
:203C300030896084022209F11C0104F1360012F093FCB078F18872894000B0704900B08863
:203C500040001201B080F180728189B2638C5B1C4800434392B2934200D231B99BF8000096
:203C7000802109F037FB3B21FEE004F12E01204612F0DCF80520A081204612F0B9FA052246
:203C900009F11E0104F1610012F066FC99F823004009307013F0B0FB60823A68E34F518A65
:203CB000401A04F59771888104F1610199F82300DFF87C9300F01F00F07320460FF0D7FEF3
:203CD00029680A68002010711C25A1793868694341F6210242520022A17969430144001D51
:203CF0004A80A1796943425099F80200410609D5D049088841F20A4290420CBFCE48CF48E8
:203D1000C4F89C012046D4F89C1188473968A37901F10E026B43D054A17938686943084449
:203D30000021C173C648017881B1B08870B9002171730120208160812046D4F89C118847AE
:203D50003968A37901F10E026B43D0543868A27900F10E016A43885C707394F8960108B9AF
:203D700012F09AFAA1793868DFF8D8A26943084494F896114A1E02740023A1793868694300
:203D9000084400214174A279396801F112006A4301F1140C8352A279D8F8000000EB421372
:203DB0006A434CF80230A2796A431144A64A8A61DAF814100B78DA074CBF4FF0100C4FF0D9
:203DD000000C99074CBF202100215A074CBF402200221B0700F10803A07941EA0C014CBF50
:203DF0004FF0800E4FF0000E0A4340014EEA020242F00F021A54D8F80000A17900EB4110F8
:203E10000B224272D8F80010A07901EB401104228A728E4A1378D8F80000A179012B00EBF5
:203E3000411002D10121C17203E0DAF828104A78C272D8F80000A17900EB41101F22027637
:203E5000D8F80010A07901EB401100224A76A07909F02EFEA279D8F8001052018850A279BB
:203E70005301C85820B90721204611F00BFFCDE07748016801EB021013F0BAFA744AA079EB
:203E90001368D8F8001003EB00130A1D40011350081DA27952018058F063A0794001095872
:203EB000716404219BF8000009F014FA644BB2881978901C11B10AB9F088801C618A94F828
:203ED00006B041434FF4C87205FB0BFBB1FBF2F1491CA061616140F6C41C23683A68CDF856
:203EF00000B002F1080ED3F80CB00CFB00B0411A0098A1F5A8614EF8001002F10800A179BE
:203F100069434058986002F10C01A07968430C32095C01F0EF011154A0793968684301F151
:203F30000C020C31125C02F07F020A54A0793968684301F10C020C31125C02F0F00242F0C1
:203F500002020A54A179386869430844417B01F0F00141F0010141733868A27900F1080103
:203F70006A438858216808616369D8F80000A17996F802E05B0000F1140249010CFB0E3398
:203F900003F5F6635350A17900EB4110C27C02F0F00242F00402C274D8F80010A079DAF86C
:203FB000303001EB4012F0880CFB00F61868301AA0F51670D061A27901EB4210C17E01F03F
:203FD000F00141F00401C176A17938684D4321684019486099F80100810614D504F597719C
:203FF000488F1B2804BF888F1B2808D1C88FB0F5A47F04BFB4F86E11B1F5A47F03D01421C3
:2040100020460DF0FDF9134907200870BDE8F14F01F008BB104F0020B44D0020684E00202D
:20403000F44B00201C2900206E4F002018290020B0280020504F00205F210100212A0100EA
:20405000784E0020BC8501005C4D0020734F00208C4E00206F4F00202DE9F843040014D16B
:20407000002012F019F910E020460EF0ADFA012808D065E08A0740F1548101F0FD010170C4
:204090000020B07120460EF06BF904F16605687D002855D0697CDFF8A494022904F1EC076E
:2040B00004F59E7804F5B07604F5C67035D0042949D005295CD0062900F08A800729D3D0F2
:2040D000092900F0EC800B2900F0C1800C2900F008810D2900F0D0800E2900F0EA800F29F0
:2040F00000F02881102900F04281112900F05C81122900F00E81142900F08781162900F006
:204110005A81172900F07581FC2919D0FD2900F09581FE2900F09B81A2E7297C012909D1EF
:2041300099F80300002815D01621204611F0AAFD012006E020460DF0B2FD2874E88A2883B7
:204150000020BDE8F283297C012940F0948199F80200002800F0E580FC21204610F07EFAF6
:20417000A07904F1B80204F1B00113F03DF98CE7297C01290FD199F8020020B184F89410E2
:20419000002038607860B87A012868D10621204610F064FA79E704F1E7063078012809D113
:2041B000204610F023F90128CAD10020B87201202874C5E770780028C2D004F1C70204F1A1
:2041D000A00104F1D70013F00BF9012030705CE7297C012940F0538199F8020000283ED0BB
:2041F000618CE18320460EF0BBF80120287020460FF0FBFB0120A871397A787C012900F038
:2042100010000FD148B1002088F80500D8F8001098F8060049080DF0F7F9A079002113F00F
:20423000DBF80EE040B1D8F80020C54804F5A1735208214612F0DEFCA0790122002113F0B5
:20425000C7F8002038723873F872B8721DE7287C012805D1F97A012908BFFC2197D060E0B7
:2042700020460DF001F90128A3D10020F87284F894000120287408E7297C012940F003816B
:2042900099F80200002809D0002184F894100120287020460FF0A9FB0120A87188E0297C30
:2042B000012940F0F48099F80200D0B3618CE183E8E6287C012840F0EE80387C022804F1AD
:2042D000FD0204D1A179002013F07EF8DAE6032840F0EA80A1791A2013F076F80020387431
:2042F000D0E6287C012804F20D1140F0E8800B78012B04F5897240F0E8804878012807D183
:204310005388009300201388CA78A17913F058F8B8E6297C012940F0E78099F802000028F6
:20433000F6D1298B481E288380B200287FF408AF2221FAE6287C012840F0DA8098F809103A
:20435000012902D130780F281BE098F80800012826D1002188F80810288D000900901A207D
:20437000AA8CEB8CA179520813F026F88AE6287C012840F0C18098F80910012910D13078E1
:2043900010281CBF002011F087FF002088F80900288D00090090AA8CEB8CA1797078E2E7E4
:2043B000287F0028E2D1BCE7297C012940F0A88099F80300F5E7297C012940F0A580017B91
:2043D0004A061DD4CA0709D501F0FE0101730023A179707800220AF011F853E68A0740F134
:2043F000988001F0FD0101730023A17900221A20F1E7297C012940F09980027B510690D570
:20441000017B01F0BF0101733CE6297C012940F08F8001788A067FF52DAE01F0DF010A0781
:2044300001700AD501F0F7010170F08B0090738BB28B318BA07912F0E7FF21E6A97E20462B
:2044500010F00CF915E7002011F026FF78E6A87E0F28F8D1FC21204610F000F9B8F8120043
:204470000090B8F81030B8F80E20B8F80C10A07912F0D2FF64E620460AF00EFE5DE62046B7
:204490000EF076F959E620460FF0B2FC55E620460DF0B4FA51E620460CF0A2FD2874E88ABB
:2044B0002883012038744BE6288B401E288380B20028F8D1A179222012F086FF38E7012041
:2044D000887020460CF0D6F937E6288B401E288380B20028E7D15088009022201388CA7831
:2044F000A17912F06DFF23E720460EF0FBFB24E6204609F0D3FF20E620460AF01FF81CE606
:2045100020460DF06DFB18E61621204609F030FD13E6288B401E288380B20028C3D1A17942
:2045300000230022222009F069FF01E71721ECE7142120460BF084FCFFE500BF5C4D00200E
:20455000110801002DE9F84FDFF82844A178FF2904BF002011F0A0FEA07812F021F9044650
:2045700004F1680604F5C9753168086804F1900710B10022E28310E0B17B002904BFB07E7E
:2045900000280AD13978002904BF2878002804D1217F012904BF608CE0832189E08B411884
:2045B000491C6181204611F061FC01281EBFDFF8C8030178012904D120890022401CE28334
:2045D0006081B07E01280CD1B28B6189208912F0EFFE30B121896289481C82422AD0B28B22
:2045F0001FE0387801280CD17A886189208912F0DFFE30B121896289481C82421AD07A88F8
:204610000FE02878012815D16A886189208912F0CFFE00281FBF2189481C6289824209D0FC
:204630006A88824206D0501E608180B212F0BCFE401EE0832878012801BF69882089401C61
:20465000814207D16A792A71002028701346A17909F0D4FE04F59A71087920B1208900211B
:20467000401CE183608104F12E07B07E012801BFB08B2189491C884238D1608104F18601CE
:20469000204611F0D3FBB08C6189608400202077E083E0894118A181B08B218912F084FE64
:2046B0008046B988308C728C01FB0808F08C8A4204BF3989884202BFB18CFB88994207D053
:2046D00000090090B38CA1795208002012F074FEB07F3870708CB880B08CF880F08C3881F6
:2046F000204611F085FD0220B07601E0B7F80480E28BDFF88892501C00FB08F140F6C41895
:2047100008FB01F000902368D3F80CC06044DFF870C2D860DCF800E09A489EF800A00388A7
:204730004FEA9A1ABAF1030F13D199F80FC05FEACC7E48BF00230CD45B1C9BB2012B11BF1E
:20475000B4F812C004F59A7CBCF806C00CF2DC5C01E0B4F812C00CFB01FC4FF4C87EBCFB69
:20477000FEFCDFF824A20CF1010CC4F814C0038084F820204FF01C0BA379A1610BFB03F339
:20479000DAF80010226801F1080001F1080CC058D3681061A0790BFB00FE60691B1A4CF87A
:2047B0000E3001F10800A3790BFB03F3C058906001F10C02A0790BFB00F00C31125C02F0E5
:2047D000F00242F002020A54DAF80000A279811C0BFB02F200208852287908B911F05CFD09
:2047F000DAF80000A27900F1100128790BFB02F240088854A079DAF800100BFB00F00844BE
:20481000002141742879042814D1A079DAF800100BFB00F001F110022B7A125C103142EA8B
:2048300083020A54A179DAF800000BFB01F1084420214174DAF80000A27900F112010BFB68
:2048500002F200238B525149A2790968520101F11403D4F814C09B5801F1140E03EB4C03EE
:204870004EF80230B27E022A0AD1A279520101F114033E789B5808FB063301F11406B3500E
:2048900099F80F20D30749D5A2790BFB02F200F1080300F108069B58A3F5A863B35008306F
:2048B000A27923680BFB02F282589A600098121A1A6101F11402A079400101F11403125860
:2048D00002F5F6621A502879042807D1A079400101F11402125802F5B0621A5001F1140025
:2048F000A27952018058C4F8340101F11C03284AB888166BA57908FB00F730686D01381ABD
:20491000A0F516705851A37901EB431021490D78012D0EBF0122916A4A7819E02879A379E8
:2049300004280CBF4FF44B604FF4E66001F114025B01D258101ABA8808FB02F2A2F51672E9
:204950009042D2D30821204611F09CF901200FE0C272A179DAF800000F4A0BFB01F10844DE
:20497000216848600720107020460FF020FB0020BDE8F28F684E0020784F00205C4D002003
:20499000084F002040290020182900201C290020BC850100734F00206F4F00202DE9F04FEA
:2049B00009AFADF13C0D08900A92388809911E46ADF81800101C08BF002000F0848100276A
:2049D00000F101094FF0FF3A4FF0010BB8466CE1252940F063811078521C0A922D2818BF9E
:2049F000ADF8068005D15846551CADF8060010780A9530281CBF4246434605D10A99087888
:204A10005A465B46491C0A912A28CDF80080554616D1306804930A99CDF808A0C01C4B1CAA
:204A300020F00300001D306050F8044C0A93002C0878009418D5ADF806B06442009413E0BC
:204A500044460AE0610001EBC40140180A99A0F1300408780094491C0A91302801DB3A2856
:204A7000F0DBCDF808A004932E282BD10A9908782A2801F101010A9111D13068CDF808803A
:204A9000C01C20F00300001D306050F8045C002D48BF454608782B46491C0A9111E0454696
:204AB00043460AE0690001EBC50140180A99A0F1300508782B46491C0A91302801DB3A2810
:204AD000F0DB02930AB1224604926C2804D04C2818BFADF8048005D10A990878ADF804B07F
:204AF000491C0A910BA9CDF80C800FAB07916428059300F08B80692800F08880BDF818C01A
:204B1000752872D078286ED06F286AD0702850D063283DD073281ED009980A990128A1F11F
:204B300001010A9115D96B490C68B5F1FF3F03D0A84288BF6D1C00D8099D029508A80AA9C9
:204B500032466B46A047C7190A99039801F1010974E040462AE030680A99C01C20F003000D
:204B7000001D306050F8040CBCF1000F01F10109014608B955A00146079111F039FE0390C1
:204B9000B5F1FF3F5BD0A842C4BF281C039056E03068C01C20F00300001D306010F8040C30
:204BB0005D468DF82C000A990395584601F1010945E0082035680490E81C20F00300001D0A
:204BD000306050F8041C082210230FA80CF08CF8401E0790402101700A99079801F1010934
:204BF00029E0082302E0102300E00A230A99306801F10109C01C20F00300001D306050F834
:204C1000041CAA42BCBF2A1C049210E00A99306801F10109C01C20F00300001D306050F816
:204C3000041CAA42BCBF2A1C04926FF009030FA80CF05AF80790059D281A0390009C241AA9
:204C5000BDF8065000945DB906E008A8202109AA10F039FD009C7F1C641E0094F5D503981D
:204C70000546401E039075B9BDF80600E8B10098401E009019D408A8202109AA10F023FD2F
:204C900000987F1CF4E70798411C0791017809AA08A810F018FD03987F1CE1E708A809AA10
:204CB00010F011FD7F1C09F101094A460A9812F8011C401C00290A907FF48AAE089808B1BB
:204CD0004146017038460FB0BDE8F08F286E756C6C2900C09C8501002DE9FE43BF4C0F46C6
:204CF0000646F80B80F05081B80880F03D81E07ADFF8F492B90F80F0B680607A002840F0CF
:204D100096803809C0F09580A07A20B10020A07205200FF0DFFE00254FF001086570284699
:204D300084F8078006F0F5F8AD4904F174002A4612F019F8207901281AD16079C0B9DFF8C5
:204D5000A482D8F8000000284CD048460068006B804761694346401A000BA0611968E2695C
:204D70008018B0EBC11F98BFE0613BD9E56101E084F80480DFF87482A8F115000068000A50
:204D900030D340F60900A08694F8410000F0F00040F0010084F84100E58694F8400000F0D9
:204DB000F00084F84000A56311F0D7FF08F6FF7211686FF0020321F00201116004F134015D
:204DD000C8F8FB3F8A4AC8F8EB1F11688908FCD3C8F8FB3FD8F8FF1F41F00201C8F8FF1F58
:204DF00012F03EFB65610FF03FF98248056002200FF070FE112008F0CDFA307C10B90E201A
:204E100008F0C8FAE5712572A07818B906F1380011F0B7FF784811F05DFE78490878F8B106
:204E30000D7004F1D000042111F0B3FF18E0380914D2B80BC0F0C98004F1240011F09DFFB7
:204E5000061C08D0706830B17568F068B6F91C1000222023A84727F40057B6E00020607231
:204E700027F00807B1E020B104200FF033FE0020E072B168088840F602054FF000088542E0
:204E90000AD0B0F5C15F07D00A8B4FF61F60104040F43470088306E00A8A4FF61F601040F2
:204EB00040F4347008826069E0B1D9F85400016804208847B0B1D9F80000006B8047616977
:204ED000814226BF401A401E401A000BF060708AF168401840F6C411F06081422CBFB0F554
:204EF000FA7FF16094F8410010F00F0F0BD1708CED1D854207D1B56930466FF480714246FC
:204F10004FF00073A8473E4904F17400424611F02AFF607958B10220ADF80000684610F0E7
:204F3000FBFB84F80580BDF80800A4F8700001206070E078401CE07004F1200084F8068095
:204F500011F01BFF002808BF47F0020702D0192011F007FF7569414630464FF080630A4698
:204F7000A84727F0005730E004F12C05284611F004FF07F017F9284611F0FFFE27F0020789
:204F900008B147F0020720E011F0E7FE014604F1280011F0F2FE0646B569A80810D27EB1A2
:204FB00025EA0500B061084612F05AFA706850B12A46F068B6F91C1075680023A84702E0CB
:204FD000084612F04DFA27F4804727B104F1D000394611F0DEFEBDE8FE83C046380D0020BE
:204FF000355B0100102900208C010010150004401010044000000460A5C300000C2900203C
:20501000A5BA0000BB482DE9F84F0025BA4CB849056094F8E200002800F06581012800F0AB
:205030002F81B64E02283CD0032840F05C8151F8250CD4F8B8100029A0F5C060C4F8D400C2
:20505000B8BF49420028B8BF4042814226DA4FF08057D7F8A4014568B4F8BC0030214FF427
:205070007F42082300903046A847D7F8A4014568B4F8C00004214FF4F80212230090304615
:20509000A847D7F8A401B4F8D070456820214FF440620A2330460097A847012584F8D850EB
:2050B0001CE151F8258C11F027FD2F4600B901273946934F38680028FCD0B146012609F161
:2050D0000409D9F82CA03E6009B111F01BFDCAF30720C4F8BC0011F00FFDAA4600B9B2469B
:2050F0003B68002BFCD0D9F800B0BAF1000F3E6001D011F007FDCBF38440C4F8C00011F058
:20511000FBFCAA4600B9B2463B68002BFCD0D9F81C90BAF1000F3E6001D011F0F3FCC9F3FB
:205130008120C4F8D000B8F5C061C4F8B81000F09C8094F8D80068B9C4F8D410D4F8C00023
:20515000C4F8C800D4F8BC70C4F8C470D4F8D030C4F8CC30D4F8D410D4F8BC30002954BFAB
:2051700002206FF0010004F1C802176801EB41014018411000EB917107EBA1001060D4F8CC
:20519000C810C4F8C43000291CDD1E293CDDD4F8CC0030B93429B4BF15391E21C4F8C81083
:2051B00025E02A29BABFD4F8C8000B381E20C4F8C800D4F8C4003F28B4BF401C3F20C4F894
:2051D000C4001FE0D4F8CC00032812D011F10B0FC6BFD4F8C8000B30301CC4F8C800D4F84B
:2051F000C4000028C4BF401E051CC4F8C450032508E011F1150FC6BFD4F8C8001530301C01
:20521000C4F8C800C4F8CC504FF08057D7F8A401B4F8C43030214FF47F42456837480093E4
:205230000823A847D7F8A40104214FF400321123456832480096A847B4F8C860D7F8A4010E
:2052500004214FF4F802122345682C480096A847D7F8A40120214FF440620A23B4F8CC6062
:20527000456826480096A84701E084F8D85040F2FF50404502D8801C40452FD2082030E0BF
:2052900051F8251C1F4F4BF2F5204843060A3868C0F3814001280CD11B4800680068804705
:2052B0000EF0C4FE11F034FC3111C010484306EBE03694F8E50030B91448006820F07F405C
:2052D0008019460801E084F8E5501148310C0660012741600F4D8760287808B90B2000E0D1
:2052F000052084F8E40004F067FCBDE8F88FC0462D400C402C500C400C16002000A00C40E1
:2053100000800C40B43F0050EC010010102009403C600C40AA8401002DE9F04F0D46E8074A
:2053300089B00BD511F016FB28B100218160AE48006800B1804785F0010052E1A80710D544
:20535000002006900021049000230290009005910393019101223C2012F022F885F00200BD
:205370003FE11E246807DFF88482A14F40F19B800020079082469F498878FF2804BF0020C2
:2053900010F08AFF386890F8A00011F009FA06463868C07A96F82EB1022818BF032806F5EE
:2053B000947906D108F10D0011F0F6FF08B908F1070A4946584611F0EBFF88B33868807A45
:2053D000002818BF012804D1414648460FF0E1FE04E04A46594640460CF0B0F9FF283DD05B
:2053F0006043834608EB0B0406224946E01D11F0B3F818F80B0040F0020BE01D07900622BB
:205410003868817E01F0010186F82E1104F10109386800F1140106F5947011F09DF81DE0F6
:205430004946584611F05CF9C0B14A46594640460CF084F9FF2811D04443444404F10D0021
:2054500011F0AAFF40B904F10D0011F0A5FF002804BF607F012801D14BF0020B06F12C00C2
:205470005B4601780691418909090591728C079904920122C088029140080390CDF804A083
:20549000CDF800900020B17911F08AFFD6F89C0159498842B0790CBF002101210AF06EFA63
:2054B00085F004009DE0280610D50020069000210490002302900090059103930191012242
:2054D0003B2011F06DFF85F080008AE0E8043CD508F1070108F10D0011F056FF38684179E1
:2054F000012923D1017A012918BF04291ED1C17A022918BF032919D1817E00F11402404607
:205510000CF01CF9FF2811D04443444404F10D0011F042FF50B9E11D04F10D0011F034FFD2
:2055300038680622E11D143011F016F8334934484A6800784FF480510EF0B0F910B18E20F6
:2055500011F01EFF85F480504BE0A80505D511F0D3FA2C4901200860FEE7690504D506F034
:20557000A4FB85F480603CE0680405D5812011F007FF85F4804034E0A80431D5224C206824
:2055900010B1002010F088FE4FF0FF3020600CF0F7FA1E4C216851F8202F684690471C4845
:2055B000C16A026B2468009101920021029100F134014A6809781368806A03938DF81010E6
:2055D000ADF812006B46D4F80080124A12491348C0471349086003F0BFFF85F4005000E0D0
:2055F000002009B0BDE8F08F204F0020401E0020104F0020684E00205F210100784E0020D5
:205610006E4F0020FC002043044F0020F04E0020881A002034280020A41C0020884900205E
:20563000EC4E00202DE9F04FB64D686885B0019020B905B0BDE8F04F11F09EBE0178DFF8F3
:20565000C882B24EDFF8C892DFF8C8A201291CBF0229042946F2A81741F64C5B05D040290E
:2056700018BF802900F09A8043E111F075FA0028FAD00198007805F013FE0090446814B9EA
:20569000002010F009FE9AF80100002860D002F0C3F911F085F802900168009801914F68E0
:2056B0000BF0D4FC022827D000990A78012ADBD1994B19680A7A19F80230337018B911F05B
:2056D00057FE5844A0602069C17E01F0EF01C1762069C17E41F08001C1762069C17E01F07F
:2056F000F00141F00201C1768C48B96841182069C16101210098A0E001980178802913D16C
:205710000822874832700178012903D09AF80100012803DD78690121C17213E0D8F828109B
:205730007A690878D0720DE07D49072030700A787869012A02D10123C37203E0D8F8281095
:205750004A78C2720298817901988AF80210CBE00098002888D00199009A0078914205D16A
:2057700001281CBF002010F097FD15E0012840F0C080694801680A7A19F80200307011F081
:20579000F7FD3918A06811F0EFFD18B911F0F0FD5844A0600120A8700098A5E09AF801007B
:2057B00000287DD002F038F910F0FAFF04462068029047689AF8020010F0F2FF039011F01C
:2057D000D1F910F0070F3DD0A87805F069FD019041680198009102990BF038FC022831D0F8
:2057F00001990A78012A2AD14B4B19680A7A19F80230337028B911F0BBFD83440098C0F825
:2058100008B000990869C17E01F0EF01C17600980069C17E41F08001C17600980069C17EF6
:2058300001F0F00141F00201C176009AB9683B4841181069C16101210198A97054E00020B1
:2058500010F02AFD0398A04228D002980178802913D10822324832700178012903D09AF8AE
:205870000100012803DD78690121C17213E0D8F828107A690878D0720DE029490720307012
:205890000A787869012A02D10123C37203E0D8F828104A78C272A0798AF80200029823E023
:2058B00011F060F910F0070F29D0A87805F0F8FC04462078D4F80480012820D116490A6849
:2058D000107A19F80010317011F052FD3918D8F8080011F049FD20B911F04AFD5844C8F82F
:2058F00008000120A870204605B0BDE8F04F07F027BA05B0BDE8F04F002010F0CDBC05B089
:20591000BDE8F08FE4280020BC8501006F4F0020289A0110684E0020104F0020F0D8FFFF19
:20593000734F00202DE9FE4F0F46994C0168E16241688068A0609748616080479648E16A0B
:2059500001606168DFF870B24160A168DFF8648281609249002FA246C16069D03D68E8787B
:205970008DF8080028798DF8090002A811F0F8FCA86808B18A490160E86808B18949016083
:20599000894C2878207068786070A878BE68A0703178E1707368636072696261B168A1609C
:2059B000F168E160316921612E697B68A6621868A0616869E062A8692063287F84F8340020
:2059D0002A6AA263786886681EB9002010F064FC00E026627868C06818B9002010F05CFC40
:2059F00000E060627868406818B9002010F054FC00E0E0612869A062F86881680E6806B9FA
:205A10006B4E6A494FF001094E60C66881F801902EB9002010F040FCF868454601E0454641
:205A30002E6000685C46FE68A0617068E06106E0002010F031FC4FF001095C464546286805
:205A50005E494668621C04F114035020B04710B1286880688047DAF804008047594F002685
:205A7000834669467E7056483E700422206130460FF0B2F90098B0F5801F0CD020B90FF00D
:205A900075FD05F0EDFE08E00EF012FA10F0BAFE0420788001E00FF069FD4B4FB046286878
:205AB000C7F808808069A660804778604748468080F80090142010F075FFFF211422A062A4
:205AD00011F077F9E01CFF21022211F072F9142010F068FF3E49086008681422314611F0F1
:205AF00068F93046FAF766FF48460FF0A9F839480188FF2906D1022101807822001D314660
:205B100011F057F9032011F027FC042011F020FC052011F019FC062011F012FC07200CF009
:205B300031FA2D4E0820307006F1400011F004FC0CF0F2FC363605200A21324610F0A0FAF7
:205B500038B14046C0F10901401C06F8011B0A28F8DB2F68214909200DF10A0201AB7D68CB
:205B7000087010204146A847A06AE2690A270A309DF80A1000F8011BDAF808107F1EF7D125
:205B9000921E5846E261884702F0D2FFBDE8FE8F0C18002041490010F84400208074010071
:205BB0004954010079640100881A0020641D0020CBE70000101E0020C01B00207D5B010022
:205BD000396501000C1E0020D8280020F40900203429002038190020781300204D29002060
:205BF0002DE9F04F0546A64CA878216AADF11C0D801F00F03E81C01E00F02981401E78D025
:205C1000401E56D0C01E4AD0401E40F03581207A617A00283FD1607800283BD0A88811F0CB
:205C300087FB071C00F02881A87A40080AD3787940B1E968890A05D2B91D01AA08F0EAFAD5
:205C50000A2825D0207B022802D1A87A00091FD36078AE887979C0B1607CB0B901206074AD
:205C700005F10802304603F04BFD002840F00481206A002800F000814368002B00F0FC8021
:205C9000002130460A469847F6E00521304603E0032100E00521A88811F046FBECE0002948
:205CB00000F0EA804B68002B00F0E6806A780221CBE010F057FE002800F0DE80276A0FB17A
:205CD000386868B9286900280CBFE0690120698911F026FB002800F0CF8068890121DBE7B5
:205CF000286900903C6869892A7B6B7BE81CA047C2E068784FF00008002840F09580A87910
:205D10004008C0F09180606A002840F08D8001A841460E2211F04DF8A88811F009FB061C3E
:205D300000F0AA806869002859D081464146062209F1110010F037FBC24620B348460622D3
:205D500010F031FBD8B999F8100009F1110B474605907F1C5846FFB28BF800700FF01CFCA9
:205D70000A280BDA474B059A0101A1EB400158188079824202D1002FEBD100E01FB94746CC
:205D90004FF0010A6F61BAF1000F09D109F1110101A8062210F0E0FB99F810008DF80A005D
:205DB000BAF1010F1BD06F69CFB1387C07F1110106228DF80A0001A810F0CEFB06F10C00EB
:205DD000B11D062210F0C8FBB01D07F11101062210F0C2FB387C40F00200707107E07079A7
:205DF000B11D06228DF80A0001A810F0B5FBA9799DF81120C1F3800010438DF8110008099F
:205E100005D39DF8110040F008008DF8110001A8294602F0DDFB28B92078022107F05AFA5D
:205E300040462AE04FF0150810F0CCFE206A18B343680BB3A8886A7801219847B8F1000F13
:205E50001AD0206A032142464368A8881BE7E878291D002208F0DEF90A280DDA410001EB58
:205E7000800005F10C0225300421C0B206F01EF902E0A8880CF0D4FB012007B0BDE8F08FBC
:205E9000781300206A1400207CB5A34D144602460026A2F58062192A1BD8DFE812F0310116
:205EB0002A012201190111010C010401FD00F300E700DF00D700C500B9001A001A00970070
:205ED00081007A0065005C00520047003A0030002500282880F29A80022940F097802188D7
:205EF00011F01AFA064614E1012940F011812178284601750121C17410F05CFC09E1012910
:205F100040F00681002C00F0038128461230024614E0102940F0FC80002C00F0F980284646
:205F30005C301022214610F017FBF2E0012940F0EF80002C00F0EC802A46921D21781046E9
:205F5000E4E0262940F0E480002C00F0E180284626226C30E6E7012940F0DA80002C00F01E
:205F7000D7802846401D9CE0602900D144B9012940F0CE80002C00F0CB8028460D3090E0F2
:205F900005F192002146602210F0E6FA01206873BFE0012940F0BC80207811F0B9F9B8E08C
:205FB000012940F0B5802178022900F3B180284600F10C0211702178022918BF301C02D1B2
:205FD0001021C172012011F09FF9A2E0072940F09F80611C6846062210F088F92078694677
:205FF000324608F017F904460A2C0FDA11F088F938B9204605F0E8F90FF092FC0CF08CFAEA
:2060100087E0284601212C30015582E0022680E001297DD12A462178907B0028917378D1DC
:206030002078012875D1E9E72846027B01296FD1022A04D02178072901DB102904DD022A39
:2060500066D12178102963D1C17262E001295FD121780A295CDA2846093057E0012957D1F2
:206070002178022954DA284608304FE000294FD111F046F910B910F049FBBDE7284601217F
:206090000F3043E0042943D12168244888423FD328461C3001603CE0012939D12B4603F1AC
:2060B0000A00217832E0012932D1217802292FDA2846C01D2AE010292AD128464C3030E797
:2060D000012925D12178022922DA2846001D1DE001291DD1217804291ADC2846C01C0246E2
:2060F0002DE7012914D12178022911DA2846821C25E702290CD1218828461630018008E0D8
:20611000012905D12178022902DC0548017000E0182630467CBDC046781300203F420F0001
:20613000791300202DE9FC41A0F2013714468846022F40F232819B4E9C493F1F0F2F04D901
:20615000143F4CD0BF1E1CD011E0DFE817F0CF00C9000D01FA00C100B9002601AF00A700A1
:20617000100010009D008F007F0074006600282880F21381B8F1020F40F00F81884923881E
:2061900007E1B8F1010F40F00881F078012800F00481324620781179107189B9002800F01A
:2061B000FC805078012800F0B580042800F0B280062800F0AF80052800F0AC80BDE8FC8137
:2061D0002078002840F0E9805078032800F0AF80072800F0AC80052840F0DF80A7E0B8F10D
:2061F000010F40F0DA802078012840F0D68006F1EC0010F09FFB002840F0CF8034460020F0
:2062100004F13A0109F0CAFC002840F0C68004F1C80010F0C8FDBDE8FC81B8F1020F40F053
:20623000BC8020880A28C0F2B880B0F5486F00F3B4808E1C17E0B8F1020F40F0AE8020886A
:20625000B0F5FA7F80F2A9800E460CE0B8F1020F40F0A38020880628C0F29F80B0F5486F25
:2062700000F39B803E363080BDE8FC81B8F1020F40F0938020880628C0F28F80B0F5486FCA
:2062900000F38B803C36EEE7B8F1010F40F085802078062880F28180454E0EE0B8F1010F48
:2062B0007BD12078042878DA0A3606E0B8F1010F73D12078082870DA09363070BDE8FC8136
:2062D000B8F1010F69D12078042866DA0836F4E7B8F1010F61D1207804285EDCF61DECE7CF
:2062F000B8F1020F59D120880E36BCE7B8F1010F53D13079012850D032462078D178D070B3
:2063100069B9002849D05078012803D0042818BF052842D1012010F03DFBBDE8FC812078F0
:2063300000283AD15078022818BF052835D110780EF0E8FF1C490246102003F0ABFABDE897
:20635000FC8106F1830500211F2228460AF0F5F821464246284608F07FFA44463078B47155
:206370000EF0D0FF002311E006F1640500211F2228460AF0E2F821464246284608F06CFA6D
:206390004446307874710EF0BDFF01230094094901950246102003F07DFABDE8FC81C04672
:2063B000BD840110F809002099450110380A0020320A0020094501102DE9F04F9E4C207877
:2063D0000E46F10BADF11C0DC9036ED1B0085ED2606AA16A720807D2F00828BF86F004061C
:2063F00080F02581002023E1858861B904F11800924A00904FF6FF710223012010F07CFF3D
:206410000146A16221B304A800900027019702230293FF220392228B28460DF1120301F0C4
:20643000F3F958B99DF813009DF81220A16A12EB002204D0498928460DF074FAA16A228B7F
:2064500008463B464FF6FF7110F052FF0146A162206A00291CBF012186F001061FD168B1D7
:206470004368616A5BB18888002201219847206A676A4368B888032100229847616A888811
:2064900010F0A2F90FF0ECFE86F00106CFE00020014602F09DF830B1012186F00206207835
:2064B00006F018FFC3E00221F7E708F017FD5FEA000800F0BA80054628784FF0010AB03877
:2064D00012D0401E03D01F3800F0A580A7E02879002840F0A480B8F80200B8F80610B8F861
:2064F00008200DF01FFA9DE02879401E41D0083803D0743800F0828087E068781A2879D03E
:206510006888814610F058FB801E18D0401E7CD1288901280AD16889032807D1E9688A7834
:20653000484604210CF02EFC024600E01822206A00286AD04368002B67D0042116E029894A
:20655000688852460129814609D16989032906D1E9688F781FB910210CF014FC0246206AA4
:20657000002852D04368002B4FD00521484698474BE02B7A688805F10807082B814639D170
:2065900010F01AFB801E12D0401E33D1287B0A2818BF122205D16889042100220CF0F2FB1D
:2065B0000246206A30B3436823B3042120E07888102100220CF0E6FB237D834693B1484605
:2065D00010F0B6FE70B11E490B784BB94179831D524601F00101084619460FF0BDFE01E0BB
:2065F0005046E074206A28B143681BB105215A4678889847688810F0E7F806E06A8810F07B
:20661000DBFA014610460CF01BFD297905F1080010F01EFF03E04046FFF7E2FA8246BAF179
:20663000000F02D028460FF071FC86F40046B0B207B0BDE8F08FC046781300207C810100E3
:206650005A4F00202DE9FC41884C894A2678894F894D8A490D2E30464FF4A0534CD8DFE876
:2066700016F003010E000E000E000E00FB00FB006800FB00A700A700D800D800DF008049C9
:20669000176041F204464C887E4FB4421CBFB1F81AE0B6450BD0B1F83280B0451CBF41F2AD
:2066B0000A46B44203D0B64518BFB04502D12E80176076E0022C744E2C8035D94FF48067C8
:2066D000E41B1AD0241F012C1DD94FF47F77E41B1BD04FF44067E41B0FD0A41E012C0CD99C
:2066F000241F0AD0641E012C0DD940F2F937E41B012C19D9241F08D0AEE0022814BF2B8007
:20671000624E16604DE0624EFBE762480468257A012D05D141F20240488048834886F0E71E
:206730004B804B834B86ECE700200FF0B5FD832096E059488178FF291ED01C204143574813
:20675000176040F204460068841C645A2C80A41B012C534D10D94FF47F76A41B15D00A3C2D
:20677000012C14D940F6F636A41B032C84BF641F012C0ED9A41E012C76D940F2FD36A41B63
:2067900007D0641E012C02D905E041F20143801C4352156005E000200FF07EFD852010F062
