:20000000004000204D15010001C9011001C9011001C9011001C9011001C9011001C90110FB
:1C00200001C9011001C9011001C9011001C9011001C9011001C901103FC9011089
:20003C0080B54FF4FC720FF278011A480CF004FE012119484174002202210270C17601BD00
:20005C002DE9F0410FF2502214493820136854689568D6681769D2F814C0D2F818E0D2F8F9
:20007C001C800B604C608D60CE600F61C1F814C0C1F818E0C1F81C8020322031401EE5D1DC
:20009C0050689368D46812680A6048608B60CC60BDE8F081480400215903002100C00021D1
:2000BC00410500217D0500212D06002170B51D46004C204787B2000010B5014800470000FD
:2000DC00D509000070B5614C6148254650358047022809D14034E1885E4A914204D1E97C5E
:2000FC00890601D4911DE18070BD70B557495A4A084650300378002B10D08379012B0DD181
:20011C00037C5B09DB0709D0097D544DC1746C7F20202043687790476C7770BDFF21C17420
:20013C00904770BD10B54E48484C804702280ED121464031CA88474B9A4208D1CA7C5209CE
:20015C00D20704D0227D920601D49A1DCA8010BD70B53E4843494030C07C4009C00707D032
:20017C003E4D41482C8B2043288388472C8370BD884770BD10B53B48344CAC388047214609
:20019C0053310A789309DB0705D04034A2730A7803231A430A7010BD2C4940310871182876
:2001BC0012D004DC0A280BD00B2804D10AE025280CD02A280CD02D4980004018C0687047DE
:2001DC002B4870472B4870472B4870472B4870472B48704770B504461C484E252D5CAE09AB
:2001FC00F60716D0067D3007000F052803D00120054202D00DE00220FAE7E80905D07006D1
:20021C0003D54868800F012803D05B085B0052085200062B03D01020022B11D011E0FB20F7
:20023C00024002232046FFF741FF002807DAC100611A2039497E1422114200D1002070BD93
:20025C00024303432046FFF731FF70BD4401002137CB000004140000EBC80000A800002142
:20027C00F5B4000053AD00002020000080DF00001D050021F9040021CD040021930400210F
:20029C006D04002110B5034CFFF716FF20680028FAD110BD0011044068610000F825F965B0
:2002BC00F9754500450045002600260057A3520052004C00401F401F401F3F000000000053
:2002DC00304000400140034007400F404F40CF40CF41CF43CF47CF4FCF3FCF2FCF1FCF0F6C
:2002FC00000000000000000000000F00080000003F00000040003F000000040068000E0093
:20031C00DC00060043001A00050000000000020000000000000000000400C00000000400B3
:20033C00C000000007000000000000000000000000000000000000003040004001400340A6
:20035C0007400F404F40CF40CF7FCF6FCF5FCF4FCF3FCF2FCF1FCF0F00000000000000009D
:20037C0050C00091007070C00091007082312100319110B10070018101B100A1823132910D
:20039C0010B101911110418141227740F106007051C0019130181039833108D01831416FD1
:2003BC003100319110B18314141683680070251050C00091F4C340C12014036F3110410497
:2003DC005082F0229840512622C082312100319110B163393110410482C08231210031919B
:2003FC0010B163393110A2C082312100319110B150101531051405920070676452C03110A6
:20041C0031066131C1026A6412C13110213971065131E1026A64007051C0019101CCE2C0CC
:20043C006A64676411C1C2C06A6450B054B0007140804022D6440022C94060B08180111EC9
:20045C00C944007054A064B0F0800022C9404012B09032B070C1DF6811C122C16A6470C1C0
:20047C00E46851C00191E2C0823160820200329110B130C2EE68538253395339B16460C347
:20049C00F4688012B09032B00070676401C122C16A6401C1C2C06A645382B164C012B09074
:2004BC0032B00070676472C281C06A6422C111C16A6402C011C16A6462C031C36A6462C3D2
:2004DC0011C16A6402C311C16A6453825339B164E2C36F6411221C4142C281C86A6452C24E
:2004FC0011C16A6472C2E1CE6A6402C281C86A6402C201C86A64B0C030690070676442C211
:20051C0001C86A6452C211C06A6472C2E1C06A6402C001C16A6462C001C36A6422C101C127
:20053C006A6462C301C16A6402C301C16A645382B16400708180111E5C4150B054B000712B
:20055C00408040225D4154A064B0F1800122514500700022514160B04E61000000000000AA
:20057C000000000000000000067305720B720E7250B00071818060B050A09280F0EFF1928C
:20059C0002936A6741228C458080F1C11004301601110114016CB561B661B761B861B9618D
:2005BC00BA61BB61BD61BF61C161C36126632D63F0C002043231412A121432160111211412
:2005DC00016CDA61C561E061C761CB61B561B561B561F461C561FA61C761CB61B561B56104
:2005FC00B561F461C561FA61C761CB61B561B561B561E761C561ED61C761CB61B561B56121
:20061C00B561CF61CF61CF61CF61CF61CF61C064CF61F964CF610665CF613265CF6174676A
:20063C00CF611166CF61C0644E65F964CF61066511663265CF618280E0DFF2926A67B0B044
:20065C00D661B1B00673057230B06C61D0CF6A6784C203C0C0C37C64207851788278E378B7
:20067C001579B6780062C0CF6A6784C203C0C0C37C64307861789278F3781579C678006250
:20069C00B0CF6A6784C203C0C0C37C6440787178A27803791579D678109221923292439281
:2006BC005492659256911FC0FF914039F00601101031101400927067CF61E3B054A0F08076
:2006DC0050221A4640800022BE461262E3A000C86091598150B0918041228E46A0CF6A6734
:2006FC0012828231823942398B641282F2062F101F312F141682D622334640C1346200C5AF
:20071C0020140D6F6D39DE10F4C34E0482C082312E006D39A2C082312D001A828A39FA0606
:20073C002082803180390BC00B18BC10AC18038239149B141082F0060110103110145181C2
:20075C0010140C14C622C94631D0C1266462021011C0013010C00118021882312100C126C2
:20077C00919103B013B063B053B041800122BE46B481C491D581B51C774E95186591F0803E
:20079C00102269428C623D9110B13E9110B1E08000228146E6228142E0B0951865910F926B
:2007BC005981F914F0805022114210228C464D6390CF6A6763B052A03082F2C0200402107E
:2007DC0011C0013010C00118021882312100C1269191919113B003B063B053B064B054B055
:2007FC00007141800122BE4663B064B0F08050221142B181C191D1819118619131B0A462D0
:20081C002967E0A059810582591480C0007163B0BA6A6962E3A0018262818231823D80EF61
:20083C00F19202936A6703A0007037824739873930828039F006021011C0013010C0011849
:20085C00021882312100C126819102B012B030824039F006021011C0013010C001180218E9
:20087C0082312100C126919103B013B063B053B0007153A062B052B041800122BE46A4816E
:20089C00C491D581B51CFE4E95186591F0801022F0428C62B481C491D4814518751C084FEB
:2008BC00F0801022F0428C623D9110B13E9110B1E08000221247E6221243E0B065910F92DC
:2008DC005981F914F0805022114210228C4630632967E0A0598105825914F0C0007162B038
:2008FC00226BF062A2808B64CF6112824239F2068B6050B00071CF6170CF6A674082418096
:20091C000122BE46A481C491D58195186591F18011228C46336B41800122BE46A481C491AB
:20093C00D581C51C1C4B95186591F08010223F438C6260CF6A67408241800122BE46B48169
:20095C00C491D58195186591F18011228C46506B41800122BE46B481C491D581C51CB44A55
:20097C0095186591F08010225C438C62E092D08200226B47C0B20070A080F022874330B033
:20099C0002C1623101C0A080001E8043F022814380F86031603981632010101A136F236E5A
:2009BC0011161216826B00702DE9F84FDFF81885DFF8181588F80000002008600921DFF891
:2009DC00100501700D2141804FF408718180DFF80405DFF8041501608A7EDFF80005027042
:2009FC00FF2ACB7E437008BFFF2B0D7F85704E7FC6708F7F0771C97F417115D1FF2D08BFE8
:200A1C00FF2E11D1FF2F08BFFF290DD1DFF8D0140A7802704A7842708A788270CA78C27025
:200A3C000A79027149794171DFF8B81402780A70FF2542784A7082788A70C278CA7002791E
:200A5C000A714079DFF8A02448710021DFF89C04057045708570C570057145711180DFF872
:200A7C009004DFF89014466BDFF88C247078087031781170B078DFF884140870716908791F
:200A9C00DFF87C14421E0A70F078DFF878140870B069DFF87414086008B913F095F9F0692B
:200ABC00DFF86844206008B913F08EF92068DFF8607401688847216851F8042F3846904707
:200ADC00DFF85004DFF850143862DFF850047862306A086008B913F077F9706ADFF84014BA
:200AFC00086008B913F070F9DFF838B4DFF838649BF8040013F0C2FC306008B900F045B978
:200B1C009BF80500DFF8247413F0B8FC386008B9306837E19BF80600DFF8144413F0AEFC7D
:200B3C00206020B9306813F0B1FC38682AE19BF80700DFF8009413F0A1FCC9F8000038B9F6
:200B5C00306813F0A3FC386813F0A0FC206819E1DFF8A4130A789BF80000DFF8DCA3921CD7
:200B7C00504380B213F08AFCCAF8080058B9306813F08CFC386813F089FC206813F086FCD8
:200B9C00D9F80000FEE0DC480078002800F00281BBF80210DFF8A4B3484380B213F06EFC36
:200BBC00CBF8040078B9306813F070FC386813F06DFC206813F06AFCD9F8000013F066FCE7
:200BDC00DAF80800DEE0CC48007813F057FCDC49086080B9306813F059FC386813F056FCD4
:200BFC00D9F8000013F052FCDAF8080013F04EFCDBF80400C6E0C04800781C21484313F0C8
:200C1C003DFCD04A1060B0B9306813F03FFC386813F03CFC206813F039FCD9F8000013F047
:200C3C0035FCDAF8080013F031FCDBF8040013F02DFCC348A5E0B0480078400113F01EFCFC
:200C5C00C1490860D8B9306813F020FC386813F01DFC206813F01AFCD9F8000013F016FC7B
:200C7C00DAF8080013F012FCDBF8040013F00EFCB348006813F00AFCB249086882E09E486A
:200C9C000078000113F0FAFBB0490860F0B9306813F0FCFB386813F0F9FB206813F0F6FB18
:200CBC00D9F8000013F0F2FBDAF8080013F0EEFBDBF8040013F0EAFBA148006813F0E6FB9D
:200CDC00A049086813F0E2FB9F485AE08A480078000113F0D3FB9E49086018BB306813F0C5
:200CFC00D5FB386813F0D2FB206813F0CFFBD9F8000013F0CBFBDAF8080013F0C7FBDBF837
:200D1C00040013F0C3FB8E48006813F0BFFB8D49086813F0BBFB8C48006813F0B7FB8B4933
:200D3C0008682FE0744800783021484313F0A6FB884A106070BB306813F0A8FB386813F016
:200D5C00A5FB206813F0A2FBD9F8000013F09EFBDAF8080013F09AFBDBF8040013F096FB65
:200D7C007748006813F092FB7649086813F08EFB7548006813F08AFB7449086813F086FB87
:200D9C007348006813F082FB002013F01DF84FF4804192E03168012008713068057331680A
:200DBC004D73306885733168CD7330680574002031684D743268D072A0223168487103214F
:200DDC003068C28001720720316848720020326890722821306841820121C17600203168BE
:200DFC004877326882F85E00012031680877326882F85D00396808713868057339684D7369
:200E1C00386885733968CD7338680574002039684D743A68D072396848713A6890724FF47D
:200E3C00207039680022C88008818A7401213A68D17421680D732268557321688D732268FD
:200E5C00D57321680D740021226855742368D9720121226811710021236859712168C88065
:200E7C000881002088722168887405202268D0743948016888472A490A6805461068804713
:200E9C0027490A6852F8043F0020984718481D4BC16818780A88314902430A802846304985
:200EBC000A6890470C212F4800F05EF80F4800F05FF800F061F84FF4005198F80000BDE833
:200EDC00F44F0AF0FDBC00BF6E4F0020044F0020604E0020084F0020B63F00502C4E0020CD
:200EFC00E81200503C4E00200C4F0020344E0020945E01006D4F00207B4F00206B4F002032
:200F1C00724F00206C4F0020F04E0020F44E00207C4B002099440100F84E0020A944010020
:200F3C00FC4E0020F4150020104F002044200020184F0020482000200C200020684E0020CE
:200F5C00004F00203C20002040200020884E00208C4E0020904E00207C100020544F0020AD
:200F7C0080100020F84D0020DFF800F0E5710110DFF800F01D6E0110DFF800F04D71011019
:200F9C00B0B5174C241D20680004070C23D01248006800688047114991F90720824205DDF8
:200FBC0010F1800FB8BF6FF07F00C8718D88BD4210D80A68D4F8D40F801A801C1F2888BF16
:200FDC001F207F1B4008C7404FF6FF70EF19B84238BF071C8F80B0BDEC0100102C20002018
:040FFC003010094068
:20100000B41200001810000015AB0110FDB301106DC00110FDAE011099B5011000000000F7
:08102000000000002D0000009B
:20102800B01200003C100000B1C00110A9BF011067C0011069B80110000000000000000035
:041048003000000074
:20104C00B012000060100000BDC00110CDB30110D9BD01106DB3011000000000000000005B
:04106C00310000004F
:20107000000000001416002004000000000000000000000020000000E8C901103000000000
:20109000281000001C1600200400000000000000000000000C000000D8CA011018000000DB
:2010B0004C1000002416002004000000000000000000000024000000F0CA0110180000005F
:2010D000000000002C1600200400000000000000000000001000000018CA01102C0000006B
:2010F000001000003C160020040000000000000000000000200000006CCA011024000000CF
:20111000FFFFFFFF441600200400000000000000000000002800000090CA0110240000008E
:20113000FFFFFFFF4C1600200400000000000000000000001400000008CB0110180000000D
:20115000FFFFFFFF5416002004000000000000000000000058000000B4C9011034000000DB
:20117000FFFFFFFF5C1600200400000000000000000000001000000020CB011018000000A9
:20119000FFFFFFFF641600200400000000000000000000001C000000B4CA011024000000D6
:2011B000FFFFFFFF6C1600200400000000000000000000003800000044CA011028000000FE
:2011D000FFFFFFFF741600200400000000000000000000005400000078C901103C00000073
:0811F000010000005C5E01003B
:0411F80001000000F2
:0411FC0000000E00E1
:0412000000000F00DB
:0412040032000000B4
:0412080001000000E1
:04120C00B0140020FA
:0412100000020000D8
:0412140000000000D6
:0412180001C90110F7
:04121C0000000000CE
:0412200000000000CA
:0412240008000000BE
:0412280000002200A0
:04122C003413002057
:0412300000000000BA
:0412340000000000B6
:0412380008000000AA
:04123C00701400200A
:0412400000000000AA
:0412440000000000A6
:04124800080000009A
:04124C00000000009E
:04125000000000009A
:041254000000000096
:041258000000000092
:04125C00010000008D
:041260009C130020BB
:041264000600000080
:041268000100000081
:04126C001C12002030
:04127000000000007A
:041274000000000076
:041278000002000070
:04127C00000000006E
:02128000290043
:02128200010069
:02128400250043
:02128600300036
:02128800310033
:02128A002D0035
:02128C0001005F
:01128E00015E
:0812900003000000E85D01000D
:0812980000000000000000004E
:0412A0000000010049
:0412A4000000030043
:0412A80013C401105A
:0412AC003F420100BC
:0412B000B812000070
:0412B400B81200006C
:0412B8000000000032
:0412BC00B415002045
:0412C000A543010041
:0412C4002000000006
:0412C800485D01007C
:0412CC00A45B01001E
:0412D00029C101101F
:0412D4003B140100C6
:0412D800FB180100FE
:0412DC00A1C7011095
:0412E000A3C701108F
:0412E4000000000006
:0412E8006F5D010035
:0412EC00EC590100B8
:0412F000045A01009B
:0412F400D4590100C8
:0212F8000200F2
:0212FA000900E9
:0212FC000100EF
:0212FE000000EE
:0113000001EB
:041304002143010080
:041308008126010039
:04130C00C9370100DC
:04131000C9290100E6
:041314002F2A01007B
:04131800AD13010010
:04131C00E9EB0000F9
:04132000A1450100E2
:041324004D00010077
:0413280015C70110D4
:04132C0025C70110C0
:201330002DE9F04F0C4685B0834614F8010BDFF870278DF8000018280BF1FD010BF1E708C8
:201350000BF166090BF20D1A0BF5B0760BF59C750BF5C67700F29183DFE810F019006F0025
:201370005F0191008F038F03FA00690311012301FE000D0133018F038F037C018F036101D7
:2013900055017503D602D60227028F03740214F8010B8BF88600022221460BF1880013F05B
:2013B000B9FD014602220BF18A0013F0B3FD014602220BF18C0013F0ADFD014602220BF1BC
:2013D0008E0013F0A7FD04469BF8860040008BF886000BF1860102224888400048800BF1A1
:2013F00086008188490081800BF1860108890001088121460BF1840013F08CFDB9F81E1014
:20141000BBF80800091A89B247F6FF7291422ADA0BF18601C8888A88401C520050430A8965
:20143000904203D33B208AF80B0039E2012089F81C000020ABF81E001EE0052221460BF1CA
:20145000610013F067FD014602220BF1920013F061FD0BF1860047F6FF728189BBF8080065
:20147000091A89B2914280F218820BF18600012181720021ABF81E10012028700CE398F85E
:201490001600C1070AD41A2198F80D0088F80E10012808BF0D213FD00D21CDE1002089F860
:2014B000000089F806000822012088F8110021460BF1B00013F02EFD014602220BF1B80059
:2014D00013F028FD0BF1A80601460822304613F021FD04460821304613F018FD0BF19C0683
:2014F00004222146304613F015FD0421304613F00DFD0BF1A00013F005FD0BF1980013F0E4
:20151000FDFCDFF8A005018841F08001018098F80D00012806D10421584605B0BDE8F04F91
:2015300010F03ABF99F81000012804BF99F811100F290BD158460EF013FF042158460DF0E1
:20155000F1FF0F2089F81A00FD2175E1042173E1012088F80F009FE2002089F8000089F881
:20157000060088F800000B21012088F80D00002088F8010060E1012088F810008CE20020DA
:2015900002F10906235C365C33432354561C365C33400B54401C0828F2DB58460EF05CFA1A
:2015B00070E2002002F10905235C2D5C2B432354551C2D5C2B400B54401C0828F2DB02207C
:2015D00048E299F8060008B93D2167E19AF800000128D3D014F8011B8AF80310022221462D
:2015F0000BF5897013F096FC014602220BF58A7013F090FC01208AF800009AF802000028FA
:201610001BD10C2118E198F81600C10601D41221D1E058460FF03AFB34E221783EE120784A
:2016300030706078707099F8100001280CD199F811100F2902D0162902D02DE268732BE2D7
:20165000387B40F0010016E205B0BDE8F04F002012F0C0BB98F81600810707D410F0110F3F
:2016700008BF0F2000F009821A2252E02078617800EB01202882E178A07800EB01206882ED
:201690006179207900EB0120A882E179A07900EB0120E882207A2876A17A607A00EB01206F
:2016B0006883217BE07A00EB0120A883A17B607B00EB0120E883217CE07B00EB01202884E4
:2016D000A17C607C00EB01206884217DE07C00EB0120A884A17D607D00EB0120E8840BF564
:2016F000AA700490688B0390287E0290BBF808000190E88A0090AB8A6A8A298A58460DF0A9
:20171000BDF968B198F81600410701D40F2152E01E22584605B0BDE8F04F0F2110F058BE08
:20173000688A0BF186018880A88AC880E88A088102208BF8860000204880BBF83400C01DD0
:20175000A9F81E008888BBF83210884201BF0BF18600C188BBF83400814206D10BF186005D
:201770000189BBF8360081421DD099F81000012804BF99F811100F2907D099F8150020B171
:201790000F2189F81A10FE2156E0FC2158460DF0C9FEE88A0090AB8A6A8A298A9BF8060013
:2017B00013F0A8FB78E1102146E098F8170010F0090F03D116218AF80C1060E160782178A9
:2017D00000F00700014021702078797B0140F97211D0481E01420CD0490704D5B87B10B175
:2017F0000421F97205E0F97A022001421AD14008FBD1F87A08B9B97AF972F87A042803D14A
:2018100058460FF0E2FAB083F87A13F06FFB3871B28BB97B01230FF0F7FE0146308B88422F
:2018300002D207E0F872E4E7B28BB97B387901230FF0EAFE78801721584605B0BDE8F04F14
:201850000DF070BE60782178814207D100F007000840207033D0421E10420FD01E22182165
:20187000584610F0B5FD9BF80610002300221E200AF0BAFF387B40F04000FCE0F87247F683
:20189000FF72A078E17800EB012038813989BBF80800091A89B2914206DB28218AF80B101C
:2018B00001208AF80A00F7E00120B871F87A042803D158460FF089FAB083F87A0BE099F897
:2018D0001100162806D1BA7A9BF80610134600200AF08AFFB87A3871B28BB97B38790123D8
:2018F0000FF092FE0146308B884205D3B28BB97B387901230FF088FE78800121387B40F0DD
:20191000400038732970C7E02078617800EB01207082E178A07800EB0120F08261792079BB
:2019300000EB01203082E179A07900EB0120B082B18AF089884288BF0846B97A042905D1DF
:2019500040F691229042B8BF4FF42960F28BF0839042B87A14BF01240024042803D15846CB
:201970000FF033FA04E0B089F18A884288BF0846B28BB083904214BF012100210C433089D4
:20199000718A328B884288BF0846904214BF012100210C433083B28BB97B387901230FF0F1
:2019B00033FE0146308B884205D3B28BB97B387901230FF029FE78807189308A728B81426A
:2019D00088BF0146718391429BF8063014BF0120002004438A4234490A6802EB4311728B85
:2019F0008041121DC00F0A7610B1584610F014FF9DF80000142810D144B1F08B0090738B76
:201A1000B28B318B9BF8060013F06CFA584605B0BDE8F04F15210CF061BA1CB1387840F08A
:201A300008003870397841F02001397034E020780E280ED00F2809D0122804D014280CD044
:201A5000162812D028E00020287225E00120287322E0032088F815001EE0387840F0020039
:201A7000387040F01000387016E0387B40F00200387340F0100038730EE08AF80C0058463B
:201A90000EF0A2FD40B905B0BDE8F04F074800784FF4804109F01ABF05B0BDE8F08F00BFD2
:201AB000C81F0020524F0020402000206E4F00202DE9F04FCF4C04F10C012046ADF1440D2A
:201AD0000EF0A4FF04F130050021284613F006FAC94941F28832012304F1700025610FF08C
:201AF000CDFB4FF0804000210EF066F9C34E1F220623A0603146102006F04CFD01250020EA
:201B1000ADF81A0081468DF8355029468DF836900DF13502ADF820905020ADF81C004FF46D
:201B30004870ADF81E004FF47A70ADF8220040F2053003F051F940F2063002210DF11A02DD
:201B500003F04AF94FF442701E2104F1510203F043F940F20730072104F1200203F03CF9C4
:201B70004FF4447029460DF1360203F035F940F21130022107AA03F02FF940F2123002219F
:201B90000DF11E0203F028F940F21330022108AA03F022F94FF4457002210DF1220203F07B
:201BB0001BF904F13C004A461523CC490090102006F0F0FC314610200622A02306F0EAFCE3
:201BD000314610200722A02306F0E4FC314610200822A02306F0DEFC314610200922A02393
:201BF00006F0D8FCCDF81490AB468DF8399005A88DF837B0CD4D8DF838B04FF481628DF818
:201C10003AB0042300902946102006F0C3FC0DF137004FF4806200905B462946102006F09F
:201C3000B9FC0EA840F2024200905B462946102006F0B0FC0DF1390040F2034200905B4662
:201C50002946102006F0A6FC0DF13A0040F2064200905B462946102006F09CFCC5491020EF
:201C70004FF0FF3206F096FCC34910204FF0FF3206F090FCC14EC24F10201323C14A00900D
:201C90003146019706F086FCBF480078800012F0C6FDBE4D0146A96069B14FF6FF7010F0C0
:201CB0001FFDBB49102005F11402009011230191314606F06FFC02208DF83BB004268DF849
:201CD0003C0003278DF83E60C7498DF83D7009AB48460A6809791A600DF13B021971594615
:201CF00009F094FD58460FAA014609F08FFD022059460DF13D0209F089FD59460DF13E02CD
:201D1000384609F083FD052109AA304609F07EFD04F11C0004F12802C3496860102006F0CF
:201D300039FC207811F042F9C0490246102006F031FC207811F03AF9BD490246102006F0A6
:201D500029FCBC49102006F025FCBB491020324606F020FCB94DB0A04FF6FF712860484623
:201D700010F0C6FFA768DFF8D88257B12E7946B140468760052101704946C160284610F086
:201D90005BFCC94E06F1180006F10C010AF0F4FFC949B06012F034FCC94DB0684FF4E021FF
:201DB0002A46921E10F0EAFCB0684FF4E0212A4610F0E4FCC34FB0684FF0C0513A46921EB7
:201DD00010F0DCFCB0684FF0C0513A4610F0D6FCBD49C8224B4606F124000FF04FFABB487A
:201DF000BB497060102006F0D5FBC74E30787778E7B905E00802002009440100BD8401100E
:201E100004F11801316211F0D1F806F15407CDF80090024606F14400019006F11C050297DB
:201E3000C2490395B378102006F0B4FB4546E068C74A49464FF0FF3313F04CF8071CF6D0DB
:201E5000CDF8109006A80DA904AA10F0CFFD002840F0DD80BDF818102078D846102940F07E
:201E7000CF809DF83410884240F0CA80049E31884FF6FF728A4200F08D803378913B2FD096
:201E90001F3B40F0BD807178162910D03279A06829787E2A08D07F2A1AD13289BEA300924D
:201EB0004A4611F00EFA13E0327ABFA3F7E711F07DF8CDF800B0B74972880346102006F046
:201ED00069FB28B940460CF02BFDC846666197E0317906F1080012F0F9FF91E0CDDC0000FA
:201EF00070780E3827D0801E3FD02E3840F08880B0780C2840F08480F378A1682878BBB94A
:201F1000401CC2B2ACA3084611464A4611F0D9F9F079012814BFADA0AEA00090A168287851
:201F3000AEA3801CC2B20846114666E04D4B0000401CAEA3F6E7B08842F2030181425FD1C0
:201F5000B1680E78002E5BD1491C0BA80A68496802600BAE41603078B5490BAA00F0FD0039
:201F70003070102006F016FB4AE00820494605F03DFD45E0F1360100F9390100052F0100B5
:201F9000C45D01008C0B0020694F00203C0E0020D05D01007088400832D3666986B36078C3
:201FB00006F10803401C6070A049009372883379102006F0EFFA5FFA80FABAF1160F15D02A
:201FD0002078BAF1040F11D0666910F0EFFFCDF80090704972880346102006F0DBFA50461B
:201FF0000CF09EFC0CE0C046215E0100607800902978A06882A3491CC9B24A4611F061F9C8
:20201000049820B1B8F1000F01D012F0D1FBF80FC0F0AC80A4E0C046424C452050657269FC
:2020300070686572616C00C0ED3B01005188011031810110B1D50000FD3F01004C1400203B
:20205000201500202069064612F03CFF864208BF4E4602D0866810F05DFB301CB0467FD03D
:202070000188491E76D0491E50D0891E75D1807801092FD2400970D3092012F0F9F80028D3
:202090006BD16868697803790A46934216D0FF2A63D000EBC203DE6846B900EBC100006956
:2020B00010F0CAFA59E0C0466812002000EBC20003690846984750E0E92101008068EFE734
:2020D00009000580090000106D42010063470100C5AB0010072012F0CBF800283DD169687B
:2020F00068780979814207D0FF2809D0401CC0B210F048FCFF2802D1484610F043FC687023
:2021100008F0E4F929E0C0467005002083782E78D4F808A0761C5BB19B1E1ED102200DF1BB
:202130003F010FF0E9F93BA308E0C046F317010048460DF13F010FF0DFF939A39DF83F0044
:20215000F1B24A460090504611F0BBF805E0C046010000C0807803F099FE404610F0DAFADA
:20217000206912F0ABFE00283FF46CAF7808FFF45EAE304812F06BFB022010A90FF0BCF9B7
:2021900000287FF454AE0320594610AA09F03EFB4DE6C046934301004D54552053697A6523
:2021B0003A20256400C046C046432056696F6C617465643A20256400504859205570646107
:2021D000746520436F6D706C6574650032204D62707300C031204D62707300C043757272DA
:2021F000656E74205048593A20257300504859204368616E6765206661696C75726500C066
:202210005273702073656E642072657472793A20256400C04368617220333A20256400C042
:202230004368617220313A20256400C0DDFE001095B40010780200202DE9F04FD04C04F1D8
:2022500018012046ADF1440D0EF0E0FBD54D00264FF6FF700123667032462082294604F1B3
:20227000A4000FF00BF80223324604F1C80029460FF004F80423324604F1EC0029460EF0F7
:20229000FDFF4FF0040A04F1440810224046314684F802A00CF0E1F904F15409102248466F
:2022B00031460CF0DAF904F11C073E6004F10A052E70E671267207206072CDF80080DFF86C
:2022D0001883022210200346414606F063F9102003224146CDF80090034606F05BF91020E9
:2022F000524641460097134606F054F94FF0080B4FF0030905F12A000C9005F179000D9017
:2023100005F11E000E9005F15A000F902435109517E06078A28FE18FB4F84050B4F8423044
:2023300006280ED1ADF81A20ADF81C10ADF81E50C048ADF8203012F08CFA012006A90BF06D
:2023500001FDA069BA4A31464FF0FF3312F0C2FD071CF6D002960DF122000DF12E0102AA3F
:2023700010F044FB002840F0CB81BDF822102078102940F0C1819DF82E10884240F0BC8136
:20239000029D29884FF6FF728A4200F0AA812B78A23B00F08D812E3B40F0AE81A978B046E3
:2023B000002900F04981891E00F01881491E012940F2E880891E00F0A880491E7BD0491EF7
:2023D0005CD0083900F06481891E40F0678194F83A30A888052BADF80C0047D001208DF828
:2023F0001600944812F035FA94F83A0001281ED004281CD003280DD002280BD00298C188C5
:20241000ADF80E100189ADF810104189ADF81210818927E0A08FE58FADF80E00B4F8403086
:20243000ADF81050B4F84210ADF812301AE0A08FE9888842D8BF081CADF80E002989E08FAF
:202450008842D8BF081CADF810006989B4F840008842D8BF081CADF81200A989B4F84200F8
:20247000884200DC0846ADF8140001E08DF81660AF49102003AA06F08DF80FE1AD4812F08C
:20249000E8F96B78002B40F00981E88860822889A0826889E082674811F0BEFF002840F046
:2024B000FD80656A002D00F0F9802B68608AA18AE28A9847F2E0AA88B549102006F06AF8AD
:2024D0000C98414606220CF0C8F86682A682E682A8792073574812F0BCF9964812F0B9F9C9
:2024F0004FF001084FF6FF702379208253B9A879082812BF84F801A005206070404611F0CB
:20251000BBFFCBE084F80190C8E06B787BBB291D0C980A68026089888180062363706889BB
:202530002082E8896082288AA082688AE082E878E07294F83A00012818BF02280BD19A490D
:2025500010201F2206F026F84FF47A7180B2414338480FF095FE688900909249CDF804A02B
:20257000EA7810202D1D2B4606F014F899E06878312840F08A80E67084F801A091E0C04626
:20259000700500206B78002B7FD1A878E3896178032815D0E078257933B9012814BF26714E
:2025B000E67008E089440100054304D07F4819460FF066FE61780729DED10620607070E05C
:2025D000062907D0E578002D08BF84F8019068D00220F3E70720F1E7CF3B01006B78002B3B
:2025F00053D1EB78617893B902291DD007291BD0062902D12079012816D1032914D06B487E
:2026100011F00AFF80B9012011F036FF0CE010F0CDFC0246A079624900900D984346019000
:20263000102005F0B7FF68706D78002D2DD135E007000080380600206B7833BB5C485749B8
:20265000009002221020034605F0A4FF59484A46524900901020034605F09CFFED1C0E9891
:2026700029680160A988012381802078637010F09DFC024601230F9D6079494900901020BB
:20269000019505F087FFC0B258B184F801B008E0AA8841491020052305F07CFFB8F1010F4C
:2026B0002AD1256A45B32D6835B36078A84723E06879132820D12889012808D1607B02287C
:2026D00005D11C4812F0C5F810F0C2F914E036491020052205F05EFF81B216480FF0D0FDBD
:2026F0000AE06888C00B07D3334852462B4900901346102005F04EFF029808B112F058F8C4
:202710002579E078790830D355EA00032DD0204600788DB9E179257A8DF82410109A8DF8EB
:20273000255013680DF126052B609288AA8005E0051601105C0600208DF82490617A8DF875
:202750002C10A17A8DF82D1010F030FC1149024609AB102005F01EFF38B1256A84F801B0E7
:202770001DB12D680DB15846A847B80803D3134930460BF0E7FAF808FFF4E3AD607B401E9B
:202790003FF4C7AD401E7FF4DCAD10F061F9D8E53106010059440110C1170110D1A60000CB
:2027B00009450110E1A20000F584011014060020B4050020C40500208C050020AA05002021
:2027D0002DE9F84F012010F075F801280ED1DFF8F87439680020487138680EF037FF04F071
:2027F0008DFC040003D1812012F064FB68E201206071DFF8D854DFF8D8044178491C4170A5
:202810003968A07981F8A00040200BF0AFFD2060287901281CBF002011F0DCFAE8682168D9
:20283000DFF8B05400F5B060C860286801680A79032A1CBF002011F0CDFA2868DFF8988491
:202850000168DFF898B401F10809062299F80000C0F3801084F82E0109F1020104F5947038
:2028700011F00CFC042209F10E0104F1240011F005FCD8F80000A67900F10C03042209F1E6
:202890000E0103EB461011F0F9FBD8F80000A37900EB4310032209F11201103011F0EEFB5A
:2028B00004F12C0699F81500B070022209F1160104F1300011F0E2FB022209F1180104F1B7
:2028D000320011F0DBFB022209F11A0104F1340011F0D4FB30896084022209F11C0104F1E0
:2028F000360011F0CBFBB078F18872894000B0704900B08840001201B080F180728189B22C
:20291000638C5B1C4800434392B2934200D231B99BF80000802108F0D9FF3B21FEE004F16B
:202930002E01204611F030F80520A081204611F0FDF9052209F11E0104F1610011F09EFBF6
:2029500099F823004009307012F0B0FA60823A68E34F518A401A04F59771888104F16101D2
:2029700099F82300DFF87C9300F01F00F07320460EF09AFF29680A68002010711C25A1793F
:202990003868694341F6210242520022A17969430144001D4A80A1796943425099F80200EE
:2029B000410609D5D049088841F20A4290420CBFCE48CF48C4F89C012046D4F89C118847E9
:2029D0003968A37901F10E026B43D054A1793868694308440021C173C648017881B1B0885E
:2029F00070B9002171730120208160812046D4F89C1188473968A37901F10E026B43D054B7
:202A10003868A27900F10E016A43885C707394F8960108B911F0DEF9A1793868DFF8D8A2B0
:202A30006943084494F896114A1E02740023A17938686943084400214174A279396801F124
:202A500012006A4301F1140C8352A279D8F8000000EB42136A434CF80230A2796A43114455
:202A7000A64A8A61DAF814100B78DA074CBF4FF0100C4FF0000C99074CBF202100215A07F2
:202A90004CBF402200221B0700F10803A07941EA0C014CBF4FF0800E4FF0000E0A43400175
:202AB0004EEA020242F00F021A54D8F80000A17900EB41100B224272D8F80010A07901EB2D
:202AD000401104228A728E4A1378D8F80000A179012B00EB411002D10121C17203E0DAF8E1
:202AF00028104A78C272D8F80000A17900EB41101F220276D8F80010A07901EB4011002261
:202B10004A76A07909F074FAA279D8F8001052018850A2795301C85820B90721204610F049
:202B3000A1FECDE07748016801EB021012F0BAF9744AA0791368D8F8001003EB00130A1D04
:202B500040011350081DA27952018058F063A07940010958716404219BF8000008F0B6FE0F
:202B7000644BB2881978901C11B10AB9F088801C618A94F806B041434FF4C87205FB0BFB52
:202B9000B1FBF2F1491CA061616140F6C41C23683A68CDF800B002F1080ED3F80CB00CFB1F
:202BB00000B0411A0098A1F5A8614EF8001002F10800A17969434058986002F10C01A07903
:202BD00068430C32095C01F0EF011154A0793968684301F10C020C31125C02F07F020A5470
:202BF000A0793968684301F10C020C31125C02F0F00242F002020A54A1793868694308448B
:202C1000417B01F0F00141F0010141733868A27900F108016A438858216808616369D8F84F
:202C30000000A17996F802E05B0000F1140249010CFB0E3303F5F6635350A17900EB4110BC
:202C5000C27C02F0F00242F00402C274D8F80010A079DAF8303001EB4012F0880CFB00F6F6
:202C70001868301AA0F51670D061A27901EB4210C17E01F0F00141F00401C176A17938688D
:202C90004D4321684019486099F80100810614D504F59771488F1B2804BF888F1B2808D1F7
:202CB000C88FB0F5A47F04BFB4F86E11B1F5A47F03D0142120460CF035FC13490720087098
:202CD000BDE8F14F01F008BB104F0020B44D0020684E0020F44B0020402000206E4F002019
:202CF0003C200020C81F0020504F00205F01010079090100784E0020945E01005C4D0020FC
:202D1000734F00208C4E00206F4F00202DE9F843040014D1002011F05DF810E020460DF0E6
:202D300053FC012808D065E08A0740F1548101F0FD0101700020B07120460DF011FB04F152
:202D50006605687D002855D0697CDFF8A494022904F1EC0704F59E7804F5B07604F5C67062
:202D700035D0042949D005295CD0062900F08A800729D3D0092900F0EC800B2900F0C180AF
:202D90000C2900F008810D2900F0D0800E2900F0EA800F2900F02881102900F04281112977
:202DB00000F05C81122900F00E81142900F08781162900F05A81172900F07581FC2919D009
:202DD000FD2900F09581FE2900F09B81A2E7297C012909D199F80300002815D01621204614
:202DF00010F040FD012006E020460CF086FF2874E88A28830020BDE8F283297C012940F0A6
:202E1000948199F80200002800F0E580FC2120460FF0C2FAA07904F1B80204F1B00112F0CF
:202E30003DF88CE7297C01290FD199F8020020B184F89410002038607860B87A012868D183
:202E5000062120460FF0A8FA79E704F1E7063078012809D120460FF067F90128CAD100209E
:202E7000B87201202874C5E770780028C2D004F1C70204F1A00104F1D70012F00BF80120C7
:202E900030705CE7297C012940F0538199F8020000283ED0618CE18320460DF061FA012073
:202EB000287020460EF0BEFC0120A871397A787C012900F010000FD148B1002088F80500C3
:202ED000D8F8001098F8060049080CF02FFCA079002111F0DBFF0EE040B1D8F80020C54803
:202EF00004F5A1735208214611F0F0FBA0790122002111F0C7FF002038723873F872B872DB
:202F10001DE7287C012805D1F97A012908BFFC2197D060E020460CF039FB0128A3D100207F
:202F3000F87284F894000120287408E7297C012940F0038199F80200002809D0002184F8A7
:202F500094100120287020460EF06CFC0120A87188E0297C012940F0F48099F80200D0B30D
:202F7000618CE183E8E6287C012840F0EE80387C022804F1FD0204D1A179002011F07EFF58
:202F9000DAE6032840F0EA80A1791A2011F076FF00203874D0E6287C012804F20D1140F03F
:202FB000E8800B78012B04F5897240F0E8804878012807D15388009300201388CA78A17918
:202FD00011F058FFB8E6297C012940F0E78099F802000028F6D1298B481E288380B20028E4
:202FF0007FF408AF2221FAE6287C012840F0DA8098F80910012902D130780F281BE098F80D
:203010000800012826D1002188F80810288D000900901A20AA8CEB8CA179520811F026FFF0
:203030008AE6287C012840F0C18098F80910012910D1307810281CBF002010F0CBFE00205A
:2030500088F80900288D00090090AA8CEB8CA1797078E2E7287F0028E2D1BCE7297C01291D
:2030700040F0A88099F80300F5E7297C012940F0A580017B4A061DD4CA0709D501F0FE01F8
:2030900001730023A1797078002209F0ADFB53E68A0740F1988001F0FD0101730023A17911
:2030B00000221A20F1E7297C012940F09980027B510690D5017B01F0BF0101733CE6297C13
:2030D000012940F08F8001788A067FF52DAE01F0DF010A0701700AD501F0F7010170F08B18
:2030F0000090738BB28B318BA07911F0FBFE21E6A97E20460FF050F915E7002010F06AFEC6
:2031100078E6A87E0F28F8D1FC2120460FF044F9B8F812000090B8F81030B8F80E20B8F88C
:203130000C10A07911F0E6FE64E620460AF05EF95DE620460DF0F2FA59E620460EF0F6FC3D
:2031500055E620460CF088FC51E620460BF0DAFF2874E88A2883012038744BE6288B401E05
:20317000288380B20028F8D1A179222011F086FE38E70120887020460BF046FC37E6288BE5
:20319000401E288380B20028E7D15088009022201388CA78A17911F06DFE23E720460DF08A
:2031B0004DFD24E6204609F06FFB20E6204609F0BBFB1CE620460CF041FD18E6162120468A
:2031D00009F020F913E6288B401E288380B20028C3D1A17900230022222009F005FB01E7A8
:2031F0001721ECE7142120460AF078FEFFE500BF5C4D0020A5E900002DE9F84FDFF828440F
:20321000A178FF2904BF002010F0E4FDA07811F043F8044604F1680604F5C9753168086858
:2032300004F1900710B10022E28310E0B17B002904BFB07E00280AD13978002904BF287834
:20325000002804D1217F012904BF608CE0832189E08B4118491C6181204610F0B5FB012891
:203270001EBFDFF8C8030178012904D120890022401CE2836081B07E01280CD1B28B61897F
:20329000208911F0EFFD30B121896289481C82422AD0B28B1FE0387801280CD17A88618912
:2032B000208911F0DFFD30B121896289481C82421AD07A880FE02878012815D16A88618974
:2032D000208911F0CFFD00281FBF2189481C6289824209D06A88824206D0501E608180B2BF
:2032F00011F0BCFD401EE0832878012801BF69882089401C814207D16A792A7100202870F3
:203310001346A17909F070FA04F59A71087920B120890021401CE183608104F12E07B07EAE
:20333000012801BFB08B2189491C884238D1608104F18601204610F027FBB08C6189608488
:2033500000202077E083E0894118A181B08B218911F084FD8046B988308C728C01FB08082B
:20337000F08C8A4204BF3989884202BFB18CFB88994207D000090090B38CA1795208002007
:2033900011F074FDB07F3870708CB880B08CF880F08C3881204610F0C9FC0220B07601E063
:2033B000B7F80480E28BDFF88892501C00FB08F140F6C41808FB01F000902368D3F80CC054
:2033D0006044DFF870C2D860DCF800E09A489EF800A003884FEA9A1ABAF1030F13D199F882
:2033F0000FC05FEACC7E48BF00230CD45B1C9BB2012B11BFB4F812C004F59A7CBCF806C08A
:203410000CF2DC5C01E0B4F812C00CFB01FC4FF4C87EBCFBFEFCDFF824A20CF1010CC4F866
:2034300014C0038084F820204FF01C0BA379A1610BFB03F3DAF80010226801F1080001F191
:20345000080CC058D3681061A0790BFB00FE60691B1A4CF80E3001F10800A3790BFB03F3D5
:20347000C058906001F10C02A0790BFB00F00C31125C02F0F00242F002020A54DAF8000030
:20349000A279811C0BFB02F200208852287908B910F0A0FCDAF80000A27900F110012879E2
:2034B0000BFB02F240088854A079DAF800100BFB00F00844002141742879042814D1A07900
:2034D000DAF800100BFB00F001F110022B7A125C103142EA83020A54A179DAF800000BFBAB
:2034F00001F1084420214174DAF80000A27900F112010BFB02F200238B525149A279096877
:20351000520101F11403D4F814C09B5801F1140E03EB4C034EF80230B27E022A0AD1A27991
:20353000520101F114033E789B5808FB063301F11406B35099F80F20D30749D5A2790BFB52
:2035500002F200F1080300F108069B58A3F5A863B3500830A27923680BFB02F282589A6027
:203570000098121A1A6101F11402A079400101F11403125802F5F6621A502879042807D1C9
:20359000A079400101F11402125802F5B0621A5001F11400A27952018058C4F8340101F1AD
:2035B0001C03284AB888166BA57908FB00F730686D01381AA0F516705851A37901EB43101A
:2035D00021490D78012D0EBF0122916A4A7819E02879A37904280CBF4FF44B604FF4E660ED
:2035F00001F114025B01D258101ABA8808FB02F2A2F516729042D2D30821204610F032F97A
:2036100001200FE0C272A179DAF800000F4A0BFB01F10844216848600720107020460EF091
:2036300064FB0020BDE8F28F684E0020784F00205C4D0020084F0020642000203C200020B8
:2036500040200020945E0100734F00206F4F00202DE9F04F09AFADF13C0D08900A9238883F
:2036700009911E46ADF81800101C08BF002000F08481002700F101094FF0FF3A4FF0010B92
:20369000B8466CE1252940F063811078521C0A922D2818BFADF8068005D15846551CADF8FA
:2036B000060010780A9530281CBF4246434605D10A9908785A465B46491C0A912A28CDF838
:2036D0000080554616D1306804930A99CDF808A0C01C4B1C20F00300001D306050F8044CFE
:2036F0000A93002C0878009418D5ADF806B06442009413E044460AE0610001EBC40140188A
:203710000A99A0F1300408780094491C0A91302801DB3A28F0DBCDF808A004932E282BD166
:203730000A9908782A2801F101010A9111D13068CDF80880C01C20F00300001D306050F8CA
:20375000045C002D48BF454608782B46491C0A9111E0454643460AE0690001EBC5014018E7
:203770000A99A0F1300508782B46491C0A91302801DB3A28F0DB02930AB1224604926C289C
:2037900004D04C2818BFADF8048005D10A990878ADF804B0491C0A910BA9CDF80C800FABC0
:2037B00007916428059300F08B80692800F08880BDF818C0752872D078286ED06F286AD09E
:2037D000702850D063283DD073281ED009980A990128A1F101010A9115D96B490C68B5F1A8
:2037F000FF3F03D0A84288BF6D1C00D8099D029508A80AA932466B46A047C7190A99039848
:2038100001F1010974E040462AE030680A99C01C20F00300001D306050F8040CBCF1000FCD
:2038300001F10109014608B955A00146079110F05BFD0390B5F1FF3F5BD0A842C4BF281CF5
:20385000039056E03068C01C20F00300001D306010F8040C5D468DF82C000A990395584616
:2038700001F1010945E0082035680490E81C20F00300001D306050F8041C082210230FA87E
:203890000BF0C4FA401E0790402101700A99079801F1010929E0082302E0102300E00A2304
:2038B0000A99306801F10109C01C20F00300001D306050F8041CAA42BCBF2A1C049210E08A
:2038D0000A99306801F10109C01C20F00300001D306050F8041CAA42BCBF2A1C04926FF0FB
:2038F00009030FA80BF092FA0790059D281A0390009C241ABDF8065000945DB906E008A83B
:20391000202109AA0FF01CFD009C7F1C641E0094F5D503980546401E039075B9BDF80600B4
:20393000E8B10098401E009019D408A8202109AA0FF006FD00987F1CF4E70798411C079123
:20395000017809AA08A80FF0FBFC03987F1CE1E708A809AA0FF0F4FC7F1C09F101094A4606
:203970000A9812F8011C401C00290A907FF48AAE089808B14146017038460FB0BDE8F08FF2
:20399000286E756C6C2900C0685E01002DE9FE43BF4C0F460646F80B80F05081B80880F00D
:2039B0003D81E07ADFF8F492B90F80F0B680607A002840F096803809C0F09580A07A20B1DB
:2039D0000020A07205200EF0F3FE00254FF001086570284684F8078007F017FFAD4904F1E6
:2039F00074002A4610F017FF207901281AD16079C0B9DFF8A482D8F8000000284CD048461F
:203A10000068006B804761694346401A000BA0611968E2698018B0EBC11F98BFE0613BD9B8
:203A3000E56101E084F80480DFF87482A8F115000068000A30D340F60900A08694F841002D
:203A500000F0F00040F0010084F84100E58694F8400000F0F00084F84000A56310F0D5FEDA
:203A700008F6FF7211686FF0020321F00201116004F13401C8F8FB3F8A4AC8F8EB1F11682A
:203A90008908FCD3C8F8FB3FD8F8FF1F41F00201C8F8FF1F11F0DEF965610EF083F98248DA
:203AB000056002200EF084FE112007F06FFF307C10B90E2007F06AFFE5712572A07818B980
:203AD00006F1380010F0B5FE784810F075FD78490878F8B10D7004F1D000042110F0B1FEC2
:203AF00018E0380914D2B80BC0F0C98004F1240010F09BFE061C08D0706830B17568F06841
:203B1000B6F91C1000222023A84727F40057B6E00020607227F00807B1E020B104200EF0C2
:203B300047FE0020E072B168088840F602054FF0000885420AD0B0F5C15F07D00A8B4FF67A
:203B50001F60104040F43470088306E00A8A4FF61F60104040F4347008826069E0B1D9F808
:203B70005400016804208847B0B1D9F80000006B80476169814226BF401A401E401A000B92
:203B9000F060708AF168401840F6C411F06081422CBFB0F5FA7FF16094F8410010F00F0FB7
:203BB0000BD1708CED1D854207D1B56930466FF4807142464FF00073A8473E4904F1740073
:203BD000424610F028FE607958B10220ADF8000068460FF0CBFB84F80580BDF80800A4F8B1
:203BF000700001206070E078401CE07004F1200084F8068010F019FE002808BF47F00207F3
:203C100002D0192010F005FE7569414630464FF080630A46A84727F0005730E004F12C05A6
:203C3000284610F002FE06F0C7FD284610F0FDFD27F0020708B147F0020720E010F0E5FDE9
:203C5000014604F1280010F0F0FD0646B569A80810D27EB125EA0500B061084611F0FAF872
:203C7000706850B12A46F068B6F91C1075680023A84702E0084611F0EDF827F4804727B1F9
:203C900004F1D000394610F0DCFDBDE8FE83C046B008002015370100382000208C01001091
:203CB000150004401010044000000460B9A9000034200020C19F0000BB482DE9F84F002518
:203CD000BA4CB849056094F8E200002800F06581012800F02F81B64E02283CD0032840F09E
:203CF0005C8151F8250CD4F8B8100029A0F5C060C4F8D400B8BF49420028B8BF4042814275
:203D100026DA4FF08057D7F8A4014568B4F8BC0030214FF47F42082300903046A847D7F8B0
:203D3000A4014568B4F8C00004214FF4F802122300903046A847D7F8A401B4F8D07045681C
:203D500020214FF440620A2330460097A847012584F8D8501CE151F8258C10F03FFC2F4693
:203D700000B901273946934F38680028FCD0B146012609F10409D9F82CA03E6009B110F043
:203D900033FCCAF30720C4F8BC0010F027FCAA4600B9B2463B68002BFCD0D9F800B0BAF1FE
:203DB000000F3E6001D010F01FFCCBF38440C4F8C00010F013FCAA4600B9B2463B68002BDE
:203DD000FCD0D9F81C90BAF1000F3E6001D010F00BFCC9F38120C4F8D000B8F5C061C4F8E7
:203DF000B81000F09C8094F8D80068B9C4F8D410D4F8C000C4F8C800D4F8BC70C4F8C470C2
:203E1000D4F8D030C4F8CC30D4F8D410D4F8BC30002954BF02206FF0010004F1C8021768AA
:203E300001EB41014018411000EB917107EBA1001060D4F8C810C4F8C43000291CDD1E29EE
:203E50003CDDD4F8CC0030B93429B4BF15391E21C4F8C81025E02A29BABFD4F8C8000B381F
:203E70001E20C4F8C800D4F8C4003F28B4BF401C3F20C4F8C4001FE0D4F8CC00032812D027
:203E900011F10B0FC6BFD4F8C8000B30301CC4F8C800D4F8C4000028C4BF401E051CC4F85C
:203EB000C450032508E011F1150FC6BFD4F8C8001530301CC4F8C800C4F8CC504FF080578C
:203ED000D7F8A401B4F8C43030214FF47F424568374800930823A847D7F8A40104214FF4B4
:203EF00000321123456832480096A847B4F8C860D7F8A40104214FF4F802122345682C48A0
:203F10000096A847D7F8A40120214FF440620A23B4F8CC60456826480096A84701E084F870
:203F3000D85040F2FF50404502D8801C40452FD2082030E051F8251C1F4F4BF2F52048433A
:203F5000060A3868C0F3814001280CD11B480068006880470DF008FF10F04CFB3111C010D0
:203F7000484306EBE03694F8E50030B91448006820F07F408019460801E084F8E5501148E0
:203F9000310C0660012741600F4D8760287808B90B2000E0052084F8E40004F08DFCBDE84F
:203FB000F88FC0462D400C402C500C40600F002000A00C4000800C40B43F0050EC0100105C
:203FD000102009403C600C407E5D01002DE9F04F0D46E80789B00BD510F02EFA28B10021C2
:203FF0008160AE48006800B1804785F0010052E1A80710D50020069000210490002302909D
:20401000009005910393019101223C2010F01EFF85F002003FE11E246807DFF88482A14F91
:2040300040F19B800020079082469F498878FF2804BF00200FF0CEFE386890F8A00010F020
:204050002BF906463868C07A96F82EB1022818BF032806F5947906D108F10D0010F0F2FE98
:2040700008B908F1070A4946584610F0E7FE88B33868807A002818BF012804D1414648466C
:204090000EF0F3FE04E04A46594640460BF0E8FBFF283DD06043834608EB0B040622494651
:2040B000E01D0FF0EBFF18F80B0040F0020BE01D079006223868817E01F0010186F82E11A7
:2040D00004F10109386800F1140106F594700FF0D5FF1DE04946584610F088F8C0B14A46AE
:2040F000594640460BF0BCFBFF2811D04443444404F10D0010F0A6FE40B904F10D0010F021
:20411000A1FE002804BF607F012801D14BF0020B06F12C005B46017806914189090905919D
:20413000728C079904920122C088029140080390CDF804A0CDF800900020B17910F086FED6
:20415000D6F89C0159498842B0790CBF0021012109F0E8FC85F004009DE0280610D500203B
:2041700006900021049000230290009005910393019101223B2010F069FE85F080008AE09D
:20419000E8043CD508F1070108F10D0010F052FE38684179012923D1017A012918BF04299A
:2041B0001ED1C17A022918BF032919D1817E00F1140240460BF054FBFF2811D044434444C0
:2041D00004F10D0010F03EFE50B9E11D04F10D0010F030FE38680622E11D14300FF04EFF04
:2041F000334934484A6800784FF480510DF094FA10B18E2010F01AFE85F480504BE0A80546
:2042100005D510F0EBF92C4901200860FEE7690504D508F04CF985F480603CE0680405D5AE
:20423000812010F003FE85F4804034E0A80431D5224C206810B100200FF0CCFD4FF0FF30C0
:2042500020600BF0CBFC1E4C216851F8202F684690471C48C16A026B24680091019200212F
:20427000029100F134014A6809781368806A03938DF81010ADF812006B46D4F80080124A92
:2042900012491348C0471349086003F0E5FF85F4005000E0002009B0BDE8F08F204F002081
:2042B000B8160020104F0020684E00205F010100784E00206E4F0020FC002043044F0020B5
:2042D000F04E0020F81200206C1F00204015002088490020EC4E00202DE9F04FB64D6868B3
:2042F00085B0019020B905B0BDE8F04F10F09ABD0178DFF8C882B24EDFF8C892DFF8C8A213
:2043100001291CBF0229042946F2A81741F64C5B05D0402918BF802900F09A8043E110F06F
:2043300087F90028FAD00198007805F06DFB0090446814B900200FF04DFD9AF80100002860
:2043500060D002F0D5FA0FF0A7FF02900168009801914F680AF00CFF022827D000990A789A
:20437000012ADBD1994B19680A7A19F80230337018B910F053FD5844A0602069C17E01F011
:20439000EF01C1762069C17E41F08001C1762069C17E01F0F00141F00201C1768C48B9682B
:2043B00041182069C16101210098A0E001980178802913D10822874832700178012903D0FF
:2043D0009AF80100012803DD78690121C17213E0D8F828107A690878D0720DE07D49072081
:2043F00030700A787869012A02D10123C37203E0D8F828104A78C2720298817901988AF8C3
:204410000210CBE00098002888D00199009A0078914205D101281CBF00200FF0DBFC15E073
:20443000012840F0C080694801680A7A19F80200307010F0F3FC3918A06810F0EBFC18B982
:2044500010F0ECFC5844A0600120A8700098A5E09AF8010000287DD002F04AFA0FF01CFF1A
:2044700004462068029047689AF802000FF014FF039010F0E3F810F0070F3DD0A87805F0CD
:20449000C3FA019041680198009102990AF070FE022831D001990A78012A2AD14B4B196864
:2044B0000A7A19F80230337028B910F0B7FC83440098C0F808B000990869C17E01F0EF01F5
:2044D000C17600980069C17E41F08001C17600980069C17E01F0F00141F00201C176009A45
:2044F000B9683B4841181069C16101210198A97054E000200FF06EFC0398A04228D0029874
:204510000178802913D10822324832700178012903D09AF80100012803DD78690121C172F7
:2045300013E0D8F828107A690878D0720DE02949072030700A787869012A02D10123C372EB
:2045500003E0D8F828104A78C272A0798AF80200029823E010F072F810F0070F29D0A87897
:2045700005F052FA04462078D4F80480012820D116490A68107A19F80010317010F04EFC37
:204590003918D8F8080010F045FC20B910F046FC5844C8F808000120A870204605B0BDE829
:2045B000F04F06F067BE05B0BDE8F04F00200FF011BC05B0BDE8F08F0C200020945E0100F4
:2045D0006F4F0020289A0110684E0020104F0020F0D8FFFF734F00202DE9FE4F0F46994C80
:2045F0000168E16241688068E0609748A16080479648E16A0160A168DFF870B24160E16811
:20461000DFF8648281609249002FA246C16069D03D68E8788DF8080028798DF8090002A835
:2046300010F0F4FBA86808B18A490160E86808B189490160894C2878207068786070A8786D
:20465000BE68A0703178E1707368636072696261B168A160F168E160316921612E697B6894
:20467000A6621868A0616869E062A8692063287F84F834002A6AA263786886681EB9002045
:204690000FF0A8FB00E026627868C06818B900200FF0A0FB00E060627868406818B9002052
:2046B0000FF098FB00E0E0612869A062F86881680E6806B96B4E6A494FF001094E60C66895
:2046D00081F801902EB900200FF084FBF868454601E045462E6000685C46FE68A06170680D
:2046F000E06106E000200FF075FB4FF001095C46454628685E494668621C04F1140350209F
:20471000B04710B1286880688047DAF808008047594F0026834669467E7056483E7004224B
:20473000206130460EF0ACF90098B0F5801F0CD020B90EF059FD05F021FB08E00DF056FAA4
:204750000FF0DCFD0420788001E00EF04DFD4B4FB0462868C7F808808069A6608047786037
:204770004748468080F8009014200FF08DFEFF211422A06210F073F8E01CFF21022210F00B
:204790006EF814200FF080FE3E49086008681422314610F064F83046FCF70CF948460EF090
:2047B000BDF839480188FF2906D1022101807822001D314610F053F8032010F023FB0420A9
:2047D00010F01CFB052010F015FB062010F00EFB07200BF0D7FB2D4E0820307006F14000E0
:2047F00010F000FB0BF098FE363605200A2132460FF0E5F938B14046C0F10901401C06F888
:20481000011B0A28F8DB2F68214909200DF10A0201AB7D68087010204146A847A06AE2692F
:204830000A270A309DF80A1000F8011BDAF80C107F1EF7D1921E5846E261884702F0F6FFA0
:20485000BDE8FE8F7410002041490010F84400202C4F0100C53001009D3F0100F812002003
:20487000CC150020C7FD000094160020FC1300205D3701005D400100901600200020002031
:204890008C16002058200020A0110020BC0C0020712000202DE9F04F0546A64CA878216A07
:2048B000ADF11C0D801F00F03E81C01E00F02981401E78D0401E56D0C01E4AD0401E40F0AB
:2048D0003581207A617A00283FD1607800283BD0A88810F083FA071C00F02881A87A400887
:2048F0000AD3787940B1E968890A05D2B91D01AA07F086FE0A2825D0207B022802D1A87A51
:2049100000091FD36078AE887979C0B1607CB0B90120607405F10802304603F071FD0028E2
:2049300040F00481206A002800F000814368002B00F0FC80002130460A469847F6E005218B
:20495000304603E0032100E00521A88810F042FAECE0002900F0EA804B68002B00F0E680D5
:204970006A780221CBE00FF06FFD002800F0DE80276A0FB1386868B9286900280CBFE069B7
:204990000120698910F022FA002800F0CF8068890121DBE7286900903C6869892A7B6B7B5A
:2049B000E81CA047C2E068784FF00008002840F09580A8794008C0F09180606A002840F07A
:2049D0008D8001A841460E220FF049FFA88810F005FA061C00F0AA806869002859D08146BF
:2049F0004146062209F111000FF07BFAC24620B3484606220FF075FAD8B999F8100009F14E
:204A1000110B474605907F1C5846FFB28BF800700EF000FC0A280BDA474B059A0101A1EB9B
:204A3000400158188079824202D1002FEBD100E01FB947464FF0010A6F61BAF1000F09D147
:204A500009F1110101A806220FF018FB99F810008DF80A00BAF1010F1BD06F69CFB1387C75
:204A700007F1110106228DF80A0001A80FF006FB06F10C00B11D06220FF000FBB01D07F104
:204A9000110106220FF0FAFA387C40F00200707107E07079B11D06228DF80A0001A80FF015
:204AB000EDFAA9799DF81120C1F3800010438DF81100080905D39DF8110040F008008DF8AE
:204AD000110001A8294602F001FC28B92078022106F0FCFE40462AE04FF015080FF0DEFD5C
:204AF000206A18B343680BB3A8886A7801219847B8F1000F1AD0206A032142464368A88822
:204B10001BE7E878291D002207F07AFD0A280DDA410001EB800005F10C0225300421C0B297
:204B300005F0CEFD02E0A8880BF07AFD012007B0BDE8F08FBC0C0020AE0D00207CB5A34D41
:204B5000144602460026A2F58062192A1BD8DFE812F031012A012201190111010C01040147
:204B7000FD00F300E700DF00D700C500B9001A001A00970081007A0065005C0052004700FA
:204B90003A0030002500282880F29A80022940F09780218810F016F9064614E1012940F0D5
:204BB00011812178284601750121C1740FF07EFB09E1012940F00681002C00F0038128462E
:204BD0001230024614E0102940F0FC80002C00F0F98028465C30102221460FF04FFAF2E020
:204BF000012940F0EF80002C00F0EC802A46921D21781046E4E0262940F0E480002C00F083
:204C1000E180284626226C30E6E7012940F0DA80002C00F0D7802846401D9CE0602900D13C
:204C300044B9012940F0CE80002C00F0CB8028460D3090E005F19200214660220FF01EFAB5
:204C500001206873BFE0012940F0BC80207810F0B5F8B8E0012940F0B5802178022900F3F0
:204C7000B180284600F10C0211702178022918BF301C02D11021C172012010F09BF8A2E0B1
:204C9000072940F09F80611C684606220FF0CCF820786946324607F0B3FC04460A2C0FDAA1
:204CB00010F084F838B9204604F042FF0EF03AFC0BF032FC87E0284601212C30015582E074
:204CD000022680E001297DD12A462178907B0028917378D12078012875D1E9E72846027B79
:204CF00001296FD1022A04D02178072901DB102904DD022A66D12178102963D1C17262E09D
:204D100001295FD121780A295CDA2846093057E0012957D12178022954DA284608304FE030
:204D300000294FD110F042F810B90FF075FABDE7284601210F3043E0042943D121682448DD
:204D500088423FD328461C3001603CE0012939D12B4603F10A00217832E0012932D121781C
:204D700002292FDA2846C01D2AE010292AD128464C3030E7012925D12178022922DA284617
:204D9000001D1DE001291DD1217804291ADC2846C01C02462DE7012914D12178022911DAB1
:204DB0002846821C25E702290CD1218828461630018008E0012905D12178022902DC05480E
:204DD000017000E0182630467CBDC046BC0C00203F420F00BD0C00202DE9FC41A0F2013701
:204DF00014468846022F40F232819B4E9C493F1F0F2F04D9143F4CD0BF1E1CD011E0DFE82E
:204E100017F0CF00C9000D01FA00C100B9002601AF00A700100010009D008F007F007400A5
:204E30006600282880F21381B8F1020F40F00F818849238807E1B8F1010F40F00881F078EE
:204E5000012800F00481324620781179107189B9002800F0FC805078012800F0B580042871
:204E700000F0B280062800F0AF80052800F0AC80BDE8FC812078002840F0E98050780328FC
:204E900000F0AF80072800F0AC80052840F0DF80A7E0B8F1010F40F0DA802078012840F021
:204EB000D68006F1EC000FF0B7FA002840F0CF803446002004F13A0108F044FF002840F0F5
:204ED000C68004F1C8000FF0C4FCBDE8FC81B8F1020F40F0BC8020880A28C0F2B880B0F54F
:204EF000486F00F3B4808E1C17E0B8F1020F40F0AE802088B0F5FA7F80F2A9800E460CE06A
:204F1000B8F1020F40F0A38020880628C0F29F80B0F5486F00F39B803E363080BDE8FC811D
:204F3000B8F1020F40F0938020880628C0F28F80B0F5486F00F38B803C36EEE7B8F1010F73
:204F500040F085802078062880F28180454E0EE0B8F1010F7BD12078042878DA0A3606E011
:204F7000B8F1010F73D12078082870DA09363070BDE8FC81B8F1010F69D12078042866DA1A
:204F90000836F4E7B8F1010F61D1207804285EDCF61DECE7B8F1020F59D120880E36BCE7A6
:204FB000B8F1010F53D13079012850D032462078D178D07069B9002849D05078012803D052
:204FD000042818BF052842D101200FF055FABDE8FC81207800283AD15078022818BF05282C
:204FF00035D110780DF0E2FF1C490246102003F0D1FABDE8FC8106F1830500211F22284629
:2050100009F02BFB21464246284607F01BFE44463078B4710DF0CAFF002311E006F1640563
:2050300000211F22284609F018FB21464246284607F008FE4446307874710DF0B7FF01233C
:205050000094094901950246102003F0A3FABDE8FC81C046BD8401107005002099450110BE
:20507000B0050020AA050020094501102DE9F04F9E4C20780E46F10BADF11C0DC9036ED124
:20509000B0085ED2606AA16A720807D2F00828BF86F0040680F02581002023E1858861B930
:2050B00004F11800924A00904FF6FF71022301200FF078FE0146A16221B304A80090002776
:2050D000019702230293FF220392228B28460DF1120301F005FB58B99DF813009DF8122019
:2050F000A16A12EB002204D0498928460CF058FBA16A228B08463B464FF6FF710FF04EFE8C
:205110000146A162206A00291CBF012186F001061FD168B14368616A5BB188880022012129
:205130009847206A676A4368B888032100229847616A88880FF0C4F80EF030FE86F00106D6
:20515000CFE00020014602F0C1F830B1012186F00206207806F0BAFBC3E00221F7E708F01E
:2051700067F85FEA000800F0BA80054628784FF0010AB03812D0401E03D01F3800F0A580A9
:20519000A7E02879002840F0A480B8F80200B8F80610B8F808200CF003FB9DE02879401E95
:2051B00041D0083803D0743800F0828087E068781A2879D0688881460FF06AFA801E18D0AB
:2051D000401E7CD1288901280AD16889032807D1E9688A78484604210BF080FD024600E0C5
:2051F0001822206A00286AD04368002B67D0042116E02989688852460129814609D169895A
:20521000032906D1E9688F781FB910210BF066FD0246206A002852D04368002B4FD0052185
:20523000484698474BE02B7A688805F10807082B814639D10FF02CFA801E12D0401E33D121
:20525000287B0A2818BF122205D16889042100220BF044FD0246206A30B3436823B30421B9
:2052700020E07888102100220BF038FD237D834693B148460FF0B2FD70B11E490B784BB9A3
:205290004179831D524601F00101084619460EF001FE01E05046E074206A28B143681BB1CA
:2052B00005215A467888984768880FF009F806E06A880FF0EDF9014610460BF06DFE2979E7
:2052D00005F108000FF002FE03E04046FFF7E2FA8246BAF1000F02D028460EF0C5FB86F48C
:2052F0000046B0B207B0BDE8F08FC046BC0C0020E45A01005A4F00202DE9FC41884C894A2B
:205310002678894F894D8A490D2E30464FF4A0534CD8DFE816F003010E000E000E000E004A
:20533000FB00FB006800FB00A700A700D800D800DF008049176041F204464C887E4FB442D3
:205350001CBFB1F81AE0B6450BD0B1F83280B0451CBF41F20A46B44203D0B64518BFB045AB
:2053700002D12E80176076E0022C744E2C8035D94FF48067E41B1AD0241F012C1DD94FF469
:205390007F77E41B1BD04FF44067E41B0FD0A41E012C0CD9241F0AD0641E012C0DD940F29D
:2053B000F937E41B012C19D9241F08D0AEE0022814BF2B80624E16604DE0624EFBE76248AF
:2053D0000468257A012D05D141F20240488048834886F0E74B804B834B86ECE700200EF0A6
:2053F000F9FC832096E059488178FF291ED01C2041435748176040F204460068841C645AC7
:205410002C80A41B012C534D10D94FF47F76A41B15D00A3C012C14D940F6F636A41B032CCF
:2054300084BF641F012C0ED9A41E012C76D940F2FD36A41B07D0641E012C02D905E041F2A7
:205450000143801C4352156005E000200EF0C2FC85200FF02FFDBDE8FC413F4800780121BE
:2054700006F034BA4A882A8040F20443D21A55D040F6FC73D21A15D0083A4FD04FF47F7326
:20549000D21A22D1354C364A2568364800680023CDE9002355F8086F334B0222B0473349D4
:2054B00008803BE0092810D131490A68508960B1304908780AF080FF002100200FF06AFC39
:2054D000002020702AE04888288000200EF082FC85201FE04A882A80022A0DD940F2044046
:2054F000121A1BD040F6FC70121A05D0083A15D04FF47F70121AE8D1887B801CC0B2B528B6
:20551000A8BF662088730020488007E000200EF061FC8420BDE8F6410FF0CCBCBDE8F38129
:205530006F4F0020204F0020D9470100504F0020AC1F0020204A0020D1270000D9A1000027
:205550003DBD0000755B0110104F0020684E00203C200020E16400006E4F0020F04E00200F
:2055700002000080EC4E00207D1B0100424F002048200020714F002010B50B7884074CBFAF
:2055900043F0020303F0FD0304064CBF43F0800303F07F0304074CBF43F0080303F0F7034F
:2055B00084064CBF43F0200303F0DF0310F0AA0F0B7004D0107840F00C00107010BD18B931
:2055D000117801F0F301117010BDF8B50F4600263878022814461D4667D1786801784278F5
:2055F000069801EB022189B2002818BFB1F5285F01D00B20F2BD4FF42850091A0AD0491EBD
:205610001ED0491E4BD0491E22D0491E28D0C53941D04AE0F8680FF024F9069B079980B22A
:20563000C21A8A42ACBF0846C01A80B2C118162904DA28800246F868C1180DE00D2636E098
:20565000F8680088022129802070000A60702EE0062028800622F96820460EF00FFD26E041
:20567000F868B0B108212980018821700188090A61704188A1704188090AE170818821715E
:205690008188090A6171C188A171C088000AE0710DE029800BE04A480178CA0705D40120B7
:2056B0002880F8680178217001E02E8001263046F2BD2DE9F8460E46814630780024022888
:2056D00017469A4678D17068017842783C4D01EB022189B24FF42850091A08D0491E30D039
:2056F000491E55D0491E3FD0C63960D064E0F0680FF0B7F8089980B2884206D308460AEB66
:205710000001162903DB0D2457E0072455E0F3685246394618440EF0B1FC08985044ADF841
:20573000200000210898F368C0F1160218440FF096F8686800281CBF0268002A3DD00021D6
:2057500023E0089888BBBAF1020FDCD139787878F26801EB00211180686800281CBF026814
:20577000002A2AD0012110E00898F0B9BAF1060FC9D1F068062239460EF080FC68680028CF
:205790001CBF0268002A18D003214846904714E0089850B9BAF1010FB5D13878002813BF91
:2057B0000128F1680870802407E00B2405E02878C10758BF032400D501242046BDE8F2861D
:2057D000FC1500202DE9F04F8246DAF800600C465FEA0208ADF11C0D14BF00214FF0FF316A
:2057F00006F1480083460EF0C3FD002818BF0B2040F00681002565708448F460B8F1010F1F
:20581000057004D065700220F4600DF0B1F92078012840F2AB80801E012868D9801E012850
:2058300033D9801E012800F2DF800EF0EEFF06904FF0805000F5EE77D0F8DC01A378466ADA
:20585000009321782846062908BF0120019001200290A068228AE1686368B047814606981F
:205870000FF0F8FAB9F1000F40F0C080B8F1000F02D00EF0D3FB02E050460DF003FE00280A
:2058900000F0A4803868806A2AE00EF0BEFF06904FF0805000F5EE77D0F8DC01012306685F
:2058B0000093A168A27860682478AC46042C08BF9C466346B047814606980FF0CBFAB9F180
:2058D000000F40F09380B8F1000F02D00EF0A6FB02E050460DF0D6FD002877D0386840683E
:2058F00080474949C1F8B0510D6081467EE00EF08CFF06904FF0805000F5EE76D0F8DC01C7
:20591000E38A87690093E0680190208B0290A0780390207D04900121059122782846022AA9
:2059300008BF081CE1786268A368B847814606980FF090FAB9F1000F58D1B8F1000F02D0E5
:205950000EF06CFB02E050460DF09CFD00283DD03068006A80475FEA000947D13068C56996
:20597000A168E28A2369E078A847BEE70EF04DFF06904FF0805000F5EE76D0F8DC01E38AD0
:20599000C7680093E0680190208B0290A0780390207D2946049001200590257805B901467C
:2059B00008466268A368E178B847814606980FF051FAB9F1000F19D1B8F1000F02D00EF082
:2059D0002DFB02E050460DF05DFD08B9142017E03068406980475FEA000907D1306802699F
:2059F0002169E078904780E74FF0FF39B8F1010F02D002200CF0DCFE58460EF01AFF48463A
:205A100007B0BDE8F08FC04650450240702000202DE9F04FDFF80CB29BF80000002885B034
:205A300004D0401E032804D9801F012840F2F780EFE07D4DDFF8F4812868DFF8F49103686F
:205A50007C4E03F10807062207F1080103A80EF015FB0622B91C01A80EF010FB3878C0F375
:205A700080118DF800101E24C10900F00F02032A39D16879C0F38000814233D12969062217
:205A900003A80DF0E1FF00282CD09DF8000001A90FF0D4F9002825D0314601A80DF0E5F927
:205AB0000746FF2F1ED0D9F80000807A6743002818BF02280BD0012818BF032812D1701C5A
:205AD000F25DC11940460FF061F910280AD0F41901AAE11D404609F0F0FF062201A9E01DA9
:205AF0000EF0CCFA90E000F00F00052840F097806879C0F380008142F4D12969062203A8EE
:205B10000DF0A2FF0028EDD09DF800003F7801A90FF094F97F0940F2024A88B3314601A80F
:205B30000DF0A3F98346BBF1FF0F6DD0D9F80000807A002804FB0BF118BF012800910CD0A1
:205B5000022818BF03285FD10846711C325C014440460FF01BF9102856D050460FF012F994
:205B7000009806EB000A01AA0AF10701404609F0A4FF062201A90AF107000EF07FFA1CE06B
:205B90009BF8000002283FD19DF8001001AA304609F066FE8346BBF1FF0F35D004FB0BF083
:205BB0003118487F012805D070BB01F10D000FF049F948B350460FF0E5F804FB0BF4D9F820
:205BD0000010305D88760622701C0119D9F8000014300EF053FA184918488A78510604D5F9
:205BF000F90758BF41F20A4101D541F204414180418341861248134A01801348134908600F
:205C10000121107805F062FE29680A680020107105E000200EF0DEF886200FF04BF905B05A
:205C3000BDE8F08F6F4F0020F44B0020CC470020104F0020B8160020C81F0020204A0020C2
:205C5000504F00206E4F0020D1270000204F00202DE9FE4F05467E48002400680094C009B4
:205C70000ED37C48007858B97C497B4851F8112C104040F0817041F8110C20200BF02AFDAF
:205C9000012D40F0E080DFF80092D9F8DC00012840F0D6800220C9F8DC000DF035FE012061
:205CB0000BF018FD5FEA000805D00120C9F8DC000DF03AFEC9E00EF0C0FDA346029068481C
:205CD000684DC0F800B0A86A016801208847012804D1584609F0B8FA012000906248634FD8
:205CF000C0F800B0386811200EF096FC00B1012410200EF091FC08B144F002040F200EF01A
:205D10008BFC08B144F004040B200EF085FC20B12868574E016B308888470A200EF07CFCB4
:205D300020B12868534E016B308888475248012606602868816944F0200088474F4806609D
:205D50000EF064FC00F001010191400814D2286A81684B4888478246BAF1040FF7D0BAF14E
:205D7000010F04D1286A42684548032190474549086820F003000860584600F099F92B683E
:205D90003868986B8047019801280CD0BAF1010F04D1286A42683A4831469047394908685D
:205DB00040F0030008603048066028684169204688470B200EF030FC20B128682C4BC16A93
:205DD000188888470A200EF027FC20B12868294BC16A18888847284806600322C9F8DC20D2
:205DF000264BC3F800B02868416B204688470128F9D1386804200BF06DFC0446184806601B
:205E10003868134800688009FBD30098012802D1304609F019FA0EF0E7FB08200BF05AFC49
:205E300007460298C9F8DC600EF0A8FFFBF7AEF80DF07AFD57EA040018BF4FF0FF3804E047
:205E50006FF0040801E06FF001084046BDE8FE8F1410094048100020FFFFFCFC150009408D
:205E70000C400940B8010010000222432C2009406A590100665901002820086080010443BC
:205E90000040034024220840600F00202DE9F0410246854D854C2978A068521EADF1280D34
:205EB00000F08380521E7DD0921E5FD0521E4BD0521E04D0521E42D0521E3ED03BE004F164
:205ED00070000EF0C4FC7549102002F063FB7449C6B201AB1020721E02F05CFB58B90096B5
:205EF0002978A068002251A3C91CC9B20DF0E9F90DF106000EE006AE40F21530314603F00D
:205F1000ABFE2978A06800224CA3C91CC9B20DF0D8F930462D78A4680AF0F0FD6D1C034600
:205F30000022E9B220460DF0CCF94FF6FF7000210CF0DEFE76E00A462FE043A302E0C91C5D
:205F500043A3C9B200226BE0142008F0E9FCA0682978002244A30DF0B4F900204FF6FF7121
:205F70000CF0C6FE2A78501CC1B215E004F170000EF06FFC142008F0D3FC2978A068002247
:205F90003CA3C91CC9B20DF09CF900204FF6FF710CF0AEFE2A781146A068921CD2B20EF072
:205FB00005FB3FE0002237A338E04FF4417008A903F052FE9DF821608DF8056000278DF80A
:205FD00008709DF822308DF807709DF824108DF806309DF820008DF80A109DF825208DF81F
:205FF00004009DF823608DF80B2001AB2D498DF809601A680A6058684860D4F808802E7867
:2060100008A80AF07BFD361D0346F1B23A4640460DF057F9A06829781DA33A46C91CC9B273
:206030000DF04FF90AB0BDE8F081C0464E756D20436F6E6E733A20256400C046436F6E6E6D
:20605000656374656400C0464572726F7200C046436F6E6E656374656420416476657274FC
:206070006973696E6700C04654696D6564204F757400C046446973636F6E6E6563746564CC
:2060900000C046C04164766572746973696E6700496E697469616C697A656400F17F0110B3
:2060B000097F0110F70A002020150020080200202DE9F84FDFF8F4B10746ABF13500DFF8C9
:2060D000E0910068800880F0D98071480068006880477A490831D1F8008000254FEA2872F9
:2060F0005FEA985102F101020AD2C0F13E0110F10A0F4FEAE101D8BF08218A42B8BF0A1C3E
:20611000644BD3F87C11C1F304611629A8BF20391B68C3F30443162BA8BF203B9A46511884
:20613000162905DA11F10A0FB8BF6FF0090100E01521594B594E01F01F0242F4F8521A80A9
:20615000326812F0030F18BF0125D20828BF45F002050FB145F004054A4692F90730C31A5A
:20617000052B04DA9379AB4208BF918866D0DFF834E10F28A0F10F0C25DB0CEB0013A3F185
:20619000F00C4FEA2C26072E88BF07263446062C88BF06245EF82470042303EB8403744662
:2061B000E358DB1B03F0FF04EF0824BFC3F307273C44AF0824BFC3F307473C446F0828BFEE
:2061D00004EB136401E0002426465EF826E0EF080EF0FF0324BFCEF307273B44AF0824BF9A
:2061F000CEF307473B446F0828BF03EB1E63A4B2ACEB0626AAEB01017443002904F180042B
:2062100003EB1423D8BF0121342408F0FF074C43A1B27943B1FBF3F14FF6FF738B4238BF91
:20623000191C802889B2918005DA10F1800FB8BF6FF07F0000E07F20D07195711A480068D1
:206250001F2910604FF0000008D340F2FF128A4206D24908401C8A42FBD301E01F219180FC
:20627000134F0F39090940EAC10047EA0001CBF8FB1F0026CBF8FF6FBDE8F88F0D490E4F22
:206290004A4608200F60921D1070BDE8F88FC046EC0100103C1100506E6208402422084026
:2062B0002C2000209C130050082009403500094000E7A48030100940FDFDA400AC3F005007
:2062D0002DE9F84F0024774D774EDFF8E0B1DFF8E0A1DFF8E081DFF8E091D9F800104A7ABF
:2062F00001231820A34060431A420AEB000709D0087A38F810203A8000201BF80420BA735B
:20631000F87302E040F6010038800020788007F118007860387B00F0EF0040F08000387344
:20633000097A01290ED141F28830B860387B00F0F00040F005003873787B00F0F00040F048
:20635000020019E0002C0CBF0221002100F0F000084338733CB90EF061FD00F5C870CAF8E1
:206370000800022004E00020022CB860F9D10120797B01F0F00108437873641C3E61022C55
:206390007D61AADDD9F80000017A01290EBFCAF834A00020CAF834000CF0A2FE30604748DE
:2063B00080690078C1074CBF1021002182074CBF2022002243074CBF4023002300074CBF62
:2063D0008020002011431943014341F00F01317100207071D9F80010887A00F0030070715E
:2063F000CA7A920002F00402104370718A7ED20002F0080242F0100210437071087A012892
:2064100018BF042806D10020B071F071B06001F1140216E0487FB07101F15D025078F07180
:20643000487F20B10B7FC3EB4313C8181E30B060507828B11278C2EB42128B1803F15F00C6
:206450001F4AF060726101F10C0030611D4BF07E727900F0E00040F08600F0761A48F061B1
:20647000187828B1307900F0FE0042F040023071164B987843064CBF42F0200202F0DF020B
:20649000727100202880A870E87028716871E8802881A872E872E8600868C0F804A0BDE821
:2064B000F18F00BFB44D0020F44B0020409A0110204A0020109A0110104F0020945E01006B
:2064D000D0470020784E002000204E00C81F00207E488078FF2800D170472DE9F84F0DF053
:2064F000DBFE054605F217100178012908BF417800F0A28005F17400817B022903D105F1BA
:2065100074020020907305F59276F18911B1307B05F0DCF968896E4F288105F58D78B87A97
:20653000FB793A7BF97A7C7BB8F800C000EB030E96448E4474441FFA84FEB8F80440641CD9
:20655000A8F80440F444B8F80240A8F800C00419A8F802404FF01C0C3468FCB1DFF8749132
:2065700095F806A0D9F8009009F10E0B0CFB0AFA09F10E091BF80AA034F81AB0F34424F842
:206590001AB095F806A00CFB0AFA19F80A9004EB4904B4F84AE08644A4F84AE0002B08BFA4
:2065B000002904D1002A04BF797B002923D02A89E889821800202874AA81287F012804BF98
:2065D000698CE983787868B10121297705F174018878002804BF887B002803D1087F08B9E2
:2065F000698CE983307D80B3022804BFF87A002827D1002128E0E98338B100202874287FEA
:20661000012807D1698CE98304E0B8F80600401CA8F80600A8892989814206D08842D1D283
:20663000081A41F2AB029042CCDA287C08B1052901D0082100E03E212846BDE8F44F0DF0B9
:2066500011B9787A08B1022131752348FA7B01682868D30708D53A69C26001F11400A9796F
:2066700049010022425011E001F11402A97949015258184932610A68A97902F108030CFB70
:2066900001F29958C1600020E8832877134841690A7890074CBFB87B812085F8740028465F
:2066B000FCF734FB01280ED00121284608F00EF828460CF05FFFFCF79FFD012803D0BDE81B
:2066D000F14FFDF709BEBDE8F18F00BF684E00205C4D00203C20002040200020945E01003D
:2066F0002DE9F0410C4684B00746207A0026C10690461D460BD540460EF03CFB030000F022
:20671000F0800A22214638469847060050D1207802281AD160680178427801EB022189B2F0
:206730004FF42050091A012910D9891E41D0491E16D0FD3905D0491E00F08B80491E74D043
:20675000491E7BD0491E00F0A180B8E00B98002831D1E0680A9A017811800278416891E010
:206770000B98002827D10A9801210180E0680178297000216089401C80B20EF0F7FA0A997D
:20679000098868B102780A9B921C51181980418969704189090AA97002784168E81C72E05E
